{
	"_format": "hh-sol-artifact-1",
	"contractName": "mytestproj",
	"sourceName": "contracts/mytestproj.sol",
	"abi": [
		{
			"inputs": [
				{
					"internalType": "bytes32",
					"name": "_merkleRoot",
					"type": "bytes32"
				},
				{
					"internalType": "string",
					"name": "_baseURI",
					"type": "string"
				}
			],
			"stateMutability": "nonpayable",
			"type": "constructor"
		},
		{
			"inputs": [],
			"name": "ApprovalCallerNotOwnerNorApproved",
			"type": "error"
		},
		{
			"inputs": [],
			"name": "ApprovalQueryForNonexistentToken",
			"type": "error"
		},
		{
			"inputs": [],
			"name": "ApprovalToCurrentOwner",
			"type": "error"
		},
		{
			"inputs": [],
			"name": "ApproveToCaller",
			"type": "error"
		},
		{
			"inputs": [],
			"name": "BalanceQueryForZeroAddress",
			"type": "error"
		},
		{
			"inputs": [],
			"name": "MintToZeroAddress",
			"type": "error"
		},
		{
			"inputs": [],
			"name": "MintZeroQuantity",
			"type": "error"
		},
		{
			"inputs": [],
			"name": "OwnerQueryForNonexistentToken",
			"type": "error"
		},
		{
			"inputs": [],
			"name": "TransferCallerNotOwnerNorApproved",
			"type": "error"
		},
		{
			"inputs": [],
			"name": "TransferFromIncorrectOwner",
			"type": "error"
		},
		{
			"inputs": [],
			"name": "TransferToNonERC721ReceiverImplementer",
			"type": "error"
		},
		{
			"inputs": [],
			"name": "TransferToZeroAddress",
			"type": "error"
		},
		{
			"anonymous": false,
			"inputs": [
				{
					"indexed": true,
					"internalType": "address",
					"name": "owner",
					"type": "address"
				},
				{
					"indexed": true,
					"internalType": "address",
					"name": "approved",
					"type": "address"
				},
				{
					"indexed": true,
					"internalType": "uint256",
					"name": "tokenId",
					"type": "uint256"
				}
			],
			"name": "Approval",
			"type": "event"
		},
		{
			"anonymous": false,
			"inputs": [
				{
					"indexed": true,
					"internalType": "address",
					"name": "owner",
					"type": "address"
				},
				{
					"indexed": true,
					"internalType": "address",
					"name": "operator",
					"type": "address"
				},
				{
					"indexed": false,
					"internalType": "bool",
					"name": "approved",
					"type": "bool"
				}
			],
			"name": "ApprovalForAll",
			"type": "event"
		},
		{
			"anonymous": false,
			"inputs": [
				{
					"indexed": true,
					"internalType": "address",
					"name": "previousOwner",
					"type": "address"
				},
				{
					"indexed": true,
					"internalType": "address",
					"name": "newOwner",
					"type": "address"
				}
			],
			"name": "OwnershipTransferred",
			"type": "event"
		},
		{
			"anonymous": false,
			"inputs": [
				{
					"indexed": true,
					"internalType": "address",
					"name": "from",
					"type": "address"
				},
				{
					"indexed": true,
					"internalType": "address",
					"name": "to",
					"type": "address"
				},
				{
					"indexed": true,
					"internalType": "uint256",
					"name": "tokenId",
					"type": "uint256"
				}
			],
			"name": "Transfer",
			"type": "event"
		},
		{
			"inputs": [],
			"name": "MAX_PER_TX",
			"outputs": [
				{
					"internalType": "uint256",
					"name": "",
					"type": "uint256"
				}
			],
			"stateMutability": "view",
			"type": "function"
		},
		{
			"inputs": [],
			"name": "MAX_SUPPLY",
			"outputs": [
				{
					"internalType": "uint256",
					"name": "",
					"type": "uint256"
				}
			],
			"stateMutability": "view",
			"type": "function"
		},
		{
			"inputs": [
				{
					"internalType": "address",
					"name": "",
					"type": "address"
				}
			],
			"name": "amountNFTsperWalletWhitelistSale",
			"outputs": [
				{
					"internalType": "uint256",
					"name": "",
					"type": "uint256"
				}
			],
			"stateMutability": "view",
			"type": "function"
		},
		{
			"inputs": [
				{
					"internalType": "address",
					"name": "to",
					"type": "address"
				},
				{
					"internalType": "uint256",
					"name": "tokenId",
					"type": "uint256"
				}
			],
			"name": "approve",
			"outputs": [],
			"stateMutability": "nonpayable",
			"type": "function"
		},
		{
			"inputs": [
				{
					"internalType": "address",
					"name": "owner",
					"type": "address"
				}
			],
			"name": "balanceOf",
			"outputs": [
				{
					"internalType": "uint256",
					"name": "",
					"type": "uint256"
				}
			],
			"stateMutability": "view",
			"type": "function"
		},
		{
			"inputs": [],
			"name": "baseExtension",
			"outputs": [
				{
					"internalType": "string",
					"name": "",
					"type": "string"
				}
			],
			"stateMutability": "view",
			"type": "function"
		},
		{
			"inputs": [],
			"name": "baseURI",
			"outputs": [
				{
					"internalType": "string",
					"name": "",
					"type": "string"
				}
			],
			"stateMutability": "view",
			"type": "function"
		},
		{
			"inputs": [
				{
					"internalType": "uint256",
					"name": "tokenId",
					"type": "uint256"
				}
			],
			"name": "getApproved",
			"outputs": [
				{
					"internalType": "address",
					"name": "",
					"type": "address"
				}
			],
			"stateMutability": "view",
			"type": "function"
		},
		{
			"inputs": [
				{
					"internalType": "address",
					"name": "owner",
					"type": "address"
				},
				{
					"internalType": "address",
					"name": "operator",
					"type": "address"
				}
			],
			"name": "isApprovedForAll",
			"outputs": [
				{
					"internalType": "bool",
					"name": "",
					"type": "bool"
				}
			],
			"stateMutability": "view",
			"type": "function"
		},
		{
			"inputs": [
				{
					"internalType": "bytes32[]",
					"name": "proof",
					"type": "bytes32[]"
				},
				{
					"internalType": "bytes32",
					"name": "leaf",
					"type": "bytes32"
				}
			],
			"name": "isValid",
			"outputs": [
				{
					"internalType": "bool",
					"name": "",
					"type": "bool"
				}
			],
			"stateMutability": "view",
			"type": "function"
		},
		{
			"inputs": [],
			"name": "maxSupply",
			"outputs": [
				{
					"internalType": "uint256",
					"name": "",
					"type": "uint256"
				}
			],
			"stateMutability": "view",
			"type": "function"
		},
		{
			"inputs": [],
			"name": "merkleRoot",
			"outputs": [
				{
					"internalType": "bytes32",
					"name": "",
					"type": "bytes32"
				}
			],
			"stateMutability": "view",
			"type": "function"
		},
		{
			"inputs": [
				{
					"internalType": "uint256",
					"name": "_amount",
					"type": "uint256"
				}
			],
			"name": "mint",
			"outputs": [],
			"stateMutability": "payable",
			"type": "function"
		},
		{
			"inputs": [],
			"name": "name",
			"outputs": [
				{
					"internalType": "string",
					"name": "",
					"type": "string"
				}
			],
			"stateMutability": "view",
			"type": "function"
		},
		{
			"inputs": [],
			"name": "owner",
			"outputs": [
				{
					"internalType": "address",
					"name": "",
					"type": "address"
				}
			],
			"stateMutability": "view",
			"type": "function"
		},
		{
			"inputs": [
				{
					"internalType": "uint256",
					"name": "tokenId",
					"type": "uint256"
				}
			],
			"name": "ownerOf",
			"outputs": [
				{
					"internalType": "address",
					"name": "",
					"type": "address"
				}
			],
			"stateMutability": "view",
			"type": "function"
		},
		{
			"inputs": [
				{
					"internalType": "bool",
					"name": "_state",
					"type": "bool"
				}
			],
			"name": "pause",
			"outputs": [],
			"stateMutability": "nonpayable",
			"type": "function"
		},
		{
			"inputs": [],
			"name": "paused",
			"outputs": [
				{
					"internalType": "bool",
					"name": "",
					"type": "bool"
				}
			],
			"stateMutability": "view",
			"type": "function"
		},
		{
			"inputs": [],
			"name": "price",
			"outputs": [
				{
					"internalType": "uint256",
					"name": "",
					"type": "uint256"
				}
			],
			"stateMutability": "view",
			"type": "function"
		},
		{
			"inputs": [],
			"name": "proxyRegistryAddress",
			"outputs": [
				{
					"internalType": "address",
					"name": "",
					"type": "address"
				}
			],
			"stateMutability": "view",
			"type": "function"
		},
		{
			"inputs": [],
			"name": "renounceOwnership",
			"outputs": [],
			"stateMutability": "nonpayable",
			"type": "function"
		},
		{
			"inputs": [
				{
					"internalType": "address",
					"name": "from",
					"type": "address"
				},
				{
					"internalType": "address",
					"name": "to",
					"type": "address"
				},
				{
					"internalType": "uint256",
					"name": "tokenId",
					"type": "uint256"
				}
			],
			"name": "safeTransferFrom",
			"outputs": [],
			"stateMutability": "nonpayable",
			"type": "function"
		},
		{
			"inputs": [
				{
					"internalType": "address",
					"name": "from",
					"type": "address"
				},
				{
					"internalType": "address",
					"name": "to",
					"type": "address"
				},
				{
					"internalType": "uint256",
					"name": "tokenId",
					"type": "uint256"
				},
				{
					"internalType": "bytes",
					"name": "_data",
					"type": "bytes"
				}
			],
			"name": "safeTransferFrom",
			"outputs": [],
			"stateMutability": "nonpayable",
			"type": "function"
		},
		{
			"inputs": [
				{
					"internalType": "address",
					"name": "operator",
					"type": "address"
				},
				{
					"internalType": "bool",
					"name": "approved",
					"type": "bool"
				}
			],
			"name": "setApprovalForAll",
			"outputs": [],
			"stateMutability": "nonpayable",
			"type": "function"
		},
		{
			"inputs": [
				{
					"internalType": "string",
					"name": "baseURI_",
					"type": "string"
				}
			],
			"name": "setBaseURI",
			"outputs": [],
			"stateMutability": "nonpayable",
			"type": "function"
		},
		{
			"inputs": [
				{
					"internalType": "bytes32",
					"name": "_merkleRoot",
					"type": "bytes32"
				}
			],
			"name": "setMerkleRoot",
			"outputs": [],
			"stateMutability": "nonpayable",
			"type": "function"
		},
		{
			"inputs": [
				{
					"internalType": "uint256",
					"name": "newMaxSupply",
					"type": "uint256"
				}
			],
			"name": "setNewMaxSupply",
			"outputs": [],
			"stateMutability": "nonpayable",
			"type": "function"
		},
		{
			"inputs": [],
			"name": "setupOS",
			"outputs": [],
			"stateMutability": "nonpayable",
			"type": "function"
		},
		{
			"inputs": [
				{
					"internalType": "bytes4",
					"name": "interfaceId",
					"type": "bytes4"
				}
			],
			"name": "supportsInterface",
			"outputs": [
				{
					"internalType": "bool",
					"name": "",
					"type": "bool"
				}
			],
			"stateMutability": "view",
			"type": "function"
		},
		{
			"inputs": [],
			"name": "symbol",
			"outputs": [
				{
					"internalType": "string",
					"name": "",
					"type": "string"
				}
			],
			"stateMutability": "view",
			"type": "function"
		},
		{
			"inputs": [
				{
					"internalType": "uint256",
					"name": "_tokenId",
					"type": "uint256"
				}
			],
			"name": "tokenURI",
			"outputs": [
				{
					"internalType": "string",
					"name": "",
					"type": "string"
				}
			],
			"stateMutability": "view",
			"type": "function"
		},
		{
			"inputs": [],
			"name": "totalSupply",
			"outputs": [
				{
					"internalType": "uint256",
					"name": "",
					"type": "uint256"
				}
			],
			"stateMutability": "view",
			"type": "function"
		},
		{
			"inputs": [
				{
					"internalType": "address",
					"name": "from",
					"type": "address"
				},
				{
					"internalType": "address",
					"name": "to",
					"type": "address"
				},
				{
					"internalType": "uint256",
					"name": "tokenId",
					"type": "uint256"
				}
			],
			"name": "transferFrom",
			"outputs": [],
			"stateMutability": "nonpayable",
			"type": "function"
		},
		{
			"inputs": [
				{
					"internalType": "address",
					"name": "newOwner",
					"type": "address"
				}
			],
			"name": "transferOwnership",
			"outputs": [],
			"stateMutability": "nonpayable",
			"type": "function"
		},
		{
			"inputs": [
				{
					"internalType": "bytes32[]",
					"name": "proof",
					"type": "bytes32[]"
				}
			],
			"name": "whitelistMint",
			"outputs": [],
			"stateMutability": "payable",
			"type": "function"
		},
		{
			"inputs": [],
			"name": "withdraw",
			"outputs": [],
			"stateMutability": "nonpayable",
			"type": "function"
		},
		{
			"inputs": [
				{
					"internalType": "contract IERC20",
					"name": "_erc20Token",
					"type": "address"
				}
			],
			"name": "withdrawAllERC20",
			"outputs": [],
			"stateMutability": "nonpayable",
			"type": "function"
		}
	],
	"bytecode": "0x608060405260405180602001604052806000815250600990805190602001906200002b92919062000254565b506001600b60006101000a81548160ff0219169083151502179055503480156200005457600080fd5b5060405162004be338038062004be383398181016040528101906200007a9190620004dc565b6040518060400160405280600b81526020017f6d797465737470726f6a320000000000000000000000000000000000000000008152506040518060400160405280600481526020017f74737432000000000000000000000000000000000000000000000000000000008152508160029080519060200190620000fe92919062000254565b5080600390805190602001906200011792919062000254565b50620001286200018160201b60201c565b600081905550505062000150620001446200018660201b60201c565b6200018e60201b60201c565b611b39600a8190555081600c8190555080600990805190602001906200017892919062000254565b505050620005a7565b600090565b600033905090565b6000600860009054906101000a900473ffffffffffffffffffffffffffffffffffffffff16905081600860006101000a81548173ffffffffffffffffffffffffffffffffffffffff021916908373ffffffffffffffffffffffffffffffffffffffff1602179055508173ffffffffffffffffffffffffffffffffffffffff168173ffffffffffffffffffffffffffffffffffffffff167f8be0079c531659141344cd1fd0a4f28419497f9722a3daafe3b4186f6b6457e060405160405180910390a35050565b828054620002629062000571565b90600052602060002090601f016020900481019282620002865760008555620002d2565b82601f10620002a157805160ff1916838001178555620002d2565b82800160010185558215620002d2579182015b82811115620002d1578251825591602001919060010190620002b4565b5b509050620002e19190620002e5565b5090565b5b8082111562000300576000816000905550600101620002e6565b5090565b6000604051905090565b600080fd5b600080fd5b6000819050919050565b6200032d8162000318565b81146200033957600080fd5b50565b6000815190506200034d8162000322565b92915050565b600080fd5b600080fd5b6000601f19601f8301169050919050565b7f4e487b7100000000000000000000000000000000000000000000000000000000600052604160045260246000fd5b620003a8826200035d565b810181811067ffffffffffffffff82111715620003ca57620003c96200036e565b5b80604052505050565b6000620003df62000304565b9050620003ed82826200039d565b919050565b600067ffffffffffffffff82111562000410576200040f6200036e565b5b6200041b826200035d565b9050602081019050919050565b60005b83811015620004485780820151818401526020810190506200042b565b8381111562000458576000848401525b50505050565b6000620004756200046f84620003f2565b620003d3565b90508281526020810184848401111562000494576200049362000358565b5b620004a184828562000428565b509392505050565b600082601f830112620004c157620004c062000353565b5b8151620004d38482602086016200045e565b91505092915050565b60008060408385031215620004f657620004f56200030e565b5b600062000506858286016200033c565b925050602083015167ffffffffffffffff8111156200052a576200052962000313565b5b6200053885828601620004a9565b9150509250929050565b7f4e487b7100000000000000000000000000000000000000000000000000000000600052602260045260246000fd5b600060028204905060018216806200058a57607f821691505b60208210811415620005a157620005a062000542565b5b50919050565b61462c80620005b76000396000f3fe60806040526004361061021a5760003560e01c8063715018a611610123578063b7c7d9a7116100ab578063cd7c03261161006f578063cd7c03261461078f578063d5abeb01146107ba578063e985e9c5146107e5578063f2fde38b14610822578063f43a22dc1461084b5761021a565b8063b7c7d9a714610698578063b88d4fde146106c1578063b8a20ed0146106ea578063c668286214610727578063c87b56dd146107525761021a565b806395d89b41116100f257806395d89b41146105c057806399d13800146105eb578063a035b1fe14610628578063a0712d6814610653578063a22cb4651461066f5761021a565b8063715018a61461052c5780637cb6475914610543578063857abbd41461056c5780638da5cb5b146105955761021a565b8063372f657c116101a65780635c975abb116101755780635c975abb146104455780636352211e14610470578063698982ba146104ad5780636c0360eb146104c457806370a08231146104ef5761021a565b8063372f657c146103c05780633ccfd60b146103dc57806342842e0e146103f357806355f804b31461041c5761021a565b8063095ea7b3116101ed578063095ea7b3146102ed57806318160ddd1461031657806323b872dd146103415780632eb4a7ab1461036a57806332cb6b0c146103955761021a565b806301ffc9a71461021f57806302329a291461025c57806306fdde0314610285578063081812fc146102b0575b600080fd5b34801561022b57600080fd5b5061024660048036038101906102419190613139565b610876565b6040516102539190613181565b60405180910390f35b34801561026857600080fd5b50610283600480360381019061027e91906131c8565b610958565b005b34801561029157600080fd5b5061029a6109f1565b6040516102a7919061328e565b60405180910390f35b3480156102bc57600080fd5b506102d760048036038101906102d291906132e6565b610a83565b6040516102e49190613354565b60405180910390f35b3480156102f957600080fd5b50610314600480360381019061030f919061339b565b610aff565b005b34801561032257600080fd5b5061032b610c0a565b60405161033891906133ea565b60405180910390f35b34801561034d57600080fd5b5061036860048036038101906103639190613405565b610c21565b005b34801561037657600080fd5b5061037f610c31565b60405161038c9190613471565b60405180910390f35b3480156103a157600080fd5b506103aa610c37565b6040516103b791906133ea565b60405180910390f35b6103da60048036038101906103d59190613600565b610c3d565b005b3480156103e857600080fd5b506103f1610ec6565b005b3480156103ff57600080fd5b5061041a60048036038101906104159190613405565b610ffe565b005b34801561042857600080fd5b50610443600480360381019061043e91906136fe565b61101e565b005b34801561045157600080fd5b5061045a6110b4565b6040516104679190613181565b60405180910390f35b34801561047c57600080fd5b50610497600480360381019061049291906132e6565b6110c7565b6040516104a49190613354565b60405180910390f35b3480156104b957600080fd5b506104c26110dd565b005b3480156104d057600080fd5b506104d961116d565b6040516104e6919061328e565b60405180910390f35b3480156104fb57600080fd5b5061051660048036038101906105119190613747565b6111fb565b60405161052391906133ea565b60405180910390f35b34801561053857600080fd5b506105416112cb565b005b34801561054f57600080fd5b5061056a60048036038101906105659190613774565b611349565b005b34801561057857600080fd5b50610593600480360381019061058e91906137df565b6113cf565b005b3480156105a157600080fd5b506105aa61156b565b6040516105b79190613354565b60405180910390f35b3480156105cc57600080fd5b506105d5611595565b6040516105e2919061328e565b60405180910390f35b3480156105f757600080fd5b50610612600480360381019061060d9190613747565b611627565b60405161061f91906133ea565b60405180910390f35b34801561063457600080fd5b5061063d61163f565b60405161064a91906133ea565b60405180910390f35b61066d600480360381019061066891906132e6565b61164a565b005b34801561067b57600080fd5b506106966004803603810190610691919061380c565b611854565b005b3480156106a457600080fd5b506106bf60048036038101906106ba91906132e6565b6119cc565b005b3480156106cd57600080fd5b506106e860048036038101906106e391906138ed565b611a96565b005b3480156106f657600080fd5b50610711600480360381019061070c9190613970565b611b12565b60405161071e9190613181565b60405180910390f35b34801561073357600080fd5b5061073c611b29565b604051610749919061328e565b60405180910390f35b34801561075e57600080fd5b50610779600480360381019061077491906132e6565b611b62565b604051610786919061328e565b60405180910390f35b34801561079b57600080fd5b506107a4611c41565b6040516107b19190613354565b60405180910390f35b3480156107c657600080fd5b506107cf611c59565b6040516107dc91906133ea565b60405180910390f35b3480156107f157600080fd5b5061080c600480360381019061080791906139cc565b611c5f565b6040516108199190613181565b60405180910390f35b34801561082e57600080fd5b5061084960048036038101906108449190613747565b611d53565b005b34801561085757600080fd5b50610860611e4b565b60405161086d91906133ea565b60405180910390f35b60007f80ac58cd000000000000000000000000000000000000000000000000000000007bffffffffffffffffffffffffffffffffffffffffffffffffffffffff1916827bffffffffffffffffffffffffffffffffffffffffffffffffffffffff1916148061094157507f5b5e139f000000000000000000000000000000000000000000000000000000007bffffffffffffffffffffffffffffffffffffffffffffffffffffffff1916827bffffffffffffffffffffffffffffffffffffffffffffffffffffffff1916145b80610951575061095082611e50565b5b9050919050565b610960611eba565b73ffffffffffffffffffffffffffffffffffffffff1661097e61156b565b73ffffffffffffffffffffffffffffffffffffffff16146109d4576040517f08c379a00000000000000000000000000000000000000000000000000000000081526004016109cb90613a58565b60405180910390fd5b80600b60006101000a81548160ff02191690831515021790555050565b606060028054610a0090613aa7565b80601f0160208091040260200160405190810160405280929190818152602001828054610a2c90613aa7565b8015610a795780601f10610a4e57610100808354040283529160200191610a79565b820191906000526020600020905b815481529060010190602001808311610a5c57829003601f168201915b5050505050905090565b6000610a8e82611ec2565b610ac4576040517fcf4700e400000000000000000000000000000000000000000000000000000000815260040160405180910390fd5b6006600083815260200190815260200160002060009054906101000a900473ffffffffffffffffffffffffffffffffffffffff169050919050565b6000610b0a826110c7565b90508073ffffffffffffffffffffffffffffffffffffffff168373ffffffffffffffffffffffffffffffffffffffff161415610b72576040517f943f7b8c00000000000000000000000000000000000000000000000000000000815260040160405180910390fd5b8073ffffffffffffffffffffffffffffffffffffffff16610b91611eba565b73ffffffffffffffffffffffffffffffffffffffff1614158015610bc35750610bc181610bbc611eba565b611c5f565b155b15610bfa576040517fcfb3b94200000000000000000000000000000000000000000000000000000000815260040160405180910390fd5b610c05838383611f10565b505050565b6000610c14611fc2565b6001546000540303905090565b610c2c838383611fc7565b505050565b600c5481565b611b3981565b6000610c47611eba565b9050600060019050610c7f8333604051602001610c649190613b21565b60405160208183030381529060405280519060200120611b12565b610cbe576040517f08c379a0000000000000000000000000000000000000000000000000000000008152600401610cb590613b88565b60405180910390fd5b600b60009054906101000a900460ff1615610d0e576040517f08c379a0000000000000000000000000000000000000000000000000000000008152600401610d0590613bf4565b60405180910390fd5b80610d17610c0a565b610d219190613c43565b611b391015610d65576040517f08c379a0000000000000000000000000000000000000000000000000000000008152600401610d5c90613ce5565b60405180910390fd5b8173ffffffffffffffffffffffffffffffffffffffff163273ffffffffffffffffffffffffffffffffffffffff1614610dd3576040517f08c379a0000000000000000000000000000000000000000000000000000000008152600401610dca90613d51565b60405180910390fd5b600181600d60003373ffffffffffffffffffffffffffffffffffffffff1673ffffffffffffffffffffffffffffffffffffffff16815260200190815260200160002054610e209190613c43565b1115610e61576040517f08c379a0000000000000000000000000000000000000000000000000000000008152600401610e5890613de3565b60405180910390fd5b80600d60003373ffffffffffffffffffffffffffffffffffffffff1673ffffffffffffffffffffffffffffffffffffffff1681526020019081526020016000206000828254610eb09190613c43565b92505081905550610ec1828261247d565b505050565b610ece611eba565b73ffffffffffffffffffffffffffffffffffffffff16610eec61156b565b73ffffffffffffffffffffffffffffffffffffffff1614610f42576040517f08c379a0000000000000000000000000000000000000000000000000000000008152600401610f3990613a58565b60405180910390fd5b60004790506000610f51611eba565b73ffffffffffffffffffffffffffffffffffffffff1682604051610f7490613e34565b60006040518083038185875af1925050503d8060008114610fb1576040519150601f19603f3d011682016040523d82523d6000602084013e610fb6565b606091505b5050905080610ffa576040517f08c379a0000000000000000000000000000000000000000000000000000000008152600401610ff190613e95565b60405180910390fd5b5050565b61101983838360405180602001604052806000815250611a96565b505050565b611026611eba565b73ffffffffffffffffffffffffffffffffffffffff1661104461156b565b73ffffffffffffffffffffffffffffffffffffffff161461109a576040517f08c379a000000000000000000000000000000000000000000000000000000000815260040161109190613a58565b60405180910390fd5b80600990805190602001906110b0929190612fe7565b5050565b600b60009054906101000a900460ff1681565b60006110d28261249b565b600001519050919050565b6110e5611eba565b73ffffffffffffffffffffffffffffffffffffffff1661110361156b565b73ffffffffffffffffffffffffffffffffffffffff1614611159576040517f08c379a000000000000000000000000000000000000000000000000000000000815260040161115090613a58565b60405180910390fd5b61116b611164611eba565b600161247d565b565b6009805461117a90613aa7565b80601f01602080910402602001604051908101604052809291908181526020018280546111a690613aa7565b80156111f35780601f106111c8576101008083540402835291602001916111f3565b820191906000526020600020905b8154815290600101906020018083116111d657829003601f168201915b505050505081565b60008073ffffffffffffffffffffffffffffffffffffffff168273ffffffffffffffffffffffffffffffffffffffff161415611263576040517f8f4eb60400000000000000000000000000000000000000000000000000000000815260040160405180910390fd5b600560008373ffffffffffffffffffffffffffffffffffffffff1673ffffffffffffffffffffffffffffffffffffffff16815260200190815260200160002060000160009054906101000a900467ffffffffffffffff1667ffffffffffffffff169050919050565b6112d3611eba565b73ffffffffffffffffffffffffffffffffffffffff166112f161156b565b73ffffffffffffffffffffffffffffffffffffffff1614611347576040517f08c379a000000000000000000000000000000000000000000000000000000000815260040161133e90613a58565b60405180910390fd5b565b611351611eba565b73ffffffffffffffffffffffffffffffffffffffff1661136f61156b565b73ffffffffffffffffffffffffffffffffffffffff16146113c5576040517f08c379a00000000000000000000000000000000000000000000000000000000081526004016113bc90613a58565b60405180910390fd5b80600c8190555050565b6113d7611eba565b73ffffffffffffffffffffffffffffffffffffffff166113f561156b565b73ffffffffffffffffffffffffffffffffffffffff161461144b576040517f08c379a000000000000000000000000000000000000000000000000000000000815260040161144290613a58565b60405180910390fd5b8073ffffffffffffffffffffffffffffffffffffffff1663a9059cbb61146f61156b565b8373ffffffffffffffffffffffffffffffffffffffff166370a08231306040518263ffffffff1660e01b81526004016114a89190613354565b60206040518083038186803b1580156114c057600080fd5b505afa1580156114d4573d6000803e3d6000fd5b505050506040513d601f19601f820116820180604052508101906114f89190613eca565b6040518363ffffffff1660e01b8152600401611515929190613ef7565b602060405180830381600087803b15801561152f57600080fd5b505af1158015611543573d6000803e3d6000fd5b505050506040513d601f19601f820116820180604052508101906115679190613f35565b5050565b6000600860009054906101000a900473ffffffffffffffffffffffffffffffffffffffff16905090565b6060600380546115a490613aa7565b80601f01602080910402602001604051908101604052809291908181526020018280546115d090613aa7565b801561161d5780601f106115f25761010080835404028352916020019161161d565b820191906000526020600020905b81548152906001019060200180831161160057829003601f168201915b5050505050905090565b600d6020528060005260406000206000915090505481565b662714711487800081565b6000611654611eba565b9050600b60009054906101000a900460ff16156116a6576040517f08c379a000000000000000000000000000000000000000000000000000000000815260040161169d90613bf4565b60405180910390fd5b816116af610c0a565b6116b99190613c43565b611b3910156116fd576040517f08c379a00000000000000000000000000000000000000000000000000000000081526004016116f490613ce5565b60405180910390fd5b60008211611740576040517f08c379a000000000000000000000000000000000000000000000000000000000815260040161173790613fae565b60405180910390fd5b8073ffffffffffffffffffffffffffffffffffffffff163273ffffffffffffffffffffffffffffffffffffffff16146117ae576040517f08c379a00000000000000000000000000000000000000000000000000000000081526004016117a590613d51565b60405180910390fd5b81600a10156117f2576040517f08c379a00000000000000000000000000000000000000000000000000000000081526004016117e99061401a565b60405180910390fd5b34662714711487800083611806919061403a565b14611846576040517f08c379a000000000000000000000000000000000000000000000000000000000815260040161183d906140e0565b60405180910390fd5b611850818361247d565b5050565b61185c611eba565b73ffffffffffffffffffffffffffffffffffffffff168273ffffffffffffffffffffffffffffffffffffffff1614156118c1576040517fb06307db00000000000000000000000000000000000000000000000000000000815260040160405180910390fd5b80600760006118ce611eba565b73ffffffffffffffffffffffffffffffffffffffff1673ffffffffffffffffffffffffffffffffffffffff16815260200190815260200160002060008473ffffffffffffffffffffffffffffffffffffffff1673ffffffffffffffffffffffffffffffffffffffff16815260200190815260200160002060006101000a81548160ff0219169083151502179055508173ffffffffffffffffffffffffffffffffffffffff1661197b611eba565b73ffffffffffffffffffffffffffffffffffffffff167f17307eab39ab6107e8899845ad3d59bd9653f200f220920489ca2b5937696c31836040516119c09190613181565b60405180910390a35050565b6119d4611eba565b73ffffffffffffffffffffffffffffffffffffffff166119f261156b565b73ffffffffffffffffffffffffffffffffffffffff1614611a48576040517f08c379a0000000000000000000000000000000000000000000000000000000008152600401611a3f90613a58565b60405180910390fd5b600a548110611a8c576040517f08c379a0000000000000000000000000000000000000000000000000000000008152600401611a839061414c565b60405180910390fd5b80600a8190555050565b611aa1848484611fc7565b611ac08373ffffffffffffffffffffffffffffffffffffffff1661272a565b8015611ad55750611ad38484848461273d565b155b15611b0c576040517fd1a57ed600000000000000000000000000000000000000000000000000000000815260040160405180910390fd5b50505050565b6000611b2183600c548461289d565b905092915050565b6040518060400160405280600581526020017f2e6a736f6e00000000000000000000000000000000000000000000000000000081525081565b6060611b6d82611ec2565b611bac576040517f08c379a0000000000000000000000000000000000000000000000000000000008152600401611ba3906141b8565b60405180910390fd5b600060098054611bbb90613aa7565b905011611bd75760405180602001604052806000815250611c3a565b6009611be2836128b4565b6040518060400160405280600581526020017f2e6a736f6e000000000000000000000000000000000000000000000000000000815250604051602001611c2a939291906142a8565b6040516020818303038152906040525b9050919050565b73f57b2c51ded3a29e6891aba85459d600256cf31781565b600a5481565b60008073f57b2c51ded3a29e6891aba85459d600256cf31790508273ffffffffffffffffffffffffffffffffffffffff168173ffffffffffffffffffffffffffffffffffffffff1663c4552791866040518263ffffffff1660e01b8152600401611cc99190613354565b60206040518083038186803b158015611ce157600080fd5b505afa158015611cf5573d6000803e3d6000fd5b505050506040513d601f19601f82011682018060405250810190611d199190614317565b73ffffffffffffffffffffffffffffffffffffffff161415611d3f576001915050611d4d565b611d498484612a15565b9150505b92915050565b611d5b611eba565b73ffffffffffffffffffffffffffffffffffffffff16611d7961156b565b73ffffffffffffffffffffffffffffffffffffffff1614611dcf576040517f08c379a0000000000000000000000000000000000000000000000000000000008152600401611dc690613a58565b60405180910390fd5b600073ffffffffffffffffffffffffffffffffffffffff168173ffffffffffffffffffffffffffffffffffffffff161415611e3f576040517f08c379a0000000000000000000000000000000000000000000000000000000008152600401611e36906143b6565b60405180910390fd5b611e4881612aa9565b50565b600a81565b60007f01ffc9a7000000000000000000000000000000000000000000000000000000007bffffffffffffffffffffffffffffffffffffffffffffffffffffffff1916827bffffffffffffffffffffffffffffffffffffffffffffffffffffffff1916149050919050565b600033905090565b600081611ecd611fc2565b11158015611edc575060005482105b8015611f09575060046000838152602001908152602001600020600001601c9054906101000a900460ff16155b9050919050565b826006600084815260200190815260200160002060006101000a81548173ffffffffffffffffffffffffffffffffffffffff021916908373ffffffffffffffffffffffffffffffffffffffff160217905550818373ffffffffffffffffffffffffffffffffffffffff168273ffffffffffffffffffffffffffffffffffffffff167f8c5be1e5ebec7d5bd14f71427d1e84f3dd0314c0f7b2291e5b200ac8c7c3b92560405160405180910390a4505050565b600090565b6000611fd28261249b565b90508373ffffffffffffffffffffffffffffffffffffffff16816000015173ffffffffffffffffffffffffffffffffffffffff161461203d576040517fa114810000000000000000000000000000000000000000000000000000000000815260040160405180910390fd5b60008473ffffffffffffffffffffffffffffffffffffffff1661205e611eba565b73ffffffffffffffffffffffffffffffffffffffff16148061208d575061208c85612087611eba565b611c5f565b5b806120d2575061209b611eba565b73ffffffffffffffffffffffffffffffffffffffff166120ba84610a83565b73ffffffffffffffffffffffffffffffffffffffff16145b90508061210b576040517f59c896be00000000000000000000000000000000000000000000000000000000815260040160405180910390fd5b600073ffffffffffffffffffffffffffffffffffffffff168473ffffffffffffffffffffffffffffffffffffffff161415612172576040517fea553b3400000000000000000000000000000000000000000000000000000000815260040160405180910390fd5b61217f8585856001612b6f565b61218b60008487611f10565b6001600560008773ffffffffffffffffffffffffffffffffffffffff1673ffffffffffffffffffffffffffffffffffffffff16815260200190815260200160002060000160008282829054906101000a900467ffffffffffffffff160392506101000a81548167ffffffffffffffff021916908367ffffffffffffffff1602179055506001600560008673ffffffffffffffffffffffffffffffffffffffff1673ffffffffffffffffffffffffffffffffffffffff16815260200190815260200160002060000160008282829054906101000a900467ffffffffffffffff160192506101000a81548167ffffffffffffffff021916908367ffffffffffffffff1602179055506000600460008581526020019081526020016000209050848160000160006101000a81548173ffffffffffffffffffffffffffffffffffffffff021916908373ffffffffffffffffffffffffffffffffffffffff160217905550428160000160146101000a81548167ffffffffffffffff021916908367ffffffffffffffff16021790555060006001850190506000600460008381526020019081526020016000209050600073ffffffffffffffffffffffffffffffffffffffff168160000160009054906101000a900473ffffffffffffffffffffffffffffffffffffffff1673ffffffffffffffffffffffffffffffffffffffff16141561240b57600054821461240a57878160000160006101000a81548173ffffffffffffffffffffffffffffffffffffffff021916908373ffffffffffffffffffffffffffffffffffffffff16021790555084602001518160000160146101000a81548167ffffffffffffffff021916908367ffffffffffffffff1602179055505b5b505050828473ffffffffffffffffffffffffffffffffffffffff168673ffffffffffffffffffffffffffffffffffffffff167fddf252ad1be2c89b69c2b068fc378daa952ba7f163c4a11628f55a4df523b3ef60405160405180910390a46124768585856001612b75565b5050505050565b612497828260405180602001604052806000815250612b7b565b5050565b6124a361306d565b6000829050806124b1611fc2565b111580156124c0575060005481105b156126f3576000600460008381526020019081526020016000206040518060600160405290816000820160009054906101000a900473ffffffffffffffffffffffffffffffffffffffff1673ffffffffffffffffffffffffffffffffffffffff1673ffffffffffffffffffffffffffffffffffffffff1681526020016000820160149054906101000a900467ffffffffffffffff1667ffffffffffffffff1667ffffffffffffffff16815260200160008201601c9054906101000a900460ff161515151581525050905080604001516126f157600073ffffffffffffffffffffffffffffffffffffffff16816000015173ffffffffffffffffffffffffffffffffffffffff16146125d5578092505050612725565b5b6001156126f057818060019003925050600460008381526020019081526020016000206040518060600160405290816000820160009054906101000a900473ffffffffffffffffffffffffffffffffffffffff1673ffffffffffffffffffffffffffffffffffffffff1673ffffffffffffffffffffffffffffffffffffffff1681526020016000820160149054906101000a900467ffffffffffffffff1667ffffffffffffffff1667ffffffffffffffff16815260200160008201601c9054906101000a900460ff1615151515815250509050600073ffffffffffffffffffffffffffffffffffffffff16816000015173ffffffffffffffffffffffffffffffffffffffff16146126eb578092505050612725565b6125d6565b5b505b6040517fdf2d9b4200000000000000000000000000000000000000000000000000000000815260040160405180910390fd5b919050565b600080823b905060008111915050919050565b60008373ffffffffffffffffffffffffffffffffffffffff1663150b7a02612763611eba565b8786866040518563ffffffff1660e01b8152600401612785949392919061442b565b602060405180830381600087803b15801561279f57600080fd5b505af19250505080156127d057506040513d601f19601f820116820180604052508101906127cd919061448c565b60015b61284a573d8060008114612800576040519150601f19603f3d011682016040523d82523d6000602084013e612805565b606091505b50600081511415612842576040517fd1a57ed600000000000000000000000000000000000000000000000000000000815260040160405180910390fd5b805181602001fd5b63150b7a0260e01b7bffffffffffffffffffffffffffffffffffffffffffffffffffffffff1916817bffffffffffffffffffffffffffffffffffffffffffffffffffffffff191614915050949350505050565b6000826128aa8584612b8d565b1490509392505050565b606060008214156128fc576040518060400160405280600181526020017f30000000000000000000000000000000000000000000000000000000000000008152509050612a10565b600082905060005b6000821461292e578080612917906144b9565b915050600a826129279190614531565b9150612904565b60008167ffffffffffffffff81111561294a57612949613491565b5b6040519080825280601f01601f19166020018201604052801561297c5781602001600182028036833780820191505090505b5090505b60008514612a09576001826129959190614562565b9150600a856129a49190614596565b60306129b09190613c43565b60f81b8183815181106129c6576129c56145c7565b5b60200101907effffffffffffffffffffffffffffffffffffffffffffffffffffffffffffff1916908160001a905350600a85612a029190614531565b9450612980565b8093505050505b919050565b6000600760008473ffffffffffffffffffffffffffffffffffffffff1673ffffffffffffffffffffffffffffffffffffffff16815260200190815260200160002060008373ffffffffffffffffffffffffffffffffffffffff1673ffffffffffffffffffffffffffffffffffffffff16815260200190815260200160002060009054906101000a900460ff16905092915050565b6000600860009054906101000a900473ffffffffffffffffffffffffffffffffffffffff16905081600860006101000a81548173ffffffffffffffffffffffffffffffffffffffff021916908373ffffffffffffffffffffffffffffffffffffffff1602179055508173ffffffffffffffffffffffffffffffffffffffff168173ffffffffffffffffffffffffffffffffffffffff167f8be0079c531659141344cd1fd0a4f28419497f9722a3daafe3b4186f6b6457e060405160405180910390a35050565b50505050565b50505050565b612b888383836001612c02565b505050565b60008082905060005b8451811015612bf7576000858281518110612bb457612bb36145c7565b5b60200260200101519050808311612bd657612bcf8382612fd0565b9250612be3565b612be08184612fd0565b92505b508080612bef906144b9565b915050612b96565b508091505092915050565b600080549050600073ffffffffffffffffffffffffffffffffffffffff168573ffffffffffffffffffffffffffffffffffffffff161415612c6f576040517f2e07630000000000000000000000000000000000000000000000000000000000815260040160405180910390fd5b6000841415612caa576040517fb562e8dd00000000000000000000000000000000000000000000000000000000815260040160405180910390fd5b612cb76000868387612b6f565b83600560008773ffffffffffffffffffffffffffffffffffffffff1673ffffffffffffffffffffffffffffffffffffffff16815260200190815260200160002060000160008282829054906101000a900467ffffffffffffffff160192506101000a81548167ffffffffffffffff021916908367ffffffffffffffff16021790555083600560008773ffffffffffffffffffffffffffffffffffffffff1673ffffffffffffffffffffffffffffffffffffffff16815260200190815260200160002060000160088282829054906101000a900467ffffffffffffffff160192506101000a81548167ffffffffffffffff021916908367ffffffffffffffff160217905550846004600083815260200190815260200160002060000160006101000a81548173ffffffffffffffffffffffffffffffffffffffff021916908373ffffffffffffffffffffffffffffffffffffffff160217905550426004600083815260200190815260200160002060000160146101000a81548167ffffffffffffffff021916908367ffffffffffffffff160217905550600081905060008582019050838015612e815750612e808773ffffffffffffffffffffffffffffffffffffffff1661272a565b5b15612f47575b818773ffffffffffffffffffffffffffffffffffffffff16600073ffffffffffffffffffffffffffffffffffffffff167fddf252ad1be2c89b69c2b068fc378daa952ba7f163c4a11628f55a4df523b3ef60405160405180910390a4612ef6600088848060010195508861273d565b612f2c576040517fd1a57ed600000000000000000000000000000000000000000000000000000000815260040160405180910390fd5b80821415612e87578260005414612f4257600080fd5b612fb3565b5b818060010192508773ffffffffffffffffffffffffffffffffffffffff16600073ffffffffffffffffffffffffffffffffffffffff167fddf252ad1be2c89b69c2b068fc378daa952ba7f163c4a11628f55a4df523b3ef60405160405180910390a480821415612f48575b816000819055505050612fc96000868387612b75565b5050505050565b600082600052816020526040600020905092915050565b828054612ff390613aa7565b90600052602060002090601f016020900481019282613015576000855561305c565b82601f1061302e57805160ff191683800117855561305c565b8280016001018555821561305c579182015b8281111561305b578251825591602001919060010190613040565b5b50905061306991906130b0565b5090565b6040518060600160405280600073ffffffffffffffffffffffffffffffffffffffff168152602001600067ffffffffffffffff1681526020016000151581525090565b5b808211156130c95760008160009055506001016130b1565b5090565b6000604051905090565b600080fd5b600080fd5b60007fffffffff0000000000000000000000000000000000000000000000000000000082169050919050565b613116816130e1565b811461312157600080fd5b50565b6000813590506131338161310d565b92915050565b60006020828403121561314f5761314e6130d7565b5b600061315d84828501613124565b91505092915050565b60008115159050919050565b61317b81613166565b82525050565b60006020820190506131966000830184613172565b92915050565b6131a581613166565b81146131b057600080fd5b50565b6000813590506131c28161319c565b92915050565b6000602082840312156131de576131dd6130d7565b5b60006131ec848285016131b3565b91505092915050565b600081519050919050565b600082825260208201905092915050565b60005b8381101561322f578082015181840152602081019050613214565b8381111561323e576000848401525b50505050565b6000601f19601f8301169050919050565b6000613260826131f5565b61326a8185613200565b935061327a818560208601613211565b61328381613244565b840191505092915050565b600060208201905081810360008301526132a88184613255565b905092915050565b6000819050919050565b6132c3816132b0565b81146132ce57600080fd5b50565b6000813590506132e0816132ba565b92915050565b6000602082840312156132fc576132fb6130d7565b5b600061330a848285016132d1565b91505092915050565b600073ffffffffffffffffffffffffffffffffffffffff82169050919050565b600061333e82613313565b9050919050565b61334e81613333565b82525050565b60006020820190506133696000830184613345565b92915050565b61337881613333565b811461338357600080fd5b50565b6000813590506133958161336f565b92915050565b600080604083850312156133b2576133b16130d7565b5b60006133c085828601613386565b92505060206133d1858286016132d1565b9150509250929050565b6133e4816132b0565b82525050565b60006020820190506133ff60008301846133db565b92915050565b60008060006060848603121561341e5761341d6130d7565b5b600061342c86828701613386565b935050602061343d86828701613386565b925050604061344e868287016132d1565b9150509250925092565b6000819050919050565b61346b81613458565b82525050565b60006020820190506134866000830184613462565b92915050565b600080fd5b7f4e487b7100000000000000000000000000000000000000000000000000000000600052604160045260246000fd5b6134c982613244565b810181811067ffffffffffffffff821117156134e8576134e7613491565b5b80604052505050565b60006134fb6130cd565b905061350782826134c0565b919050565b600067ffffffffffffffff82111561352757613526613491565b5b602082029050602081019050919050565b600080fd5b61354681613458565b811461355157600080fd5b50565b6000813590506135638161353d565b92915050565b600061357c6135778461350c565b6134f1565b9050808382526020820190506020840283018581111561359f5761359e613538565b5b835b818110156135c857806135b48882613554565b8452602084019350506020810190506135a1565b5050509392505050565b600082601f8301126135e7576135e661348c565b5b81356135f7848260208601613569565b91505092915050565b600060208284031215613616576136156130d7565b5b600082013567ffffffffffffffff811115613634576136336130dc565b5b613640848285016135d2565b91505092915050565b600080fd5b600067ffffffffffffffff82111561366957613668613491565b5b61367282613244565b9050602081019050919050565b82818337600083830152505050565b60006136a161369c8461364e565b6134f1565b9050828152602081018484840111156136bd576136bc613649565b5b6136c884828561367f565b509392505050565b600082601f8301126136e5576136e461348c565b5b81356136f584826020860161368e565b91505092915050565b600060208284031215613714576137136130d7565b5b600082013567ffffffffffffffff811115613732576137316130dc565b5b61373e848285016136d0565b91505092915050565b60006020828403121561375d5761375c6130d7565b5b600061376b84828501613386565b91505092915050565b60006020828403121561378a576137896130d7565b5b600061379884828501613554565b91505092915050565b60006137ac82613333565b9050919050565b6137bc816137a1565b81146137c757600080fd5b50565b6000813590506137d9816137b3565b92915050565b6000602082840312156137f5576137f46130d7565b5b6000613803848285016137ca565b91505092915050565b60008060408385031215613823576138226130d7565b5b600061383185828601613386565b9250506020613842858286016131b3565b9150509250929050565b600067ffffffffffffffff82111561386757613866613491565b5b61387082613244565b9050602081019050919050565b600061389061388b8461384c565b6134f1565b9050828152602081018484840111156138ac576138ab613649565b5b6138b784828561367f565b509392505050565b600082601f8301126138d4576138d361348c565b5b81356138e484826020860161387d565b91505092915050565b60008060008060808587031215613907576139066130d7565b5b600061391587828801613386565b945050602061392687828801613386565b9350506040613937878288016132d1565b925050606085013567ffffffffffffffff811115613958576139576130dc565b5b613964878288016138bf565b91505092959194509250565b60008060408385031215613987576139866130d7565b5b600083013567ffffffffffffffff8111156139a5576139a46130dc565b5b6139b1858286016135d2565b92505060206139c285828601613554565b9150509250929050565b600080604083850312156139e3576139e26130d7565b5b60006139f185828601613386565b9250506020613a0285828601613386565b9150509250929050565b7f4f776e61626c653a2063616c6c6572206973206e6f7420746865206f776e6572600082015250565b6000613a42602083613200565b9150613a4d82613a0c565b602082019050919050565b60006020820190508181036000830152613a7181613a35565b9050919050565b7f4e487b7100000000000000000000000000000000000000000000000000000000600052602260045260246000fd5b60006002820490506001821680613abf57607f821691505b60208210811415613ad357613ad2613a78565b5b50919050565b60008160601b9050919050565b6000613af182613ad9565b9050919050565b6000613b0382613ae6565b9050919050565b613b1b613b1682613333565b613af8565b82525050565b6000613b2d8284613b0a565b60148201915081905092915050565b7f4e6f7420612070617274206f6620416c6c6f776c697374000000000000000000600082015250565b6000613b72601783613200565b9150613b7d82613b3c565b602082019050919050565b60006020820190508181036000830152613ba181613b65565b9050919050565b7f53616c65206e6f74207374617274656420796574000000000000000000000000600082015250565b6000613bde601483613200565b9150613be982613ba8565b602082019050919050565b60006020820190508181036000830152613c0d81613bd1565b9050919050565b7f4e487b7100000000000000000000000000000000000000000000000000000000600052601160045260246000fd5b6000613c4e826132b0565b9150613c59836132b0565b9250827fffffffffffffffffffffffffffffffffffffffffffffffffffffffffffffffff03821115613c8e57613c8d613c14565b5b828201905092915050565b7f45786365656473206d617820737570706c790000000000000000000000000000600082015250565b6000613ccf601283613200565b9150613cda82613c99565b602082019050919050565b60006020820190508181036000830152613cfe81613cc2565b9050919050565b7f4e6f20636f6e7472616374730000000000000000000000000000000000000000600082015250565b6000613d3b600c83613200565b9150613d4682613d05565b602082019050919050565b60006020820190508181036000830152613d6a81613d2e565b9050919050565b7f596f752063616e206f6e6c79206765742031204e4654206f6e2074686520576860008201527f6974656c6973742053616c650000000000000000000000000000000000000000602082015250565b6000613dcd602c83613200565b9150613dd882613d71565b604082019050919050565b60006020820190508181036000830152613dfc81613dc0565b9050919050565b600081905092915050565b50565b6000613e1e600083613e03565b9150613e2982613e0e565b600082019050919050565b6000613e3f82613e11565b9150819050919050565b7f4661696c656420746f2073656e64000000000000000000000000000000000000600082015250565b6000613e7f600e83613200565b9150613e8a82613e49565b602082019050919050565b60006020820190508181036000830152613eae81613e72565b9050919050565b600081519050613ec4816132ba565b92915050565b600060208284031215613ee057613edf6130d7565b5b6000613eee84828501613eb5565b91505092915050565b6000604082019050613f0c6000830185613345565b613f1960208301846133db565b9392505050565b600081519050613f2f8161319c565b92915050565b600060208284031215613f4b57613f4a6130d7565b5b6000613f5984828501613f20565b91505092915050565b7f4e6f2030206d696e747300000000000000000000000000000000000000000000600082015250565b6000613f98600a83613200565b9150613fa382613f62565b602082019050919050565b60006020820190508181036000830152613fc781613f8b565b9050919050565b7f457863657373206d617820706572207061696420747800000000000000000000600082015250565b6000614004601683613200565b915061400f82613fce565b602082019050919050565b6000602082019050818103600083015261403381613ff7565b9050919050565b6000614045826132b0565b9150614050836132b0565b9250817fffffffffffffffffffffffffffffffffffffffffffffffffffffffffffffffff048311821515161561408957614088613c14565b5b828202905092915050565b7f496e76616c69642066756e64732070726f766964656400000000000000000000600082015250565b60006140ca601683613200565b91506140d582614094565b602082019050919050565b600060208201905081810360008301526140f9816140bd565b9050919050565b7f796f752063616e206f6e6c792064656372656173652069740000000000000000600082015250565b6000614136601883613200565b915061414182614100565b602082019050919050565b6000602082019050818103600083015261416581614129565b9050919050565b7f546f6b656e20646f6573206e6f742065786973742e0000000000000000000000600082015250565b60006141a2601583613200565b91506141ad8261416c565b602082019050919050565b600060208201905081810360008301526141d181614195565b9050919050565b600081905092915050565b60008190508160005260206000209050919050565b6000815461420581613aa7565b61420f81866141d8565b9450600182166000811461422a576001811461423b5761426e565b60ff1983168652818601935061426e565b614244856141e3565b60005b8381101561426657815481890152600182019150602081019050614247565b838801955050505b50505092915050565b6000614282826131f5565b61428c81856141d8565b935061429c818560208601613211565b80840191505092915050565b60006142b482866141f8565b91506142c08285614277565b91506142cc8284614277565b9150819050949350505050565b60006142e482613333565b9050919050565b6142f4816142d9565b81146142ff57600080fd5b50565b600081519050614311816142eb565b92915050565b60006020828403121561432d5761432c6130d7565b5b600061433b84828501614302565b91505092915050565b7f4f776e61626c653a206e6577206f776e657220697320746865207a65726f206160008201527f6464726573730000000000000000000000000000000000000000000000000000602082015250565b60006143a0602683613200565b91506143ab82614344565b604082019050919050565b600060208201905081810360008301526143cf81614393565b9050919050565b600081519050919050565b600082825260208201905092915050565b60006143fd826143d6565b61440781856143e1565b9350614417818560208601613211565b61442081613244565b840191505092915050565b60006080820190506144406000830187613345565b61444d6020830186613345565b61445a60408301856133db565b818103606083015261446c81846143f2565b905095945050505050565b6000815190506144868161310d565b92915050565b6000602082840312156144a2576144a16130d7565b5b60006144b084828501614477565b91505092915050565b60006144c4826132b0565b91507fffffffffffffffffffffffffffffffffffffffffffffffffffffffffffffffff8214156144f7576144f6613c14565b5b600182019050919050565b7f4e487b7100000000000000000000000000000000000000000000000000000000600052601260045260246000fd5b600061453c826132b0565b9150614547836132b0565b92508261455757614556614502565b5b828204905092915050565b600061456d826132b0565b9150614578836132b0565b92508282101561458b5761458a613c14565b5b828203905092915050565b60006145a1826132b0565b91506145ac836132b0565b9250826145bc576145bb614502565b5b828206905092915050565b7f4e487b7100000000000000000000000000000000000000000000000000000000600052603260045260246000fdfea26469706673582212202bf63678c3e5a26486c4f3c44697fc44a33240b2a5212cd6283713d6a429920864736f6c63430008090033",
	"linkReferences": {},
	"deployedLinkReferences": {}
}