{
  "_format": "hh-sol-artifact-1",
  "contractName": "mytestproj",
  "sourceName": "contracts/mytestproj.sol",
  "abi": [
    {
      "inputs": [
        {
          "internalType": "bytes32",
          "name": "_merkleRoot",
          "type": "bytes32"
        },
        {
          "internalType": "string",
          "name": "_baseURI",
          "type": "string"
        }
      ],
      "stateMutability": "nonpayable",
      "type": "constructor"
    },
    {
      "inputs": [],
      "name": "ApprovalCallerNotOwnerNorApproved",
      "type": "error"
    },
    {
      "inputs": [],
      "name": "ApprovalQueryForNonexistentToken",
      "type": "error"
    },
    {
      "inputs": [],
      "name": "ApprovalToCurrentOwner",
      "type": "error"
    },
    {
      "inputs": [],
      "name": "ApproveToCaller",
      "type": "error"
    },
    {
      "inputs": [],
      "name": "BalanceQueryForZeroAddress",
      "type": "error"
    },
    {
      "inputs": [],
      "name": "MintToZeroAddress",
      "type": "error"
    },
    {
      "inputs": [],
      "name": "MintZeroQuantity",
      "type": "error"
    },
    {
      "inputs": [],
      "name": "OwnerQueryForNonexistentToken",
      "type": "error"
    },
    {
      "inputs": [],
      "name": "TransferCallerNotOwnerNorApproved",
      "type": "error"
    },
    {
      "inputs": [],
      "name": "TransferFromIncorrectOwner",
      "type": "error"
    },
    {
      "inputs": [],
      "name": "TransferToNonERC721ReceiverImplementer",
      "type": "error"
    },
    {
      "inputs": [],
      "name": "TransferToZeroAddress",
      "type": "error"
    },
    {
      "anonymous": false,
      "inputs": [
        {
          "indexed": true,
          "internalType": "address",
          "name": "owner",
          "type": "address"
        },
        {
          "indexed": true,
          "internalType": "address",
          "name": "approved",
          "type": "address"
        },
        {
          "indexed": true,
          "internalType": "uint256",
          "name": "tokenId",
          "type": "uint256"
        }
      ],
      "name": "Approval",
      "type": "event"
    },
    {
      "anonymous": false,
      "inputs": [
        {
          "indexed": true,
          "internalType": "address",
          "name": "owner",
          "type": "address"
        },
        {
          "indexed": true,
          "internalType": "address",
          "name": "operator",
          "type": "address"
        },
        {
          "indexed": false,
          "internalType": "bool",
          "name": "approved",
          "type": "bool"
        }
      ],
      "name": "ApprovalForAll",
      "type": "event"
    },
    {
      "anonymous": false,
      "inputs": [
        {
          "indexed": true,
          "internalType": "address",
          "name": "previousOwner",
          "type": "address"
        },
        {
          "indexed": true,
          "internalType": "address",
          "name": "newOwner",
          "type": "address"
        }
      ],
      "name": "OwnershipTransferred",
      "type": "event"
    },
    {
      "anonymous": false,
      "inputs": [
        {
          "indexed": true,
          "internalType": "address",
          "name": "from",
          "type": "address"
        },
        {
          "indexed": true,
          "internalType": "address",
          "name": "to",
          "type": "address"
        },
        {
          "indexed": true,
          "internalType": "uint256",
          "name": "tokenId",
          "type": "uint256"
        }
      ],
      "name": "Transfer",
      "type": "event"
    },
    {
      "inputs": [],
      "name": "FREE_MAX_SUPPLY",
      "outputs": [
        {
          "internalType": "uint256",
          "name": "",
          "type": "uint256"
        }
      ],
      "stateMutability": "view",
      "type": "function"
    },
    {
      "inputs": [],
      "name": "MAX_PER_TX",
      "outputs": [
        {
          "internalType": "uint256",
          "name": "",
          "type": "uint256"
        }
      ],
      "stateMutability": "view",
      "type": "function"
    },
    {
      "inputs": [],
      "name": "MAX_PER_TX_FREE",
      "outputs": [
        {
          "internalType": "uint256",
          "name": "",
          "type": "uint256"
        }
      ],
      "stateMutability": "view",
      "type": "function"
    },
    {
      "inputs": [],
      "name": "MAX_SUPPLY",
      "outputs": [
        {
          "internalType": "uint256",
          "name": "",
          "type": "uint256"
        }
      ],
      "stateMutability": "view",
      "type": "function"
    },
    {
      "inputs": [
        {
          "internalType": "address",
          "name": "",
          "type": "address"
        }
      ],
      "name": "amountNFTsperWalletWhitelistSale",
      "outputs": [
        {
          "internalType": "uint256",
          "name": "",
          "type": "uint256"
        }
      ],
      "stateMutability": "view",
      "type": "function"
    },
    {
      "inputs": [
        {
          "internalType": "address",
          "name": "to",
          "type": "address"
        },
        {
          "internalType": "uint256",
          "name": "tokenId",
          "type": "uint256"
        }
      ],
      "name": "approve",
      "outputs": [],
      "stateMutability": "nonpayable",
      "type": "function"
    },
    {
      "inputs": [
        {
          "internalType": "address",
          "name": "owner",
          "type": "address"
        }
      ],
      "name": "balanceOf",
      "outputs": [
        {
          "internalType": "uint256",
          "name": "",
          "type": "uint256"
        }
      ],
      "stateMutability": "view",
      "type": "function"
    },
    {
      "inputs": [],
      "name": "baseExtension",
      "outputs": [
        {
          "internalType": "string",
          "name": "",
          "type": "string"
        }
      ],
      "stateMutability": "view",
      "type": "function"
    },
    {
      "inputs": [],
      "name": "baseURI",
      "outputs": [
        {
          "internalType": "string",
          "name": "",
          "type": "string"
        }
      ],
      "stateMutability": "view",
      "type": "function"
    },
    {
      "inputs": [
        {
          "internalType": "uint256",
          "name": "tokenId",
          "type": "uint256"
        }
      ],
      "name": "getApproved",
      "outputs": [
        {
          "internalType": "address",
          "name": "",
          "type": "address"
        }
      ],
      "stateMutability": "view",
      "type": "function"
    },
    {
      "inputs": [
        {
          "internalType": "address",
          "name": "owner",
          "type": "address"
        },
        {
          "internalType": "address",
          "name": "operator",
          "type": "address"
        }
      ],
      "name": "isApprovedForAll",
      "outputs": [
        {
          "internalType": "bool",
          "name": "",
          "type": "bool"
        }
      ],
      "stateMutability": "view",
      "type": "function"
    },
    {
      "inputs": [
        {
          "internalType": "bytes32[]",
          "name": "proof",
          "type": "bytes32[]"
        },
        {
          "internalType": "bytes32",
          "name": "leaf",
          "type": "bytes32"
        }
      ],
      "name": "isValid",
      "outputs": [
        {
          "internalType": "bool",
          "name": "",
          "type": "bool"
        }
      ],
      "stateMutability": "view",
      "type": "function"
    },
    {
      "inputs": [],
      "name": "maxSupply",
      "outputs": [
        {
          "internalType": "uint256",
          "name": "",
          "type": "uint256"
        }
      ],
      "stateMutability": "view",
      "type": "function"
    },
    {
      "inputs": [],
      "name": "merkleRoot",
      "outputs": [
        {
          "internalType": "bytes32",
          "name": "",
          "type": "bytes32"
        }
      ],
      "stateMutability": "view",
      "type": "function"
    },
    {
      "inputs": [
        {
          "internalType": "uint256",
          "name": "_amount",
          "type": "uint256"
        }
      ],
      "name": "mint",
      "outputs": [],
      "stateMutability": "payable",
      "type": "function"
    },
    {
      "inputs": [],
      "name": "name",
      "outputs": [
        {
          "internalType": "string",
          "name": "",
          "type": "string"
        }
      ],
      "stateMutability": "view",
      "type": "function"
    },
    {
      "inputs": [],
      "name": "owner",
      "outputs": [
        {
          "internalType": "address",
          "name": "",
          "type": "address"
        }
      ],
      "stateMutability": "view",
      "type": "function"
    },
    {
      "inputs": [
        {
          "internalType": "uint256",
          "name": "tokenId",
          "type": "uint256"
        }
      ],
      "name": "ownerOf",
      "outputs": [
        {
          "internalType": "address",
          "name": "",
          "type": "address"
        }
      ],
      "stateMutability": "view",
      "type": "function"
    },
    {
      "inputs": [
        {
          "internalType": "bool",
          "name": "_state",
          "type": "bool"
        }
      ],
      "name": "pause",
      "outputs": [],
      "stateMutability": "nonpayable",
      "type": "function"
    },
    {
      "inputs": [],
      "name": "paused",
      "outputs": [
        {
          "internalType": "bool",
          "name": "",
          "type": "bool"
        }
      ],
      "stateMutability": "view",
      "type": "function"
    },
    {
      "inputs": [],
      "name": "price",
      "outputs": [
        {
          "internalType": "uint256",
          "name": "",
          "type": "uint256"
        }
      ],
      "stateMutability": "view",
      "type": "function"
    },
    {
      "inputs": [],
      "name": "proxyRegistryAddress",
      "outputs": [
        {
          "internalType": "address",
          "name": "",
          "type": "address"
        }
      ],
      "stateMutability": "view",
      "type": "function"
    },
    {
      "inputs": [],
      "name": "renounceOwnership",
      "outputs": [],
      "stateMutability": "nonpayable",
      "type": "function"
    },
    {
      "inputs": [
        {
          "internalType": "address",
          "name": "from",
          "type": "address"
        },
        {
          "internalType": "address",
          "name": "to",
          "type": "address"
        },
        {
          "internalType": "uint256",
          "name": "tokenId",
          "type": "uint256"
        }
      ],
      "name": "safeTransferFrom",
      "outputs": [],
      "stateMutability": "nonpayable",
      "type": "function"
    },
    {
      "inputs": [
        {
          "internalType": "address",
          "name": "from",
          "type": "address"
        },
        {
          "internalType": "address",
          "name": "to",
          "type": "address"
        },
        {
          "internalType": "uint256",
          "name": "tokenId",
          "type": "uint256"
        },
        {
          "internalType": "bytes",
          "name": "_data",
          "type": "bytes"
        }
      ],
      "name": "safeTransferFrom",
      "outputs": [],
      "stateMutability": "nonpayable",
      "type": "function"
    },
    {
      "inputs": [
        {
          "internalType": "address",
          "name": "operator",
          "type": "address"
        },
        {
          "internalType": "bool",
          "name": "approved",
          "type": "bool"
        }
      ],
      "name": "setApprovalForAll",
      "outputs": [],
      "stateMutability": "nonpayable",
      "type": "function"
    },
    {
      "inputs": [
        {
          "internalType": "string",
          "name": "baseURI_",
          "type": "string"
        }
      ],
      "name": "setBaseURI",
      "outputs": [],
      "stateMutability": "nonpayable",
      "type": "function"
    },
    {
      "inputs": [
        {
          "internalType": "bytes32",
          "name": "_merkleRoot",
          "type": "bytes32"
        }
      ],
      "name": "setMerkleRoot",
      "outputs": [],
      "stateMutability": "nonpayable",
      "type": "function"
    },
    {
      "inputs": [
        {
          "internalType": "uint256",
          "name": "newMaxSupply",
          "type": "uint256"
        }
      ],
      "name": "setNewMaxSupply",
      "outputs": [],
      "stateMutability": "nonpayable",
      "type": "function"
    },
    {
      "inputs": [],
      "name": "setupOS",
      "outputs": [],
      "stateMutability": "nonpayable",
      "type": "function"
    },
    {
      "inputs": [
        {
          "internalType": "bytes4",
          "name": "interfaceId",
          "type": "bytes4"
        }
      ],
      "name": "supportsInterface",
      "outputs": [
        {
          "internalType": "bool",
          "name": "",
          "type": "bool"
        }
      ],
      "stateMutability": "view",
      "type": "function"
    },
    {
      "inputs": [],
      "name": "symbol",
      "outputs": [
        {
          "internalType": "string",
          "name": "",
          "type": "string"
        }
      ],
      "stateMutability": "view",
      "type": "function"
    },
    {
      "inputs": [
        {
          "internalType": "uint256",
          "name": "_tokenId",
          "type": "uint256"
        }
      ],
      "name": "tokenURI",
      "outputs": [
        {
          "internalType": "string",
          "name": "",
          "type": "string"
        }
      ],
      "stateMutability": "view",
      "type": "function"
    },
    {
      "inputs": [],
      "name": "totalSupply",
      "outputs": [
        {
          "internalType": "uint256",
          "name": "",
          "type": "uint256"
        }
      ],
      "stateMutability": "view",
      "type": "function"
    },
    {
      "inputs": [
        {
          "internalType": "address",
          "name": "from",
          "type": "address"
        },
        {
          "internalType": "address",
          "name": "to",
          "type": "address"
        },
        {
          "internalType": "uint256",
          "name": "tokenId",
          "type": "uint256"
        }
      ],
      "name": "transferFrom",
      "outputs": [],
      "stateMutability": "nonpayable",
      "type": "function"
    },
    {
      "inputs": [
        {
          "internalType": "address",
          "name": "newOwner",
          "type": "address"
        }
      ],
      "name": "transferOwnership",
      "outputs": [],
      "stateMutability": "nonpayable",
      "type": "function"
    },
    {
      "inputs": [
        {
          "internalType": "bytes32[]",
          "name": "proof",
          "type": "bytes32[]"
        }
      ],
      "name": "whitelistMint",
      "outputs": [],
      "stateMutability": "payable",
      "type": "function"
    },
    {
      "inputs": [],
      "name": "withdraw",
      "outputs": [],
      "stateMutability": "nonpayable",
      "type": "function"
    }
  ],
  "bytecode": "0x608060405260405180602001604052806000815250600990805190602001906200002b92919062000254565b506001600b60006101000a81548160ff0219169083151502179055503480156200005457600080fd5b5060405162004a8138038062004a8183398181016040528101906200007a9190620004dc565b6040518060400160405280600a81526020017f6d797465737470726f6a000000000000000000000000000000000000000000008152506040518060400160405280600381526020017f74737400000000000000000000000000000000000000000000000000000000008152508160029080519060200190620000fe92919062000254565b5080600390805190602001906200011792919062000254565b50620001286200018160201b60201c565b600081905550505062000150620001446200018660201b60201c565b6200018e60201b60201c565b611b39600a8190555081600c8190555080600990805190602001906200017892919062000254565b505050620005a7565b600090565b600033905090565b6000600860009054906101000a900473ffffffffffffffffffffffffffffffffffffffff16905081600860006101000a81548173ffffffffffffffffffffffffffffffffffffffff021916908373ffffffffffffffffffffffffffffffffffffffff1602179055508173ffffffffffffffffffffffffffffffffffffffff168173ffffffffffffffffffffffffffffffffffffffff167f8be0079c531659141344cd1fd0a4f28419497f9722a3daafe3b4186f6b6457e060405160405180910390a35050565b828054620002629062000571565b90600052602060002090601f016020900481019282620002865760008555620002d2565b82601f10620002a157805160ff1916838001178555620002d2565b82800160010185558215620002d2579182015b82811115620002d1578251825591602001919060010190620002b4565b5b509050620002e19190620002e5565b5090565b5b8082111562000300576000816000905550600101620002e6565b5090565b6000604051905090565b600080fd5b600080fd5b6000819050919050565b6200032d8162000318565b81146200033957600080fd5b50565b6000815190506200034d8162000322565b92915050565b600080fd5b600080fd5b6000601f19601f8301169050919050565b7f4e487b7100000000000000000000000000000000000000000000000000000000600052604160045260246000fd5b620003a8826200035d565b810181811067ffffffffffffffff82111715620003ca57620003c96200036e565b5b80604052505050565b6000620003df62000304565b9050620003ed82826200039d565b919050565b600067ffffffffffffffff82111562000410576200040f6200036e565b5b6200041b826200035d565b9050602081019050919050565b60005b83811015620004485780820151818401526020810190506200042b565b8381111562000458576000848401525b50505050565b6000620004756200046f84620003f2565b620003d3565b90508281526020810184848401111562000494576200049362000358565b5b620004a184828562000428565b509392505050565b600082601f830112620004c157620004c062000353565b5b8151620004d38482602086016200045e565b91505092915050565b60008060408385031215620004f657620004f56200030e565b5b600062000506858286016200033c565b925050602083015167ffffffffffffffff8111156200052a576200052962000313565b5b6200053885828601620004a9565b9150509250929050565b7f4e487b7100000000000000000000000000000000000000000000000000000000600052602260045260246000fd5b600060028204905060018216806200058a57607f821691505b60208210811415620005a157620005a062000542565b5b50919050565b6144ca80620005b76000396000f3fe6080604052600436106102255760003560e01c8063715018a611610123578063b7c7d9a7116100ab578063cd7c03261161006f578063cd7c0326146107c7578063d5abeb01146107f2578063e985e9c51461081d578063f2fde38b1461085a578063f43a22dc1461088357610225565b8063b7c7d9a7146106d0578063b88d4fde146106f9578063b8a20ed014610722578063c66828621461075f578063c87b56dd1461078a57610225565b806395d89b41116100f257806395d89b41146105f857806399d1380014610623578063a035b1fe14610660578063a0712d681461068b578063a22cb465146106a757610225565b8063715018a6146105625780637cb64759146105795780638069876d146105a25780638da5cb5b146105cd57610225565b8063372f657c116101b15780635c975abb116101755780635c975abb1461047b5780636352211e146104a6578063698982ba146104e35780636c0360eb146104fa57806370a082311461052557610225565b8063372f657c146103cb5780633ccfd60b146103e757806342842e0e146103fe578063463fff791461042757806355f804b31461045257610225565b8063095ea7b3116101f8578063095ea7b3146102f857806318160ddd1461032157806323b872dd1461034c5780632eb4a7ab1461037557806332cb6b0c146103a057610225565b806301ffc9a71461022a57806302329a291461026757806306fdde0314610290578063081812fc146102bb575b600080fd5b34801561023657600080fd5b50610251600480360381019061024c9190613083565b6108ae565b60405161025e91906130cb565b60405180910390f35b34801561027357600080fd5b5061028e60048036038101906102899190613112565b610990565b005b34801561029c57600080fd5b506102a5610a29565b6040516102b291906131d8565b60405180910390f35b3480156102c757600080fd5b506102e260048036038101906102dd9190613230565b610abb565b6040516102ef919061329e565b60405180910390f35b34801561030457600080fd5b5061031f600480360381019061031a91906132e5565b610b37565b005b34801561032d57600080fd5b50610336610c42565b6040516103439190613334565b60405180910390f35b34801561035857600080fd5b50610373600480360381019061036e919061334f565b610c59565b005b34801561038157600080fd5b5061038a610c69565b60405161039791906133bb565b60405180910390f35b3480156103ac57600080fd5b506103b5610c6f565b6040516103c29190613334565b60405180910390f35b6103e560048036038101906103e0919061354a565b610c75565b005b3480156103f357600080fd5b506103fc610ef4565b005b34801561040a57600080fd5b506104256004803603810190610420919061334f565b61102c565b005b34801561043357600080fd5b5061043c61104c565b6040516104499190613334565b60405180910390f35b34801561045e57600080fd5b5061047960048036038101906104749190613648565b611051565b005b34801561048757600080fd5b506104906110e7565b60405161049d91906130cb565b60405180910390f35b3480156104b257600080fd5b506104cd60048036038101906104c89190613230565b6110fa565b6040516104da919061329e565b60405180910390f35b3480156104ef57600080fd5b506104f8611110565b005b34801561050657600080fd5b5061050f6111a0565b60405161051c91906131d8565b60405180910390f35b34801561053157600080fd5b5061054c60048036038101906105479190613691565b61122e565b6040516105599190613334565b60405180910390f35b34801561056e57600080fd5b506105776112fe565b005b34801561058557600080fd5b506105a0600480360381019061059b91906136be565b61137c565b005b3480156105ae57600080fd5b506105b7611402565b6040516105c49190613334565b60405180910390f35b3480156105d957600080fd5b506105e2611407565b6040516105ef919061329e565b60405180910390f35b34801561060457600080fd5b5061060d611431565b60405161061a91906131d8565b60405180910390f35b34801561062f57600080fd5b5061064a60048036038101906106459190613691565b6114c3565b6040516106579190613334565b60405180910390f35b34801561066c57600080fd5b506106756114db565b6040516106829190613334565b60405180910390f35b6106a560048036038101906106a09190613230565b6114e6565b005b3480156106b357600080fd5b506106ce60048036038101906106c991906136eb565b61179e565b005b3480156106dc57600080fd5b506106f760048036038101906106f29190613230565b611916565b005b34801561070557600080fd5b50610720600480360381019061071b91906137cc565b6119e0565b005b34801561072e57600080fd5b506107496004803603810190610744919061384f565b611a5c565b60405161075691906130cb565b60405180910390f35b34801561076b57600080fd5b50610774611a73565b60405161078191906131d8565b60405180910390f35b34801561079657600080fd5b506107b160048036038101906107ac9190613230565b611aac565b6040516107be91906131d8565b60405180910390f35b3480156107d357600080fd5b506107dc611b8b565b6040516107e9919061329e565b60405180910390f35b3480156107fe57600080fd5b50610807611ba3565b6040516108149190613334565b60405180910390f35b34801561082957600080fd5b50610844600480360381019061083f91906138ab565b611ba9565b60405161085191906130cb565b60405180910390f35b34801561086657600080fd5b50610881600480360381019061087c9190613691565b611c9d565b005b34801561088f57600080fd5b50610898611d95565b6040516108a59190613334565b60405180910390f35b60007f80ac58cd000000000000000000000000000000000000000000000000000000007bffffffffffffffffffffffffffffffffffffffffffffffffffffffff1916827bffffffffffffffffffffffffffffffffffffffffffffffffffffffff1916148061097957507f5b5e139f000000000000000000000000000000000000000000000000000000007bffffffffffffffffffffffffffffffffffffffffffffffffffffffff1916827bffffffffffffffffffffffffffffffffffffffffffffffffffffffff1916145b80610989575061098882611d9a565b5b9050919050565b610998611e04565b73ffffffffffffffffffffffffffffffffffffffff166109b6611407565b73ffffffffffffffffffffffffffffffffffffffff1614610a0c576040517f08c379a0000000000000000000000000000000000000000000000000000000008152600401610a0390613937565b60405180910390fd5b80600b60006101000a81548160ff02191690831515021790555050565b606060028054610a3890613986565b80601f0160208091040260200160405190810160405280929190818152602001828054610a6490613986565b8015610ab15780601f10610a8657610100808354040283529160200191610ab1565b820191906000526020600020905b815481529060010190602001808311610a9457829003601f168201915b5050505050905090565b6000610ac682611e0c565b610afc576040517fcf4700e400000000000000000000000000000000000000000000000000000000815260040160405180910390fd5b6006600083815260200190815260200160002060009054906101000a900473ffffffffffffffffffffffffffffffffffffffff169050919050565b6000610b42826110fa565b90508073ffffffffffffffffffffffffffffffffffffffff168373ffffffffffffffffffffffffffffffffffffffff161415610baa576040517f943f7b8c00000000000000000000000000000000000000000000000000000000815260040160405180910390fd5b8073ffffffffffffffffffffffffffffffffffffffff16610bc9611e04565b73ffffffffffffffffffffffffffffffffffffffff1614158015610bfb5750610bf981610bf4611e04565b611ba9565b155b15610c32576040517fcfb3b94200000000000000000000000000000000000000000000000000000000815260040160405180910390fd5b610c3d838383611e5a565b505050565b6000610c4c611f0c565b6001546000540303905090565b610c64838383611f11565b505050565b600c5481565b611b3981565b610ca58133604051602001610c8a9190613a00565b60405160208183030381529060405280519060200120611a5c565b610ce4576040517f08c379a0000000000000000000000000000000000000000000000000000000008152600401610cdb90613a67565b60405180910390fd5b6000610cee611e04565b9050600060019050600b60009054906101000a900460ff1615610d46576040517f08c379a0000000000000000000000000000000000000000000000000000000008152600401610d3d90613ad3565b60405180910390fd5b80610d4f610c42565b610d599190613b22565b611b391015610d9d576040517f08c379a0000000000000000000000000000000000000000000000000000000008152600401610d9490613bc4565b60405180910390fd5b8173ffffffffffffffffffffffffffffffffffffffff163273ffffffffffffffffffffffffffffffffffffffff1614610e0b576040517f08c379a0000000000000000000000000000000000000000000000000000000008152600401610e0290613c30565b60405180910390fd5b600181600d60003373ffffffffffffffffffffffffffffffffffffffff1673ffffffffffffffffffffffffffffffffffffffff16815260200190815260200160002054610e589190613b22565b1115610e99576040517f08c379a0000000000000000000000000000000000000000000000000000000008152600401610e9090613cc2565b60405180910390fd5b80600d60003373ffffffffffffffffffffffffffffffffffffffff1673ffffffffffffffffffffffffffffffffffffffff1681526020019081526020016000206000828254610ee89190613b22565b92505081905550505050565b610efc611e04565b73ffffffffffffffffffffffffffffffffffffffff16610f1a611407565b73ffffffffffffffffffffffffffffffffffffffff1614610f70576040517f08c379a0000000000000000000000000000000000000000000000000000000008152600401610f6790613937565b60405180910390fd5b60004790506000610f7f611e04565b73ffffffffffffffffffffffffffffffffffffffff1682604051610fa290613d13565b60006040518083038185875af1925050503d8060008114610fdf576040519150601f19603f3d011682016040523d82523d6000602084013e610fe4565b606091505b5050905080611028576040517f08c379a000000000000000000000000000000000000000000000000000000000815260040161101f90613d74565b60405180910390fd5b5050565b611047838383604051806020016040528060008152506119e0565b505050565b600481565b611059611e04565b73ffffffffffffffffffffffffffffffffffffffff16611077611407565b73ffffffffffffffffffffffffffffffffffffffff16146110cd576040517f08c379a00000000000000000000000000000000000000000000000000000000081526004016110c490613937565b60405180910390fd5b80600990805190602001906110e3929190612f31565b5050565b600b60009054906101000a900460ff1681565b6000611105826123c7565b600001519050919050565b611118611e04565b73ffffffffffffffffffffffffffffffffffffffff16611136611407565b73ffffffffffffffffffffffffffffffffffffffff161461118c576040517f08c379a000000000000000000000000000000000000000000000000000000000815260040161118390613937565b60405180910390fd5b61119e611197611e04565b6001612656565b565b600980546111ad90613986565b80601f01602080910402602001604051908101604052809291908181526020018280546111d990613986565b80156112265780601f106111fb57610100808354040283529160200191611226565b820191906000526020600020905b81548152906001019060200180831161120957829003601f168201915b505050505081565b60008073ffffffffffffffffffffffffffffffffffffffff168273ffffffffffffffffffffffffffffffffffffffff161415611296576040517f8f4eb60400000000000000000000000000000000000000000000000000000000815260040160405180910390fd5b600560008373ffffffffffffffffffffffffffffffffffffffff1673ffffffffffffffffffffffffffffffffffffffff16815260200190815260200160002060000160009054906101000a900467ffffffffffffffff1667ffffffffffffffff169050919050565b611306611e04565b73ffffffffffffffffffffffffffffffffffffffff16611324611407565b73ffffffffffffffffffffffffffffffffffffffff161461137a576040517f08c379a000000000000000000000000000000000000000000000000000000000815260040161137190613937565b60405180910390fd5b565b611384611e04565b73ffffffffffffffffffffffffffffffffffffffff166113a2611407565b73ffffffffffffffffffffffffffffffffffffffff16146113f8576040517f08c379a00000000000000000000000000000000000000000000000000000000081526004016113ef90613937565b60405180910390fd5b80600c8190555050565b600a81565b6000600860009054906101000a900473ffffffffffffffffffffffffffffffffffffffff16905090565b60606003805461144090613986565b80601f016020809104026020016040519081016040528092919081815260200182805461146c90613986565b80156114b95780601f1061148e576101008083540402835291602001916114b9565b820191906000526020600020905b81548152906001019060200180831161149c57829003601f168201915b5050505050905090565b600d6020528060005260406000206000915090505481565b66753d533d96800081565b60006114f0611e04565b9050600b60009054906101000a900460ff1615611542576040517f08c379a000000000000000000000000000000000000000000000000000000000815260040161153990613ad3565b60405180910390fd5b8161154b610c42565b6115559190613b22565b611b391015611599576040517f08c379a000000000000000000000000000000000000000000000000000000000815260040161159090613bc4565b60405180910390fd5b600082116115dc576040517f08c379a00000000000000000000000000000000000000000000000000000000081526004016115d390613de0565b60405180910390fd5b8073ffffffffffffffffffffffffffffffffffffffff163273ffffffffffffffffffffffffffffffffffffffff161461164a576040517f08c379a000000000000000000000000000000000000000000000000000000000815260040161164190613c30565b60405180910390fd5b611652610c42565b600a106116f75781611662610c42565b600a61166e9190613e00565b116116ae576040517f08c379a00000000000000000000000000000000000000000000000000000000081526004016116a590613e80565b60405180910390fd5b81600410156116f2576040517f08c379a00000000000000000000000000000000000000000000000000000000081526004016116e990613e80565b60405180910390fd5b611790565b81600a101561173b576040517f08c379a000000000000000000000000000000000000000000000000000000000815260040161173290613eec565b60405180910390fd5b3466753d533d9680008361174f9190613f0c565b1461178f576040517f08c379a000000000000000000000000000000000000000000000000000000000815260040161178690613fb2565b60405180910390fd5b5b61179a8183612656565b5050565b6117a6611e04565b73ffffffffffffffffffffffffffffffffffffffff168273ffffffffffffffffffffffffffffffffffffffff16141561180b576040517fb06307db00000000000000000000000000000000000000000000000000000000815260040160405180910390fd5b8060076000611818611e04565b73ffffffffffffffffffffffffffffffffffffffff1673ffffffffffffffffffffffffffffffffffffffff16815260200190815260200160002060008473ffffffffffffffffffffffffffffffffffffffff1673ffffffffffffffffffffffffffffffffffffffff16815260200190815260200160002060006101000a81548160ff0219169083151502179055508173ffffffffffffffffffffffffffffffffffffffff166118c5611e04565b73ffffffffffffffffffffffffffffffffffffffff167f17307eab39ab6107e8899845ad3d59bd9653f200f220920489ca2b5937696c318360405161190a91906130cb565b60405180910390a35050565b61191e611e04565b73ffffffffffffffffffffffffffffffffffffffff1661193c611407565b73ffffffffffffffffffffffffffffffffffffffff1614611992576040517f08c379a000000000000000000000000000000000000000000000000000000000815260040161198990613937565b60405180910390fd5b600a5481106119d6576040517f08c379a00000000000000000000000000000000000000000000000000000000081526004016119cd9061401e565b60405180910390fd5b80600a8190555050565b6119eb848484611f11565b611a0a8373ffffffffffffffffffffffffffffffffffffffff16612674565b8015611a1f5750611a1d84848484612687565b155b15611a56576040517fd1a57ed600000000000000000000000000000000000000000000000000000000815260040160405180910390fd5b50505050565b6000611a6b83600c54846127e7565b905092915050565b6040518060400160405280600581526020017f2e6a736f6e00000000000000000000000000000000000000000000000000000081525081565b6060611ab782611e0c565b611af6576040517f08c379a0000000000000000000000000000000000000000000000000000000008152600401611aed9061408a565b60405180910390fd5b600060098054611b0590613986565b905011611b215760405180602001604052806000815250611b84565b6009611b2c836127fe565b6040518060400160405280600581526020017f2e6a736f6e000000000000000000000000000000000000000000000000000000815250604051602001611b749392919061417a565b6040516020818303038152906040525b9050919050565b73f57b2c51ded3a29e6891aba85459d600256cf31781565b600a5481565b60008073f57b2c51ded3a29e6891aba85459d600256cf31790508273ffffffffffffffffffffffffffffffffffffffff168173ffffffffffffffffffffffffffffffffffffffff1663c4552791866040518263ffffffff1660e01b8152600401611c13919061329e565b60206040518083038186803b158015611c2b57600080fd5b505afa158015611c3f573d6000803e3d6000fd5b505050506040513d601f19601f82011682018060405250810190611c6391906141e9565b73ffffffffffffffffffffffffffffffffffffffff161415611c89576001915050611c97565b611c93848461295f565b9150505b92915050565b611ca5611e04565b73ffffffffffffffffffffffffffffffffffffffff16611cc3611407565b73ffffffffffffffffffffffffffffffffffffffff1614611d19576040517f08c379a0000000000000000000000000000000000000000000000000000000008152600401611d1090613937565b60405180910390fd5b600073ffffffffffffffffffffffffffffffffffffffff168173ffffffffffffffffffffffffffffffffffffffff161415611d89576040517f08c379a0000000000000000000000000000000000000000000000000000000008152600401611d8090614288565b60405180910390fd5b611d92816129f3565b50565b600a81565b60007f01ffc9a7000000000000000000000000000000000000000000000000000000007bffffffffffffffffffffffffffffffffffffffffffffffffffffffff1916827bffffffffffffffffffffffffffffffffffffffffffffffffffffffff1916149050919050565b600033905090565b600081611e17611f0c565b11158015611e26575060005482105b8015611e53575060046000838152602001908152602001600020600001601c9054906101000a900460ff16155b9050919050565b826006600084815260200190815260200160002060006101000a81548173ffffffffffffffffffffffffffffffffffffffff021916908373ffffffffffffffffffffffffffffffffffffffff160217905550818373ffffffffffffffffffffffffffffffffffffffff168273ffffffffffffffffffffffffffffffffffffffff167f8c5be1e5ebec7d5bd14f71427d1e84f3dd0314c0f7b2291e5b200ac8c7c3b92560405160405180910390a4505050565b600090565b6000611f1c826123c7565b90508373ffffffffffffffffffffffffffffffffffffffff16816000015173ffffffffffffffffffffffffffffffffffffffff1614611f87576040517fa114810000000000000000000000000000000000000000000000000000000000815260040160405180910390fd5b60008473ffffffffffffffffffffffffffffffffffffffff16611fa8611e04565b73ffffffffffffffffffffffffffffffffffffffff161480611fd75750611fd685611fd1611e04565b611ba9565b5b8061201c5750611fe5611e04565b73ffffffffffffffffffffffffffffffffffffffff1661200484610abb565b73ffffffffffffffffffffffffffffffffffffffff16145b905080612055576040517f59c896be00000000000000000000000000000000000000000000000000000000815260040160405180910390fd5b600073ffffffffffffffffffffffffffffffffffffffff168473ffffffffffffffffffffffffffffffffffffffff1614156120bc576040517fea553b3400000000000000000000000000000000000000000000000000000000815260040160405180910390fd5b6120c98585856001612ab9565b6120d560008487611e5a565b6001600560008773ffffffffffffffffffffffffffffffffffffffff1673ffffffffffffffffffffffffffffffffffffffff16815260200190815260200160002060000160008282829054906101000a900467ffffffffffffffff160392506101000a81548167ffffffffffffffff021916908367ffffffffffffffff1602179055506001600560008673ffffffffffffffffffffffffffffffffffffffff1673ffffffffffffffffffffffffffffffffffffffff16815260200190815260200160002060000160008282829054906101000a900467ffffffffffffffff160192506101000a81548167ffffffffffffffff021916908367ffffffffffffffff1602179055506000600460008581526020019081526020016000209050848160000160006101000a81548173ffffffffffffffffffffffffffffffffffffffff021916908373ffffffffffffffffffffffffffffffffffffffff160217905550428160000160146101000a81548167ffffffffffffffff021916908367ffffffffffffffff16021790555060006001850190506000600460008381526020019081526020016000209050600073ffffffffffffffffffffffffffffffffffffffff168160000160009054906101000a900473ffffffffffffffffffffffffffffffffffffffff1673ffffffffffffffffffffffffffffffffffffffff16141561235557600054821461235457878160000160006101000a81548173ffffffffffffffffffffffffffffffffffffffff021916908373ffffffffffffffffffffffffffffffffffffffff16021790555084602001518160000160146101000a81548167ffffffffffffffff021916908367ffffffffffffffff1602179055505b5b505050828473ffffffffffffffffffffffffffffffffffffffff168673ffffffffffffffffffffffffffffffffffffffff167fddf252ad1be2c89b69c2b068fc378daa952ba7f163c4a11628f55a4df523b3ef60405160405180910390a46123c08585856001612abf565b5050505050565b6123cf612fb7565b6000829050806123dd611f0c565b111580156123ec575060005481105b1561261f576000600460008381526020019081526020016000206040518060600160405290816000820160009054906101000a900473ffffffffffffffffffffffffffffffffffffffff1673ffffffffffffffffffffffffffffffffffffffff1673ffffffffffffffffffffffffffffffffffffffff1681526020016000820160149054906101000a900467ffffffffffffffff1667ffffffffffffffff1667ffffffffffffffff16815260200160008201601c9054906101000a900460ff1615151515815250509050806040015161261d57600073ffffffffffffffffffffffffffffffffffffffff16816000015173ffffffffffffffffffffffffffffffffffffffff1614612501578092505050612651565b5b60011561261c57818060019003925050600460008381526020019081526020016000206040518060600160405290816000820160009054906101000a900473ffffffffffffffffffffffffffffffffffffffff1673ffffffffffffffffffffffffffffffffffffffff1673ffffffffffffffffffffffffffffffffffffffff1681526020016000820160149054906101000a900467ffffffffffffffff1667ffffffffffffffff1667ffffffffffffffff16815260200160008201601c9054906101000a900460ff1615151515815250509050600073ffffffffffffffffffffffffffffffffffffffff16816000015173ffffffffffffffffffffffffffffffffffffffff1614612617578092505050612651565b612502565b5b505b6040517fdf2d9b4200000000000000000000000000000000000000000000000000000000815260040160405180910390fd5b919050565b612670828260405180602001604052806000815250612ac5565b5050565b600080823b905060008111915050919050565b60008373ffffffffffffffffffffffffffffffffffffffff1663150b7a026126ad611e04565b8786866040518563ffffffff1660e01b81526004016126cf94939291906142fd565b602060405180830381600087803b1580156126e957600080fd5b505af192505050801561271a57506040513d601f19601f82011682018060405250810190612717919061435e565b60015b612794573d806000811461274a576040519150601f19603f3d011682016040523d82523d6000602084013e61274f565b606091505b5060008151141561278c576040517fd1a57ed600000000000000000000000000000000000000000000000000000000815260040160405180910390fd5b805181602001fd5b63150b7a0260e01b7bffffffffffffffffffffffffffffffffffffffffffffffffffffffff1916817bffffffffffffffffffffffffffffffffffffffffffffffffffffffff191614915050949350505050565b6000826127f48584612ad7565b1490509392505050565b60606000821415612846576040518060400160405280600181526020017f3000000000000000000000000000000000000000000000000000000000000000815250905061295a565b600082905060005b600082146128785780806128619061438b565b915050600a826128719190614403565b915061284e565b60008167ffffffffffffffff811115612894576128936133db565b5b6040519080825280601f01601f1916602001820160405280156128c65781602001600182028036833780820191505090505b5090505b60008514612953576001826128df9190613e00565b9150600a856128ee9190614434565b60306128fa9190613b22565b60f81b8183815181106129105761290f614465565b5b60200101907effffffffffffffffffffffffffffffffffffffffffffffffffffffffffffff1916908160001a905350600a8561294c9190614403565b94506128ca565b8093505050505b919050565b6000600760008473ffffffffffffffffffffffffffffffffffffffff1673ffffffffffffffffffffffffffffffffffffffff16815260200190815260200160002060008373ffffffffffffffffffffffffffffffffffffffff1673ffffffffffffffffffffffffffffffffffffffff16815260200190815260200160002060009054906101000a900460ff16905092915050565b6000600860009054906101000a900473ffffffffffffffffffffffffffffffffffffffff16905081600860006101000a81548173ffffffffffffffffffffffffffffffffffffffff021916908373ffffffffffffffffffffffffffffffffffffffff1602179055508173ffffffffffffffffffffffffffffffffffffffff168173ffffffffffffffffffffffffffffffffffffffff167f8be0079c531659141344cd1fd0a4f28419497f9722a3daafe3b4186f6b6457e060405160405180910390a35050565b50505050565b50505050565b612ad28383836001612b4c565b505050565b60008082905060005b8451811015612b41576000858281518110612afe57612afd614465565b5b60200260200101519050808311612b2057612b198382612f1a565b9250612b2d565b612b2a8184612f1a565b92505b508080612b399061438b565b915050612ae0565b508091505092915050565b600080549050600073ffffffffffffffffffffffffffffffffffffffff168573ffffffffffffffffffffffffffffffffffffffff161415612bb9576040517f2e07630000000000000000000000000000000000000000000000000000000000815260040160405180910390fd5b6000841415612bf4576040517fb562e8dd00000000000000000000000000000000000000000000000000000000815260040160405180910390fd5b612c016000868387612ab9565b83600560008773ffffffffffffffffffffffffffffffffffffffff1673ffffffffffffffffffffffffffffffffffffffff16815260200190815260200160002060000160008282829054906101000a900467ffffffffffffffff160192506101000a81548167ffffffffffffffff021916908367ffffffffffffffff16021790555083600560008773ffffffffffffffffffffffffffffffffffffffff1673ffffffffffffffffffffffffffffffffffffffff16815260200190815260200160002060000160088282829054906101000a900467ffffffffffffffff160192506101000a81548167ffffffffffffffff021916908367ffffffffffffffff160217905550846004600083815260200190815260200160002060000160006101000a81548173ffffffffffffffffffffffffffffffffffffffff021916908373ffffffffffffffffffffffffffffffffffffffff160217905550426004600083815260200190815260200160002060000160146101000a81548167ffffffffffffffff021916908367ffffffffffffffff160217905550600081905060008582019050838015612dcb5750612dca8773ffffffffffffffffffffffffffffffffffffffff16612674565b5b15612e91575b818773ffffffffffffffffffffffffffffffffffffffff16600073ffffffffffffffffffffffffffffffffffffffff167fddf252ad1be2c89b69c2b068fc378daa952ba7f163c4a11628f55a4df523b3ef60405160405180910390a4612e406000888480600101955088612687565b612e76576040517fd1a57ed600000000000000000000000000000000000000000000000000000000815260040160405180910390fd5b80821415612dd1578260005414612e8c57600080fd5b612efd565b5b818060010192508773ffffffffffffffffffffffffffffffffffffffff16600073ffffffffffffffffffffffffffffffffffffffff167fddf252ad1be2c89b69c2b068fc378daa952ba7f163c4a11628f55a4df523b3ef60405160405180910390a480821415612e92575b816000819055505050612f136000868387612abf565b5050505050565b600082600052816020526040600020905092915050565b828054612f3d90613986565b90600052602060002090601f016020900481019282612f5f5760008555612fa6565b82601f10612f7857805160ff1916838001178555612fa6565b82800160010185558215612fa6579182015b82811115612fa5578251825591602001919060010190612f8a565b5b509050612fb39190612ffa565b5090565b6040518060600160405280600073ffffffffffffffffffffffffffffffffffffffff168152602001600067ffffffffffffffff1681526020016000151581525090565b5b80821115613013576000816000905550600101612ffb565b5090565b6000604051905090565b600080fd5b600080fd5b60007fffffffff0000000000000000000000000000000000000000000000000000000082169050919050565b6130608161302b565b811461306b57600080fd5b50565b60008135905061307d81613057565b92915050565b60006020828403121561309957613098613021565b5b60006130a78482850161306e565b91505092915050565b60008115159050919050565b6130c5816130b0565b82525050565b60006020820190506130e060008301846130bc565b92915050565b6130ef816130b0565b81146130fa57600080fd5b50565b60008135905061310c816130e6565b92915050565b60006020828403121561312857613127613021565b5b6000613136848285016130fd565b91505092915050565b600081519050919050565b600082825260208201905092915050565b60005b8381101561317957808201518184015260208101905061315e565b83811115613188576000848401525b50505050565b6000601f19601f8301169050919050565b60006131aa8261313f565b6131b4818561314a565b93506131c481856020860161315b565b6131cd8161318e565b840191505092915050565b600060208201905081810360008301526131f2818461319f565b905092915050565b6000819050919050565b61320d816131fa565b811461321857600080fd5b50565b60008135905061322a81613204565b92915050565b60006020828403121561324657613245613021565b5b60006132548482850161321b565b91505092915050565b600073ffffffffffffffffffffffffffffffffffffffff82169050919050565b60006132888261325d565b9050919050565b6132988161327d565b82525050565b60006020820190506132b3600083018461328f565b92915050565b6132c28161327d565b81146132cd57600080fd5b50565b6000813590506132df816132b9565b92915050565b600080604083850312156132fc576132fb613021565b5b600061330a858286016132d0565b925050602061331b8582860161321b565b9150509250929050565b61332e816131fa565b82525050565b60006020820190506133496000830184613325565b92915050565b60008060006060848603121561336857613367613021565b5b6000613376868287016132d0565b9350506020613387868287016132d0565b92505060406133988682870161321b565b9150509250925092565b6000819050919050565b6133b5816133a2565b82525050565b60006020820190506133d060008301846133ac565b92915050565b600080fd5b7f4e487b7100000000000000000000000000000000000000000000000000000000600052604160045260246000fd5b6134138261318e565b810181811067ffffffffffffffff82111715613432576134316133db565b5b80604052505050565b6000613445613017565b9050613451828261340a565b919050565b600067ffffffffffffffff821115613471576134706133db565b5b602082029050602081019050919050565b600080fd5b613490816133a2565b811461349b57600080fd5b50565b6000813590506134ad81613487565b92915050565b60006134c66134c184613456565b61343b565b905080838252602082019050602084028301858111156134e9576134e8613482565b5b835b8181101561351257806134fe888261349e565b8452602084019350506020810190506134eb565b5050509392505050565b600082601f830112613531576135306133d6565b5b81356135418482602086016134b3565b91505092915050565b6000602082840312156135605761355f613021565b5b600082013567ffffffffffffffff81111561357e5761357d613026565b5b61358a8482850161351c565b91505092915050565b600080fd5b600067ffffffffffffffff8211156135b3576135b26133db565b5b6135bc8261318e565b9050602081019050919050565b82818337600083830152505050565b60006135eb6135e684613598565b61343b565b90508281526020810184848401111561360757613606613593565b5b6136128482856135c9565b509392505050565b600082601f83011261362f5761362e6133d6565b5b813561363f8482602086016135d8565b91505092915050565b60006020828403121561365e5761365d613021565b5b600082013567ffffffffffffffff81111561367c5761367b613026565b5b6136888482850161361a565b91505092915050565b6000602082840312156136a7576136a6613021565b5b60006136b5848285016132d0565b91505092915050565b6000602082840312156136d4576136d3613021565b5b60006136e28482850161349e565b91505092915050565b6000806040838503121561370257613701613021565b5b6000613710858286016132d0565b9250506020613721858286016130fd565b9150509250929050565b600067ffffffffffffffff821115613746576137456133db565b5b61374f8261318e565b9050602081019050919050565b600061376f61376a8461372b565b61343b565b90508281526020810184848401111561378b5761378a613593565b5b6137968482856135c9565b509392505050565b600082601f8301126137b3576137b26133d6565b5b81356137c384826020860161375c565b91505092915050565b600080600080608085870312156137e6576137e5613021565b5b60006137f4878288016132d0565b9450506020613805878288016132d0565b93505060406138168782880161321b565b925050606085013567ffffffffffffffff81111561383757613836613026565b5b6138438782880161379e565b91505092959194509250565b6000806040838503121561386657613865613021565b5b600083013567ffffffffffffffff81111561388457613883613026565b5b6138908582860161351c565b92505060206138a18582860161349e565b9150509250929050565b600080604083850312156138c2576138c1613021565b5b60006138d0858286016132d0565b92505060206138e1858286016132d0565b9150509250929050565b7f4f776e61626c653a2063616c6c6572206973206e6f7420746865206f776e6572600082015250565b600061392160208361314a565b915061392c826138eb565b602082019050919050565b6000602082019050818103600083015261395081613914565b9050919050565b7f4e487b7100000000000000000000000000000000000000000000000000000000600052602260045260246000fd5b6000600282049050600182168061399e57607f821691505b602082108114156139b2576139b1613957565b5b50919050565b60008160601b9050919050565b60006139d0826139b8565b9050919050565b60006139e2826139c5565b9050919050565b6139fa6139f58261327d565b6139d7565b82525050565b6000613a0c82846139e9565b60148201915081905092915050565b7f4e6f7420612070617274206f6620416c6c6f776c697374000000000000000000600082015250565b6000613a5160178361314a565b9150613a5c82613a1b565b602082019050919050565b60006020820190508181036000830152613a8081613a44565b9050919050565b7f5061757365640000000000000000000000000000000000000000000000000000600082015250565b6000613abd60068361314a565b9150613ac882613a87565b602082019050919050565b60006020820190508181036000830152613aec81613ab0565b9050919050565b7f4e487b7100000000000000000000000000000000000000000000000000000000600052601160045260246000fd5b6000613b2d826131fa565b9150613b38836131fa565b9250827fffffffffffffffffffffffffffffffffffffffffffffffffffffffffffffffff03821115613b6d57613b6c613af3565b5b828201905092915050565b7f45786365656473206d617820737570706c790000000000000000000000000000600082015250565b6000613bae60128361314a565b9150613bb982613b78565b602082019050919050565b60006020820190508181036000830152613bdd81613ba1565b9050919050565b7f4e6f20636f6e7472616374730000000000000000000000000000000000000000600082015250565b6000613c1a600c8361314a565b9150613c2582613be4565b602082019050919050565b60006020820190508181036000830152613c4981613c0d565b9050919050565b7f596f752063616e206f6e6c79206765742031204e4654206f6e2074686520576860008201527f6974656c6973742053616c650000000000000000000000000000000000000000602082015250565b6000613cac602c8361314a565b9150613cb782613c50565b604082019050919050565b60006020820190508181036000830152613cdb81613c9f565b9050919050565b600081905092915050565b50565b6000613cfd600083613ce2565b9150613d0882613ced565b600082019050919050565b6000613d1e82613cf0565b9150819050919050565b7f4661696c656420746f2073656e64000000000000000000000000000000000000600082015250565b6000613d5e600e8361314a565b9150613d6982613d28565b602082019050919050565b60006020820190508181036000830152613d8d81613d51565b9050919050565b7f4e6f2030206d696e747300000000000000000000000000000000000000000000600082015250565b6000613dca600a8361314a565b9150613dd582613d94565b602082019050919050565b60006020820190508181036000830152613df981613dbd565b9050919050565b6000613e0b826131fa565b9150613e16836131fa565b925082821015613e2957613e28613af3565b5b828203905092915050565b7f457863657373206d617820706572206672656520747800000000000000000000600082015250565b6000613e6a60168361314a565b9150613e7582613e34565b602082019050919050565b60006020820190508181036000830152613e9981613e5d565b9050919050565b7f457863657373206d617820706572207061696420747800000000000000000000600082015250565b6000613ed660168361314a565b9150613ee182613ea0565b602082019050919050565b60006020820190508181036000830152613f0581613ec9565b9050919050565b6000613f17826131fa565b9150613f22836131fa565b9250817fffffffffffffffffffffffffffffffffffffffffffffffffffffffffffffffff0483118215151615613f5b57613f5a613af3565b5b828202905092915050565b7f496e76616c69642066756e64732070726f766964656400000000000000000000600082015250565b6000613f9c60168361314a565b9150613fa782613f66565b602082019050919050565b60006020820190508181036000830152613fcb81613f8f565b9050919050565b7f796f752063616e206f6e6c792064656372656173652069740000000000000000600082015250565b600061400860188361314a565b915061401382613fd2565b602082019050919050565b6000602082019050818103600083015261403781613ffb565b9050919050565b7f546f6b656e20646f6573206e6f742065786973742e0000000000000000000000600082015250565b600061407460158361314a565b915061407f8261403e565b602082019050919050565b600060208201905081810360008301526140a381614067565b9050919050565b600081905092915050565b60008190508160005260206000209050919050565b600081546140d781613986565b6140e181866140aa565b945060018216600081146140fc576001811461410d57614140565b60ff19831686528186019350614140565b614116856140b5565b60005b8381101561413857815481890152600182019150602081019050614119565b838801955050505b50505092915050565b60006141548261313f565b61415e81856140aa565b935061416e81856020860161315b565b80840191505092915050565b600061418682866140ca565b91506141928285614149565b915061419e8284614149565b9150819050949350505050565b60006141b68261327d565b9050919050565b6141c6816141ab565b81146141d157600080fd5b50565b6000815190506141e3816141bd565b92915050565b6000602082840312156141ff576141fe613021565b5b600061420d848285016141d4565b91505092915050565b7f4f776e61626c653a206e6577206f776e657220697320746865207a65726f206160008201527f6464726573730000000000000000000000000000000000000000000000000000602082015250565b600061427260268361314a565b915061427d82614216565b604082019050919050565b600060208201905081810360008301526142a181614265565b9050919050565b600081519050919050565b600082825260208201905092915050565b60006142cf826142a8565b6142d981856142b3565b93506142e981856020860161315b565b6142f28161318e565b840191505092915050565b6000608082019050614312600083018761328f565b61431f602083018661328f565b61432c6040830185613325565b818103606083015261433e81846142c4565b905095945050505050565b60008151905061435881613057565b92915050565b60006020828403121561437457614373613021565b5b600061438284828501614349565b91505092915050565b6000614396826131fa565b91507fffffffffffffffffffffffffffffffffffffffffffffffffffffffffffffffff8214156143c9576143c8613af3565b5b600182019050919050565b7f4e487b7100000000000000000000000000000000000000000000000000000000600052601260045260246000fd5b600061440e826131fa565b9150614419836131fa565b925082614429576144286143d4565b5b828204905092915050565b600061443f826131fa565b915061444a836131fa565b92508261445a576144596143d4565b5b828206905092915050565b7f4e487b7100000000000000000000000000000000000000000000000000000000600052603260045260246000fdfea264697066735822122021fad42af7a2b7e22b4e0fe0767f5fe25277835eaa330cbce73a6eb443767b4164736f6c63430008090033",
  "linkReferences": {},
  "deployedLinkReferences": {}
}