{
    "_format": "hh-sol-artifact-1",
    "contractName": "mytestproj",
    "sourceName": "contracts/mytestproj.sol",
    "abi": [
        {
            "inputs": [],
            "stateMutability": "nonpayable",
            "type": "constructor"
        },
        {
            "inputs": [],
            "name": "ApprovalCallerNotOwnerNorApproved",
            "type": "error"
        },
        {
            "inputs": [],
            "name": "ApprovalQueryForNonexistentToken",
            "type": "error"
        },
        {
            "inputs": [],
            "name": "ApprovalToCurrentOwner",
            "type": "error"
        },
        {
            "inputs": [],
            "name": "ApproveToCaller",
            "type": "error"
        },
        {
            "inputs": [],
            "name": "BalanceQueryForZeroAddress",
            "type": "error"
        },
        {
            "inputs": [],
            "name": "MintToZeroAddress",
            "type": "error"
        },
        {
            "inputs": [],
            "name": "MintZeroQuantity",
            "type": "error"
        },
        {
            "inputs": [],
            "name": "OwnerQueryForNonexistentToken",
            "type": "error"
        },
        {
            "inputs": [],
            "name": "TransferCallerNotOwnerNorApproved",
            "type": "error"
        },
        {
            "inputs": [],
            "name": "TransferFromIncorrectOwner",
            "type": "error"
        },
        {
            "inputs": [],
            "name": "TransferToNonERC721ReceiverImplementer",
            "type": "error"
        },
        {
            "inputs": [],
            "name": "TransferToZeroAddress",
            "type": "error"
        },
        {
            "anonymous": false,
            "inputs": [
                {
                    "indexed": true,
                    "internalType": "address",
                    "name": "owner",
                    "type": "address"
                },
                {
                    "indexed": true,
                    "internalType": "address",
                    "name": "approved",
                    "type": "address"
                },
                {
                    "indexed": true,
                    "internalType": "uint256",
                    "name": "tokenId",
                    "type": "uint256"
                }
            ],
            "name": "Approval",
            "type": "event"
        },
        {
            "anonymous": false,
            "inputs": [
                {
                    "indexed": true,
                    "internalType": "address",
                    "name": "owner",
                    "type": "address"
                },
                {
                    "indexed": true,
                    "internalType": "address",
                    "name": "operator",
                    "type": "address"
                },
                {
                    "indexed": false,
                    "internalType": "bool",
                    "name": "approved",
                    "type": "bool"
                }
            ],
            "name": "ApprovalForAll",
            "type": "event"
        },
        {
            "anonymous": false,
            "inputs": [
                {
                    "indexed": true,
                    "internalType": "address",
                    "name": "previousOwner",
                    "type": "address"
                },
                {
                    "indexed": true,
                    "internalType": "address",
                    "name": "newOwner",
                    "type": "address"
                }
            ],
            "name": "OwnershipTransferred",
            "type": "event"
        },
        {
            "anonymous": false,
            "inputs": [
                {
                    "indexed": true,
                    "internalType": "address",
                    "name": "from",
                    "type": "address"
                },
                {
                    "indexed": true,
                    "internalType": "address",
                    "name": "to",
                    "type": "address"
                },
                {
                    "indexed": true,
                    "internalType": "uint256",
                    "name": "tokenId",
                    "type": "uint256"
                }
            ],
            "name": "Transfer",
            "type": "event"
        },
        {
            "inputs": [],
            "name": "FREE_MAX_SUPPLY",
            "outputs": [
                {
                    "internalType": "uint256",
                    "name": "",
                    "type": "uint256"
                }
            ],
            "stateMutability": "view",
            "type": "function"
        },
        {
            "inputs": [],
            "name": "MAX_PER_TX",
            "outputs": [
                {
                    "internalType": "uint256",
                    "name": "",
                    "type": "uint256"
                }
            ],
            "stateMutability": "view",
            "type": "function"
        },
        {
            "inputs": [],
            "name": "MAX_PER_TX_FREE",
            "outputs": [
                {
                    "internalType": "uint256",
                    "name": "",
                    "type": "uint256"
                }
            ],
            "stateMutability": "view",
            "type": "function"
        },
        {
            "inputs": [],
            "name": "MAX_SUPPLY",
            "outputs": [
                {
                    "internalType": "uint256",
                    "name": "",
                    "type": "uint256"
                }
            ],
            "stateMutability": "view",
            "type": "function"
        },
        {
            "inputs": [
                {
                    "internalType": "address",
                    "name": "to",
                    "type": "address"
                },
                {
                    "internalType": "uint256",
                    "name": "tokenId",
                    "type": "uint256"
                }
            ],
            "name": "approve",
            "outputs": [],
            "stateMutability": "nonpayable",
            "type": "function"
        },
        {
            "inputs": [
                {
                    "internalType": "address",
                    "name": "owner",
                    "type": "address"
                }
            ],
            "name": "balanceOf",
            "outputs": [
                {
                    "internalType": "uint256",
                    "name": "",
                    "type": "uint256"
                }
            ],
            "stateMutability": "view",
            "type": "function"
        },
        {
            "inputs": [],
            "name": "baseExtension",
            "outputs": [
                {
                    "internalType": "string",
                    "name": "",
                    "type": "string"
                }
            ],
            "stateMutability": "view",
            "type": "function"
        },
        {
            "inputs": [],
            "name": "baseURI",
            "outputs": [
                {
                    "internalType": "string",
                    "name": "",
                    "type": "string"
                }
            ],
            "stateMutability": "view",
            "type": "function"
        },
        {
            "inputs": [],
            "name": "contractURI",
            "outputs": [
                {
                    "internalType": "string",
                    "name": "",
                    "type": "string"
                }
            ],
            "stateMutability": "view",
            "type": "function"
        },
        {
            "inputs": [
                {
                    "internalType": "uint256",
                    "name": "tokenId",
                    "type": "uint256"
                }
            ],
            "name": "getApproved",
            "outputs": [
                {
                    "internalType": "address",
                    "name": "",
                    "type": "address"
                }
            ],
            "stateMutability": "view",
            "type": "function"
        },
        {
            "inputs": [
                {
                    "internalType": "address",
                    "name": "owner",
                    "type": "address"
                },
                {
                    "internalType": "address",
                    "name": "operator",
                    "type": "address"
                }
            ],
            "name": "isApprovedForAll",
            "outputs": [
                {
                    "internalType": "bool",
                    "name": "",
                    "type": "bool"
                }
            ],
            "stateMutability": "view",
            "type": "function"
        },
        {
            "inputs": [],
            "name": "maxSupply",
            "outputs": [
                {
                    "internalType": "uint256",
                    "name": "",
                    "type": "uint256"
                }
            ],
            "stateMutability": "view",
            "type": "function"
        },
        {
            "inputs": [
                {
                    "internalType": "uint256",
                    "name": "_amount",
                    "type": "uint256"
                }
            ],
            "name": "mint",
            "outputs": [],
            "stateMutability": "payable",
            "type": "function"
        },
        {
            "inputs": [],
            "name": "name",
            "outputs": [
                {
                    "internalType": "string",
                    "name": "",
                    "type": "string"
                }
            ],
            "stateMutability": "view",
            "type": "function"
        },
        {
            "inputs": [],
            "name": "owner",
            "outputs": [
                {
                    "internalType": "address",
                    "name": "",
                    "type": "address"
                }
            ],
            "stateMutability": "view",
            "type": "function"
        },
        {
            "inputs": [
                {
                    "internalType": "uint256",
                    "name": "tokenId",
                    "type": "uint256"
                }
            ],
            "name": "ownerOf",
            "outputs": [
                {
                    "internalType": "address",
                    "name": "",
                    "type": "address"
                }
            ],
            "stateMutability": "view",
            "type": "function"
        },
        {
            "inputs": [
                {
                    "internalType": "bool",
                    "name": "_state",
                    "type": "bool"
                }
            ],
            "name": "pause",
            "outputs": [],
            "stateMutability": "nonpayable",
            "type": "function"
        },
        {
            "inputs": [],
            "name": "paused",
            "outputs": [
                {
                    "internalType": "bool",
                    "name": "",
                    "type": "bool"
                }
            ],
            "stateMutability": "view",
            "type": "function"
        },
        {
            "inputs": [],
            "name": "price",
            "outputs": [
                {
                    "internalType": "uint256",
                    "name": "",
                    "type": "uint256"
                }
            ],
            "stateMutability": "view",
            "type": "function"
        },
        {
            "inputs": [],
            "name": "proxyRegistryAddress",
            "outputs": [
                {
                    "internalType": "address",
                    "name": "",
                    "type": "address"
                }
            ],
            "stateMutability": "view",
            "type": "function"
        },
        {
            "inputs": [],
            "name": "renounceOwnership",
            "outputs": [],
            "stateMutability": "nonpayable",
            "type": "function"
        },
        {
            "inputs": [
                {
                    "internalType": "address",
                    "name": "from",
                    "type": "address"
                },
                {
                    "internalType": "address",
                    "name": "to",
                    "type": "address"
                },
                {
                    "internalType": "uint256",
                    "name": "tokenId",
                    "type": "uint256"
                }
            ],
            "name": "safeTransferFrom",
            "outputs": [],
            "stateMutability": "nonpayable",
            "type": "function"
        },
        {
            "inputs": [
                {
                    "internalType": "address",
                    "name": "from",
                    "type": "address"
                },
                {
                    "internalType": "address",
                    "name": "to",
                    "type": "address"
                },
                {
                    "internalType": "uint256",
                    "name": "tokenId",
                    "type": "uint256"
                },
                {
                    "internalType": "bytes",
                    "name": "_data",
                    "type": "bytes"
                }
            ],
            "name": "safeTransferFrom",
            "outputs": [],
            "stateMutability": "nonpayable",
            "type": "function"
        },
        {
            "inputs": [
                {
                    "internalType": "address",
                    "name": "operator",
                    "type": "address"
                },
                {
                    "internalType": "bool",
                    "name": "approved",
                    "type": "bool"
                }
            ],
            "name": "setApprovalForAll",
            "outputs": [],
            "stateMutability": "nonpayable",
            "type": "function"
        },
        {
            "inputs": [
                {
                    "internalType": "string",
                    "name": "baseURI_",
                    "type": "string"
                }
            ],
            "name": "setBaseURI",
            "outputs": [],
            "stateMutability": "nonpayable",
            "type": "function"
        },
        {
            "inputs": [
                {
                    "internalType": "string",
                    "name": "_contractURI",
                    "type": "string"
                }
            ],
            "name": "setContractURI",
            "outputs": [],
            "stateMutability": "nonpayable",
            "type": "function"
        },
        {
            "inputs": [
                {
                    "internalType": "uint256",
                    "name": "newMaxSupply",
                    "type": "uint256"
                }
            ],
            "name": "setNewMaxSupply",
            "outputs": [],
            "stateMutability": "nonpayable",
            "type": "function"
        },
        {
            "inputs": [],
            "name": "setupOS",
            "outputs": [],
            "stateMutability": "nonpayable",
            "type": "function"
        },
        {
            "inputs": [
                {
                    "internalType": "bytes4",
                    "name": "interfaceId",
                    "type": "bytes4"
                }
            ],
            "name": "supportsInterface",
            "outputs": [
                {
                    "internalType": "bool",
                    "name": "",
                    "type": "bool"
                }
            ],
            "stateMutability": "view",
            "type": "function"
        },
        {
            "inputs": [],
            "name": "symbol",
            "outputs": [
                {
                    "internalType": "string",
                    "name": "",
                    "type": "string"
                }
            ],
            "stateMutability": "view",
            "type": "function"
        },
        {
            "inputs": [
                {
                    "internalType": "uint256",
                    "name": "_tokenId",
                    "type": "uint256"
                }
            ],
            "name": "tokenURI",
            "outputs": [
                {
                    "internalType": "string",
                    "name": "",
                    "type": "string"
                }
            ],
            "stateMutability": "view",
            "type": "function"
        },
        {
            "inputs": [],
            "name": "totalSupply",
            "outputs": [
                {
                    "internalType": "uint256",
                    "name": "",
                    "type": "uint256"
                }
            ],
            "stateMutability": "view",
            "type": "function"
        },
        {
            "inputs": [
                {
                    "internalType": "address",
                    "name": "from",
                    "type": "address"
                },
                {
                    "internalType": "address",
                    "name": "to",
                    "type": "address"
                },
                {
                    "internalType": "uint256",
                    "name": "tokenId",
                    "type": "uint256"
                }
            ],
            "name": "transferFrom",
            "outputs": [],
            "stateMutability": "nonpayable",
            "type": "function"
        },
        {
            "inputs": [
                {
                    "internalType": "address",
                    "name": "newOwner",
                    "type": "address"
                }
            ],
            "name": "transferOwnership",
            "outputs": [],
            "stateMutability": "nonpayable",
            "type": "function"
        },
        {
            "inputs": [],
            "name": "withdraw",
            "outputs": [],
            "stateMutability": "nonpayable",
            "type": "function"
        }
    ],
    "bytecode": "0x608060405260405180602001604052806000815250600990805190602001906200002b92919062000235565b5060405180602001604052806000815250600a90805190602001906200005392919062000235565b506001600c60006101000a81548160ff0219169083151502179055503480156200007c57600080fd5b506040518060400160405280600a81526020017f6d797465737470726f6a000000000000000000000000000000000000000000008152506040518060400160405280600381526020017f747374000000000000000000000000000000000000000000000000000000000081525081600290805190602001906200010192919062000235565b5080600390805190602001906200011a92919062000235565b506200012b6200016260201b60201c565b600081905550505062000153620001476200016760201b60201c565b6200016f60201b60201c565b611b39600b819055506200034a565b600090565b600033905090565b6000600860009054906101000a900473ffffffffffffffffffffffffffffffffffffffff16905081600860006101000a81548173ffffffffffffffffffffffffffffffffffffffff021916908373ffffffffffffffffffffffffffffffffffffffff1602179055508173ffffffffffffffffffffffffffffffffffffffff168173ffffffffffffffffffffffffffffffffffffffff167f8be0079c531659141344cd1fd0a4f28419497f9722a3daafe3b4186f6b6457e060405160405180910390a35050565b828054620002439062000314565b90600052602060002090601f016020900481019282620002675760008555620002b3565b82601f106200028257805160ff1916838001178555620002b3565b82800160010185558215620002b3579182015b82811115620002b257825182559160200191906001019062000295565b5b509050620002c29190620002c6565b5090565b5b80821115620002e1576000816000905550600101620002c7565b5090565b7f4e487b7100000000000000000000000000000000000000000000000000000000600052602260045260246000fd5b600060028204905060018216806200032d57607f821691505b60208210811415620003445762000343620002e5565b5b50919050565b613dac806200035a6000396000f3fe6080604052600436106102045760003560e01c8063715018a611610118578063b88d4fde116100a0578063d5abeb011161006f578063d5abeb0114610710578063e8a3d4851461073b578063e985e9c514610766578063f2fde38b146107a3578063f43a22dc146107cc57610204565b8063b88d4fde14610654578063c66828621461067d578063c87b56dd146106a8578063cd7c0326146106e557610204565b806395d89b41116100e757806395d89b4114610590578063a035b1fe146105bb578063a0712d68146105e6578063a22cb46514610602578063b7c7d9a71461062b57610204565b8063715018a6146104fa5780638069876d146105115780638da5cb5b1461053c578063938e3d7b1461056757610204565b80633ccfd60b1161019b5780635c975abb1161016a5780635c975abb146104135780636352211e1461043e578063698982ba1461047b5780636c0360eb1461049257806370a08231146104bd57610204565b80633ccfd60b1461037f57806342842e0e14610396578063463fff79146103bf57806355f804b3146103ea57610204565b8063095ea7b3116101d7578063095ea7b3146102d757806318160ddd1461030057806323b872dd1461032b57806332cb6b0c1461035457610204565b806301ffc9a71461020957806302329a291461024657806306fdde031461026f578063081812fc1461029a575b600080fd5b34801561021557600080fd5b50610230600480360381019061022b9190612cc0565b6107f7565b60405161023d9190612d08565b60405180910390f35b34801561025257600080fd5b5061026d60048036038101906102689190612d4f565b6108d9565b005b34801561027b57600080fd5b50610284610972565b6040516102919190612e15565b60405180910390f35b3480156102a657600080fd5b506102c160048036038101906102bc9190612e6d565b610a04565b6040516102ce9190612edb565b60405180910390f35b3480156102e357600080fd5b506102fe60048036038101906102f99190612f22565b610a80565b005b34801561030c57600080fd5b50610315610b8b565b6040516103229190612f71565b60405180910390f35b34801561033757600080fd5b50610352600480360381019061034d9190612f8c565b610ba2565b005b34801561036057600080fd5b50610369610bb2565b6040516103769190612f71565b60405180910390f35b34801561038b57600080fd5b50610394610bb8565b005b3480156103a257600080fd5b506103bd60048036038101906103b89190612f8c565b610cf0565b005b3480156103cb57600080fd5b506103d4610d10565b6040516103e19190612f71565b60405180910390f35b3480156103f657600080fd5b50610411600480360381019061040c9190613114565b610d15565b005b34801561041f57600080fd5b50610428610dab565b6040516104359190612d08565b60405180910390f35b34801561044a57600080fd5b5061046560048036038101906104609190612e6d565b610dbe565b6040516104729190612edb565b60405180910390f35b34801561048757600080fd5b50610490610dd4565b005b34801561049e57600080fd5b506104a7610e64565b6040516104b49190612e15565b60405180910390f35b3480156104c957600080fd5b506104e460048036038101906104df919061315d565b610ef2565b6040516104f19190612f71565b60405180910390f35b34801561050657600080fd5b5061050f610fc2565b005b34801561051d57600080fd5b50610526611040565b6040516105339190612f71565b60405180910390f35b34801561054857600080fd5b50610551611046565b60405161055e9190612edb565b60405180910390f35b34801561057357600080fd5b5061058e60048036038101906105899190613114565b611070565b005b34801561059c57600080fd5b506105a5611106565b6040516105b29190612e15565b60405180910390f35b3480156105c757600080fd5b506105d0611198565b6040516105dd9190612f71565b60405180910390f35b61060060048036038101906105fb9190612e6d565b6111a3565b005b34801561060e57600080fd5b506106296004803603810190610624919061318a565b611407565b005b34801561063757600080fd5b50610652600480360381019061064d9190612e6d565b61157f565b005b34801561066057600080fd5b5061067b6004803603810190610676919061326b565b611649565b005b34801561068957600080fd5b506106926116c5565b60405161069f9190612e15565b60405180910390f35b3480156106b457600080fd5b506106cf60048036038101906106ca9190612e6d565b6116fe565b6040516106dc9190612e15565b60405180910390f35b3480156106f157600080fd5b506106fa6117dd565b6040516107079190612edb565b60405180910390f35b34801561071c57600080fd5b506107256117f5565b6040516107329190612f71565b60405180910390f35b34801561074757600080fd5b506107506117fb565b60405161075d9190612e15565b60405180910390f35b34801561077257600080fd5b5061078d600480360381019061078891906132ee565b611889565b60405161079a9190612d08565b60405180910390f35b3480156107af57600080fd5b506107ca60048036038101906107c5919061315d565b61197d565b005b3480156107d857600080fd5b506107e1611a75565b6040516107ee9190612f71565b60405180910390f35b60007f80ac58cd000000000000000000000000000000000000000000000000000000007bffffffffffffffffffffffffffffffffffffffffffffffffffffffff1916827bffffffffffffffffffffffffffffffffffffffffffffffffffffffff191614806108c257507f5b5e139f000000000000000000000000000000000000000000000000000000007bffffffffffffffffffffffffffffffffffffffffffffffffffffffff1916827bffffffffffffffffffffffffffffffffffffffffffffffffffffffff1916145b806108d257506108d182611a7a565b5b9050919050565b6108e1611ae4565b73ffffffffffffffffffffffffffffffffffffffff166108ff611046565b73ffffffffffffffffffffffffffffffffffffffff1614610955576040517f08c379a000000000000000000000000000000000000000000000000000000000815260040161094c9061337a565b60405180910390fd5b80600c60006101000a81548160ff02191690831515021790555050565b606060028054610981906133c9565b80601f01602080910402602001604051908101604052809291908181526020018280546109ad906133c9565b80156109fa5780601f106109cf576101008083540402835291602001916109fa565b820191906000526020600020905b8154815290600101906020018083116109dd57829003601f168201915b5050505050905090565b6000610a0f82611aec565b610a45576040517fcf4700e400000000000000000000000000000000000000000000000000000000815260040160405180910390fd5b6006600083815260200190815260200160002060009054906101000a900473ffffffffffffffffffffffffffffffffffffffff169050919050565b6000610a8b82610dbe565b90508073ffffffffffffffffffffffffffffffffffffffff168373ffffffffffffffffffffffffffffffffffffffff161415610af3576040517f943f7b8c00000000000000000000000000000000000000000000000000000000815260040160405180910390fd5b8073ffffffffffffffffffffffffffffffffffffffff16610b12611ae4565b73ffffffffffffffffffffffffffffffffffffffff1614158015610b445750610b4281610b3d611ae4565b611889565b155b15610b7b576040517fcfb3b94200000000000000000000000000000000000000000000000000000000815260040160405180910390fd5b610b86838383611b3a565b505050565b6000610b95611bec565b6001546000540303905090565b610bad838383611bf1565b505050565b611b3981565b610bc0611ae4565b73ffffffffffffffffffffffffffffffffffffffff16610bde611046565b73ffffffffffffffffffffffffffffffffffffffff1614610c34576040517f08c379a0000000000000000000000000000000000000000000000000000000008152600401610c2b9061337a565b60405180910390fd5b60004790506000610c43611ae4565b73ffffffffffffffffffffffffffffffffffffffff1682604051610c669061342c565b60006040518083038185875af1925050503d8060008114610ca3576040519150601f19603f3d011682016040523d82523d6000602084013e610ca8565b606091505b5050905080610cec576040517f08c379a0000000000000000000000000000000000000000000000000000000008152600401610ce39061348d565b60405180910390fd5b5050565b610d0b83838360405180602001604052806000815250611649565b505050565b600a81565b610d1d611ae4565b73ffffffffffffffffffffffffffffffffffffffff16610d3b611046565b73ffffffffffffffffffffffffffffffffffffffff1614610d91576040517f08c379a0000000000000000000000000000000000000000000000000000000008152600401610d889061337a565b60405180910390fd5b8060099080519060200190610da7929190612b6e565b5050565b600c60009054906101000a900460ff1681565b6000610dc9826120a7565b600001519050919050565b610ddc611ae4565b73ffffffffffffffffffffffffffffffffffffffff16610dfa611046565b73ffffffffffffffffffffffffffffffffffffffff1614610e50576040517f08c379a0000000000000000000000000000000000000000000000000000000008152600401610e479061337a565b60405180910390fd5b610e62610e5b611ae4565b6001612336565b565b60098054610e71906133c9565b80601f0160208091040260200160405190810160405280929190818152602001828054610e9d906133c9565b8015610eea5780601f10610ebf57610100808354040283529160200191610eea565b820191906000526020600020905b815481529060010190602001808311610ecd57829003601f168201915b505050505081565b60008073ffffffffffffffffffffffffffffffffffffffff168273ffffffffffffffffffffffffffffffffffffffff161415610f5a576040517f8f4eb60400000000000000000000000000000000000000000000000000000000815260040160405180910390fd5b600560008373ffffffffffffffffffffffffffffffffffffffff1673ffffffffffffffffffffffffffffffffffffffff16815260200190815260200160002060000160009054906101000a900467ffffffffffffffff1667ffffffffffffffff169050919050565b610fca611ae4565b73ffffffffffffffffffffffffffffffffffffffff16610fe8611046565b73ffffffffffffffffffffffffffffffffffffffff161461103e576040517f08c379a00000000000000000000000000000000000000000000000000000000081526004016110359061337a565b60405180910390fd5b565b6101a481565b6000600860009054906101000a900473ffffffffffffffffffffffffffffffffffffffff16905090565b611078611ae4565b73ffffffffffffffffffffffffffffffffffffffff16611096611046565b73ffffffffffffffffffffffffffffffffffffffff16146110ec576040517f08c379a00000000000000000000000000000000000000000000000000000000081526004016110e39061337a565b60405180910390fd5b80600a9080519060200190611102929190612b6e565b5050565b606060038054611115906133c9565b80601f0160208091040260200160405190810160405280929190818152602001828054611141906133c9565b801561118e5780601f106111635761010080835404028352916020019161118e565b820191906000526020600020905b81548152906001019060200180831161117157829003601f168201915b5050505050905090565b66753d533d96800081565b60006111ad611ae4565b9050600c60009054906101000a900460ff16156111ff576040517f08c379a00000000000000000000000000000000000000000000000000000000081526004016111f6906134f9565b60405180910390fd5b81611208610b8b565b6112129190613548565b611b391015611256576040517f08c379a000000000000000000000000000000000000000000000000000000000815260040161124d906135ea565b60405180910390fd5b60008211611299576040517f08c379a000000000000000000000000000000000000000000000000000000000815260040161129090613656565b60405180910390fd5b8073ffffffffffffffffffffffffffffffffffffffff163273ffffffffffffffffffffffffffffffffffffffff1614611307576040517f08c379a00000000000000000000000000000000000000000000000000000000081526004016112fe906136c2565b60405180910390fd5b61130f610b8b565b6101a4106113605781600a101561135b576040517f08c379a00000000000000000000000000000000000000000000000000000000081526004016113529061372e565b60405180910390fd5b6113f9565b81600a10156113a4576040517f08c379a000000000000000000000000000000000000000000000000000000000815260040161139b9061379a565b60405180910390fd5b3466753d533d968000836113b891906137ba565b146113f8576040517f08c379a00000000000000000000000000000000000000000000000000000000081526004016113ef90613860565b60405180910390fd5b5b6114038183612336565b5050565b61140f611ae4565b73ffffffffffffffffffffffffffffffffffffffff168273ffffffffffffffffffffffffffffffffffffffff161415611474576040517fb06307db00000000000000000000000000000000000000000000000000000000815260040160405180910390fd5b8060076000611481611ae4565b73ffffffffffffffffffffffffffffffffffffffff1673ffffffffffffffffffffffffffffffffffffffff16815260200190815260200160002060008473ffffffffffffffffffffffffffffffffffffffff1673ffffffffffffffffffffffffffffffffffffffff16815260200190815260200160002060006101000a81548160ff0219169083151502179055508173ffffffffffffffffffffffffffffffffffffffff1661152e611ae4565b73ffffffffffffffffffffffffffffffffffffffff167f17307eab39ab6107e8899845ad3d59bd9653f200f220920489ca2b5937696c31836040516115739190612d08565b60405180910390a35050565b611587611ae4565b73ffffffffffffffffffffffffffffffffffffffff166115a5611046565b73ffffffffffffffffffffffffffffffffffffffff16146115fb576040517f08c379a00000000000000000000000000000000000000000000000000000000081526004016115f29061337a565b60405180910390fd5b600b54811061163f576040517f08c379a0000000000000000000000000000000000000000000000000000000008152600401611636906138cc565b60405180910390fd5b80600b8190555050565b611654848484611bf1565b6116738373ffffffffffffffffffffffffffffffffffffffff16612354565b8015611688575061168684848484612367565b155b156116bf576040517fd1a57ed600000000000000000000000000000000000000000000000000000000815260040160405180910390fd5b50505050565b6040518060400160405280600581526020017f2e6a736f6e00000000000000000000000000000000000000000000000000000081525081565b606061170982611aec565b611748576040517f08c379a000000000000000000000000000000000000000000000000000000000815260040161173f90613938565b60405180910390fd5b600060098054611757906133c9565b90501161177357604051806020016040528060008152506117d6565b600961177e836124c7565b6040518060400160405280600581526020017f2e6a736f6e0000000000000000000000000000000000000000000000000000008152506040516020016117c693929190613a28565b6040516020818303038152906040525b9050919050565b73f57b2c51ded3a29e6891aba85459d600256cf31781565b600b5481565b600a8054611808906133c9565b80601f0160208091040260200160405190810160405280929190818152602001828054611834906133c9565b80156118815780601f1061185657610100808354040283529160200191611881565b820191906000526020600020905b81548152906001019060200180831161186457829003601f168201915b505050505081565b60008073f57b2c51ded3a29e6891aba85459d600256cf31790508273ffffffffffffffffffffffffffffffffffffffff168173ffffffffffffffffffffffffffffffffffffffff1663c4552791866040518263ffffffff1660e01b81526004016118f39190612edb565b60206040518083038186803b15801561190b57600080fd5b505afa15801561191f573d6000803e3d6000fd5b505050506040513d601f19601f820116820180604052508101906119439190613a97565b73ffffffffffffffffffffffffffffffffffffffff161415611969576001915050611977565b6119738484612628565b9150505b92915050565b611985611ae4565b73ffffffffffffffffffffffffffffffffffffffff166119a3611046565b73ffffffffffffffffffffffffffffffffffffffff16146119f9576040517f08c379a00000000000000000000000000000000000000000000000000000000081526004016119f09061337a565b60405180910390fd5b600073ffffffffffffffffffffffffffffffffffffffff168173ffffffffffffffffffffffffffffffffffffffff161415611a69576040517f08c379a0000000000000000000000000000000000000000000000000000000008152600401611a6090613b36565b60405180910390fd5b611a72816126bc565b50565b600a81565b60007f01ffc9a7000000000000000000000000000000000000000000000000000000007bffffffffffffffffffffffffffffffffffffffffffffffffffffffff1916827bffffffffffffffffffffffffffffffffffffffffffffffffffffffff1916149050919050565b600033905090565b600081611af7611bec565b11158015611b06575060005482105b8015611b33575060046000838152602001908152602001600020600001601c9054906101000a900460ff16155b9050919050565b826006600084815260200190815260200160002060006101000a81548173ffffffffffffffffffffffffffffffffffffffff021916908373ffffffffffffffffffffffffffffffffffffffff160217905550818373ffffffffffffffffffffffffffffffffffffffff168273ffffffffffffffffffffffffffffffffffffffff167f8c5be1e5ebec7d5bd14f71427d1e84f3dd0314c0f7b2291e5b200ac8c7c3b92560405160405180910390a4505050565b600090565b6000611bfc826120a7565b90508373ffffffffffffffffffffffffffffffffffffffff16816000015173ffffffffffffffffffffffffffffffffffffffff1614611c67576040517fa114810000000000000000000000000000000000000000000000000000000000815260040160405180910390fd5b60008473ffffffffffffffffffffffffffffffffffffffff16611c88611ae4565b73ffffffffffffffffffffffffffffffffffffffff161480611cb75750611cb685611cb1611ae4565b611889565b5b80611cfc5750611cc5611ae4565b73ffffffffffffffffffffffffffffffffffffffff16611ce484610a04565b73ffffffffffffffffffffffffffffffffffffffff16145b905080611d35576040517f59c896be00000000000000000000000000000000000000000000000000000000815260040160405180910390fd5b600073ffffffffffffffffffffffffffffffffffffffff168473ffffffffffffffffffffffffffffffffffffffff161415611d9c576040517fea553b3400000000000000000000000000000000000000000000000000000000815260040160405180910390fd5b611da98585856001612782565b611db560008487611b3a565b6001600560008773ffffffffffffffffffffffffffffffffffffffff1673ffffffffffffffffffffffffffffffffffffffff16815260200190815260200160002060000160008282829054906101000a900467ffffffffffffffff160392506101000a81548167ffffffffffffffff021916908367ffffffffffffffff1602179055506001600560008673ffffffffffffffffffffffffffffffffffffffff1673ffffffffffffffffffffffffffffffffffffffff16815260200190815260200160002060000160008282829054906101000a900467ffffffffffffffff160192506101000a81548167ffffffffffffffff021916908367ffffffffffffffff1602179055506000600460008581526020019081526020016000209050848160000160006101000a81548173ffffffffffffffffffffffffffffffffffffffff021916908373ffffffffffffffffffffffffffffffffffffffff160217905550428160000160146101000a81548167ffffffffffffffff021916908367ffffffffffffffff16021790555060006001850190506000600460008381526020019081526020016000209050600073ffffffffffffffffffffffffffffffffffffffff168160000160009054906101000a900473ffffffffffffffffffffffffffffffffffffffff1673ffffffffffffffffffffffffffffffffffffffff16141561203557600054821461203457878160000160006101000a81548173ffffffffffffffffffffffffffffffffffffffff021916908373ffffffffffffffffffffffffffffffffffffffff16021790555084602001518160000160146101000a81548167ffffffffffffffff021916908367ffffffffffffffff1602179055505b5b505050828473ffffffffffffffffffffffffffffffffffffffff168673ffffffffffffffffffffffffffffffffffffffff167fddf252ad1be2c89b69c2b068fc378daa952ba7f163c4a11628f55a4df523b3ef60405160405180910390a46120a08585856001612788565b5050505050565b6120af612bf4565b6000829050806120bd611bec565b111580156120cc575060005481105b156122ff576000600460008381526020019081526020016000206040518060600160405290816000820160009054906101000a900473ffffffffffffffffffffffffffffffffffffffff1673ffffffffffffffffffffffffffffffffffffffff1673ffffffffffffffffffffffffffffffffffffffff1681526020016000820160149054906101000a900467ffffffffffffffff1667ffffffffffffffff1667ffffffffffffffff16815260200160008201601c9054906101000a900460ff161515151581525050905080604001516122fd57600073ffffffffffffffffffffffffffffffffffffffff16816000015173ffffffffffffffffffffffffffffffffffffffff16146121e1578092505050612331565b5b6001156122fc57818060019003925050600460008381526020019081526020016000206040518060600160405290816000820160009054906101000a900473ffffffffffffffffffffffffffffffffffffffff1673ffffffffffffffffffffffffffffffffffffffff1673ffffffffffffffffffffffffffffffffffffffff1681526020016000820160149054906101000a900467ffffffffffffffff1667ffffffffffffffff1667ffffffffffffffff16815260200160008201601c9054906101000a900460ff1615151515815250509050600073ffffffffffffffffffffffffffffffffffffffff16816000015173ffffffffffffffffffffffffffffffffffffffff16146122f7578092505050612331565b6121e2565b5b505b6040517fdf2d9b4200000000000000000000000000000000000000000000000000000000815260040160405180910390fd5b919050565b61235082826040518060200160405280600081525061278e565b5050565b600080823b905060008111915050919050565b60008373ffffffffffffffffffffffffffffffffffffffff1663150b7a0261238d611ae4565b8786866040518563ffffffff1660e01b81526004016123af9493929190613bab565b602060405180830381600087803b1580156123c957600080fd5b505af19250505080156123fa57506040513d601f19601f820116820180604052508101906123f79190613c0c565b60015b612474573d806000811461242a576040519150601f19603f3d011682016040523d82523d6000602084013e61242f565b606091505b5060008151141561246c576040517fd1a57ed600000000000000000000000000000000000000000000000000000000815260040160405180910390fd5b805181602001fd5b63150b7a0260e01b7bffffffffffffffffffffffffffffffffffffffffffffffffffffffff1916817bffffffffffffffffffffffffffffffffffffffffffffffffffffffff191614915050949350505050565b6060600082141561250f576040518060400160405280600181526020017f30000000000000000000000000000000000000000000000000000000000000008152509050612623565b600082905060005b6000821461254157808061252a90613c39565b915050600a8261253a9190613cb1565b9150612517565b60008167ffffffffffffffff81111561255d5761255c612fe9565b5b6040519080825280601f01601f19166020018201604052801561258f5781602001600182028036833780820191505090505b5090505b6000851461261c576001826125a89190613ce2565b9150600a856125b79190613d16565b60306125c39190613548565b60f81b8183815181106125d9576125d8613d47565b5b60200101907effffffffffffffffffffffffffffffffffffffffffffffffffffffffffffff1916908160001a905350600a856126159190613cb1565b9450612593565b8093505050505b919050565b6000600760008473ffffffffffffffffffffffffffffffffffffffff1673ffffffffffffffffffffffffffffffffffffffff16815260200190815260200160002060008373ffffffffffffffffffffffffffffffffffffffff1673ffffffffffffffffffffffffffffffffffffffff16815260200190815260200160002060009054906101000a900460ff16905092915050565b6000600860009054906101000a900473ffffffffffffffffffffffffffffffffffffffff16905081600860006101000a81548173ffffffffffffffffffffffffffffffffffffffff021916908373ffffffffffffffffffffffffffffffffffffffff1602179055508173ffffffffffffffffffffffffffffffffffffffff168173ffffffffffffffffffffffffffffffffffffffff167f8be0079c531659141344cd1fd0a4f28419497f9722a3daafe3b4186f6b6457e060405160405180910390a35050565b50505050565b50505050565b61279b83838360016127a0565b505050565b600080549050600073ffffffffffffffffffffffffffffffffffffffff168573ffffffffffffffffffffffffffffffffffffffff16141561280d576040517f2e07630000000000000000000000000000000000000000000000000000000000815260040160405180910390fd5b6000841415612848576040517fb562e8dd00000000000000000000000000000000000000000000000000000000815260040160405180910390fd5b6128556000868387612782565b83600560008773ffffffffffffffffffffffffffffffffffffffff1673ffffffffffffffffffffffffffffffffffffffff16815260200190815260200160002060000160008282829054906101000a900467ffffffffffffffff160192506101000a81548167ffffffffffffffff021916908367ffffffffffffffff16021790555083600560008773ffffffffffffffffffffffffffffffffffffffff1673ffffffffffffffffffffffffffffffffffffffff16815260200190815260200160002060000160088282829054906101000a900467ffffffffffffffff160192506101000a81548167ffffffffffffffff021916908367ffffffffffffffff160217905550846004600083815260200190815260200160002060000160006101000a81548173ffffffffffffffffffffffffffffffffffffffff021916908373ffffffffffffffffffffffffffffffffffffffff160217905550426004600083815260200190815260200160002060000160146101000a81548167ffffffffffffffff021916908367ffffffffffffffff160217905550600081905060008582019050838015612a1f5750612a1e8773ffffffffffffffffffffffffffffffffffffffff16612354565b5b15612ae5575b818773ffffffffffffffffffffffffffffffffffffffff16600073ffffffffffffffffffffffffffffffffffffffff167fddf252ad1be2c89b69c2b068fc378daa952ba7f163c4a11628f55a4df523b3ef60405160405180910390a4612a946000888480600101955088612367565b612aca576040517fd1a57ed600000000000000000000000000000000000000000000000000000000815260040160405180910390fd5b80821415612a25578260005414612ae057600080fd5b612b51565b5b818060010192508773ffffffffffffffffffffffffffffffffffffffff16600073ffffffffffffffffffffffffffffffffffffffff167fddf252ad1be2c89b69c2b068fc378daa952ba7f163c4a11628f55a4df523b3ef60405160405180910390a480821415612ae6575b816000819055505050612b676000868387612788565b5050505050565b828054612b7a906133c9565b90600052602060002090601f016020900481019282612b9c5760008555612be3565b82601f10612bb557805160ff1916838001178555612be3565b82800160010185558215612be3579182015b82811115612be2578251825591602001919060010190612bc7565b5b509050612bf09190612c37565b5090565b6040518060600160405280600073ffffffffffffffffffffffffffffffffffffffff168152602001600067ffffffffffffffff1681526020016000151581525090565b5b80821115612c50576000816000905550600101612c38565b5090565b6000604051905090565b600080fd5b600080fd5b60007fffffffff0000000000000000000000000000000000000000000000000000000082169050919050565b612c9d81612c68565b8114612ca857600080fd5b50565b600081359050612cba81612c94565b92915050565b600060208284031215612cd657612cd5612c5e565b5b6000612ce484828501612cab565b91505092915050565b60008115159050919050565b612d0281612ced565b82525050565b6000602082019050612d1d6000830184612cf9565b92915050565b612d2c81612ced565b8114612d3757600080fd5b50565b600081359050612d4981612d23565b92915050565b600060208284031215612d6557612d64612c5e565b5b6000612d7384828501612d3a565b91505092915050565b600081519050919050565b600082825260208201905092915050565b60005b83811015612db6578082015181840152602081019050612d9b565b83811115612dc5576000848401525b50505050565b6000601f19601f8301169050919050565b6000612de782612d7c565b612df18185612d87565b9350612e01818560208601612d98565b612e0a81612dcb565b840191505092915050565b60006020820190508181036000830152612e2f8184612ddc565b905092915050565b6000819050919050565b612e4a81612e37565b8114612e5557600080fd5b50565b600081359050612e6781612e41565b92915050565b600060208284031215612e8357612e82612c5e565b5b6000612e9184828501612e58565b91505092915050565b600073ffffffffffffffffffffffffffffffffffffffff82169050919050565b6000612ec582612e9a565b9050919050565b612ed581612eba565b82525050565b6000602082019050612ef06000830184612ecc565b92915050565b612eff81612eba565b8114612f0a57600080fd5b50565b600081359050612f1c81612ef6565b92915050565b60008060408385031215612f3957612f38612c5e565b5b6000612f4785828601612f0d565b9250506020612f5885828601612e58565b9150509250929050565b612f6b81612e37565b82525050565b6000602082019050612f866000830184612f62565b92915050565b600080600060608486031215612fa557612fa4612c5e565b5b6000612fb386828701612f0d565b9350506020612fc486828701612f0d565b9250506040612fd586828701612e58565b9150509250925092565b600080fd5b600080fd5b7f4e487b7100000000000000000000000000000000000000000000000000000000600052604160045260246000fd5b61302182612dcb565b810181811067ffffffffffffffff821117156130405761303f612fe9565b5b80604052505050565b6000613053612c54565b905061305f8282613018565b919050565b600067ffffffffffffffff82111561307f5761307e612fe9565b5b61308882612dcb565b9050602081019050919050565b82818337600083830152505050565b60006130b76130b284613064565b613049565b9050828152602081018484840111156130d3576130d2612fe4565b5b6130de848285613095565b509392505050565b600082601f8301126130fb576130fa612fdf565b5b813561310b8482602086016130a4565b91505092915050565b60006020828403121561312a57613129612c5e565b5b600082013567ffffffffffffffff81111561314857613147612c63565b5b613154848285016130e6565b91505092915050565b60006020828403121561317357613172612c5e565b5b600061318184828501612f0d565b91505092915050565b600080604083850312156131a1576131a0612c5e565b5b60006131af85828601612f0d565b92505060206131c085828601612d3a565b9150509250929050565b600067ffffffffffffffff8211156131e5576131e4612fe9565b5b6131ee82612dcb565b9050602081019050919050565b600061320e613209846131ca565b613049565b90508281526020810184848401111561322a57613229612fe4565b5b613235848285613095565b509392505050565b600082601f83011261325257613251612fdf565b5b81356132628482602086016131fb565b91505092915050565b6000806000806080858703121561328557613284612c5e565b5b600061329387828801612f0d565b94505060206132a487828801612f0d565b93505060406132b587828801612e58565b925050606085013567ffffffffffffffff8111156132d6576132d5612c63565b5b6132e28782880161323d565b91505092959194509250565b6000806040838503121561330557613304612c5e565b5b600061331385828601612f0d565b925050602061332485828601612f0d565b9150509250929050565b7f4f776e61626c653a2063616c6c6572206973206e6f7420746865206f776e6572600082015250565b6000613364602083612d87565b915061336f8261332e565b602082019050919050565b6000602082019050818103600083015261339381613357565b9050919050565b7f4e487b7100000000000000000000000000000000000000000000000000000000600052602260045260246000fd5b600060028204905060018216806133e157607f821691505b602082108114156133f5576133f461339a565b5b50919050565b600081905092915050565b50565b60006134166000836133fb565b915061342182613406565b600082019050919050565b600061343782613409565b9150819050919050565b7f4661696c656420746f2073656e64000000000000000000000000000000000000600082015250565b6000613477600e83612d87565b915061348282613441565b602082019050919050565b600060208201905081810360008301526134a68161346a565b9050919050565b7f5061757365640000000000000000000000000000000000000000000000000000600082015250565b60006134e3600683612d87565b91506134ee826134ad565b602082019050919050565b60006020820190508181036000830152613512816134d6565b9050919050565b7f4e487b7100000000000000000000000000000000000000000000000000000000600052601160045260246000fd5b600061355382612e37565b915061355e83612e37565b9250827fffffffffffffffffffffffffffffffffffffffffffffffffffffffffffffffff0382111561359357613592613519565b5b828201905092915050565b7f45786365656473206d617820737570706c790000000000000000000000000000600082015250565b60006135d4601283612d87565b91506135df8261359e565b602082019050919050565b60006020820190508181036000830152613603816135c7565b9050919050565b7f4e6f2030206d696e747300000000000000000000000000000000000000000000600082015250565b6000613640600a83612d87565b915061364b8261360a565b602082019050919050565b6000602082019050818103600083015261366f81613633565b9050919050565b7f4e6f20636f6e7472616374730000000000000000000000000000000000000000600082015250565b60006136ac600c83612d87565b91506136b782613676565b602082019050919050565b600060208201905081810360008301526136db8161369f565b9050919050565b7f457863657373206d617820706572206672656520747800000000000000000000600082015250565b6000613718601683612d87565b9150613723826136e2565b602082019050919050565b600060208201905081810360008301526137478161370b565b9050919050565b7f457863657373206d617820706572207061696420747800000000000000000000600082015250565b6000613784601683612d87565b915061378f8261374e565b602082019050919050565b600060208201905081810360008301526137b381613777565b9050919050565b60006137c582612e37565b91506137d083612e37565b9250817fffffffffffffffffffffffffffffffffffffffffffffffffffffffffffffffff048311821515161561380957613808613519565b5b828202905092915050565b7f496e76616c69642066756e64732070726f766964656400000000000000000000600082015250565b600061384a601683612d87565b915061385582613814565b602082019050919050565b600060208201905081810360008301526138798161383d565b9050919050565b7f796f752063616e206f6e6c792064656372656173652069740000000000000000600082015250565b60006138b6601883612d87565b91506138c182613880565b602082019050919050565b600060208201905081810360008301526138e5816138a9565b9050919050565b7f546f6b656e20646f6573206e6f742065786973742e0000000000000000000000600082015250565b6000613922601583612d87565b915061392d826138ec565b602082019050919050565b6000602082019050818103600083015261395181613915565b9050919050565b600081905092915050565b60008190508160005260206000209050919050565b60008154613985816133c9565b61398f8186613958565b945060018216600081146139aa57600181146139bb576139ee565b60ff198316865281860193506139ee565b6139c485613963565b60005b838110156139e6578154818901526001820191506020810190506139c7565b838801955050505b50505092915050565b6000613a0282612d7c565b613a0c8185613958565b9350613a1c818560208601612d98565b80840191505092915050565b6000613a348286613978565b9150613a4082856139f7565b9150613a4c82846139f7565b9150819050949350505050565b6000613a6482612eba565b9050919050565b613a7481613a59565b8114613a7f57600080fd5b50565b600081519050613a9181613a6b565b92915050565b600060208284031215613aad57613aac612c5e565b5b6000613abb84828501613a82565b91505092915050565b7f4f776e61626c653a206e6577206f776e657220697320746865207a65726f206160008201527f6464726573730000000000000000000000000000000000000000000000000000602082015250565b6000613b20602683612d87565b9150613b2b82613ac4565b604082019050919050565b60006020820190508181036000830152613b4f81613b13565b9050919050565b600081519050919050565b600082825260208201905092915050565b6000613b7d82613b56565b613b878185613b61565b9350613b97818560208601612d98565b613ba081612dcb565b840191505092915050565b6000608082019050613bc06000830187612ecc565b613bcd6020830186612ecc565b613bda6040830185612f62565b8181036060830152613bec8184613b72565b905095945050505050565b600081519050613c0681612c94565b92915050565b600060208284031215613c2257613c21612c5e565b5b6000613c3084828501613bf7565b91505092915050565b6000613c4482612e37565b91507fffffffffffffffffffffffffffffffffffffffffffffffffffffffffffffffff821415613c7757613c76613519565b5b600182019050919050565b7f4e487b7100000000000000000000000000000000000000000000000000000000600052601260045260246000fd5b6000613cbc82612e37565b9150613cc783612e37565b925082613cd757613cd6613c82565b5b828204905092915050565b6000613ced82612e37565b9150613cf883612e37565b925082821015613d0b57613d0a613519565b5b828203905092915050565b6000613d2182612e37565b9150613d2c83612e37565b925082613d3c57613d3b613c82565b5b828206905092915050565b7f4e487b7100000000000000000000000000000000000000000000000000000000600052603260045260246000fdfea264697066735822122038dc5f0bfd268562e5c364d7c9993507ef2520e9f7f90402680fe198737ccef364736f6c63430008090033",
    "linkReferences": {},
    "deployedLinkReferences": {}
}