{
  "_format": "hh-sol-artifact-1",
  "contractName": "mytestproj",
  "sourceName": "contracts/mytestproj.sol",
  "abi": [
    {
      "inputs": [],
      "stateMutability": "nonpayable",
      "type": "constructor"
    },
    {
      "inputs": [],
      "name": "ApprovalCallerNotOwnerNorApproved",
      "type": "error"
    },
    {
      "inputs": [],
      "name": "ApprovalQueryForNonexistentToken",
      "type": "error"
    },
    {
      "inputs": [],
      "name": "ApprovalToCurrentOwner",
      "type": "error"
    },
    {
      "inputs": [],
      "name": "ApproveToCaller",
      "type": "error"
    },
    {
      "inputs": [],
      "name": "BalanceQueryForZeroAddress",
      "type": "error"
    },
    {
      "inputs": [],
      "name": "MintToZeroAddress",
      "type": "error"
    },
    {
      "inputs": [],
      "name": "MintZeroQuantity",
      "type": "error"
    },
    {
      "inputs": [],
      "name": "OwnerQueryForNonexistentToken",
      "type": "error"
    },
    {
      "inputs": [],
      "name": "TransferCallerNotOwnerNorApproved",
      "type": "error"
    },
    {
      "inputs": [],
      "name": "TransferFromIncorrectOwner",
      "type": "error"
    },
    {
      "inputs": [],
      "name": "TransferToNonERC721ReceiverImplementer",
      "type": "error"
    },
    {
      "inputs": [],
      "name": "TransferToZeroAddress",
      "type": "error"
    },
    {
      "anonymous": false,
      "inputs": [
        {
          "indexed": true,
          "internalType": "address",
          "name": "owner",
          "type": "address"
        },
        {
          "indexed": true,
          "internalType": "address",
          "name": "approved",
          "type": "address"
        },
        {
          "indexed": true,
          "internalType": "uint256",
          "name": "tokenId",
          "type": "uint256"
        }
      ],
      "name": "Approval",
      "type": "event"
    },
    {
      "anonymous": false,
      "inputs": [
        {
          "indexed": true,
          "internalType": "address",
          "name": "owner",
          "type": "address"
        },
        {
          "indexed": true,
          "internalType": "address",
          "name": "operator",
          "type": "address"
        },
        {
          "indexed": false,
          "internalType": "bool",
          "name": "approved",
          "type": "bool"
        }
      ],
      "name": "ApprovalForAll",
      "type": "event"
    },
    {
      "anonymous": false,
      "inputs": [
        {
          "indexed": true,
          "internalType": "address",
          "name": "previousOwner",
          "type": "address"
        },
        {
          "indexed": true,
          "internalType": "address",
          "name": "newOwner",
          "type": "address"
        }
      ],
      "name": "OwnershipTransferred",
      "type": "event"
    },
    {
      "anonymous": false,
      "inputs": [
        {
          "indexed": true,
          "internalType": "address",
          "name": "from",
          "type": "address"
        },
        {
          "indexed": true,
          "internalType": "address",
          "name": "to",
          "type": "address"
        },
        {
          "indexed": true,
          "internalType": "uint256",
          "name": "tokenId",
          "type": "uint256"
        }
      ],
      "name": "Transfer",
      "type": "event"
    },
    {
      "inputs": [],
      "name": "FREE_MAX_SUPPLY",
      "outputs": [
        {
          "internalType": "uint256",
          "name": "",
          "type": "uint256"
        }
      ],
      "stateMutability": "view",
      "type": "function"
    },
    {
      "inputs": [],
      "name": "MAX_PER_TX",
      "outputs": [
        {
          "internalType": "uint256",
          "name": "",
          "type": "uint256"
        }
      ],
      "stateMutability": "view",
      "type": "function"
    },
    {
      "inputs": [],
      "name": "MAX_PER_TX_FREE",
      "outputs": [
        {
          "internalType": "uint256",
          "name": "",
          "type": "uint256"
        }
      ],
      "stateMutability": "view",
      "type": "function"
    },
    {
      "inputs": [],
      "name": "MAX_SUPPLY",
      "outputs": [
        {
          "internalType": "uint256",
          "name": "",
          "type": "uint256"
        }
      ],
      "stateMutability": "view",
      "type": "function"
    },
    {
      "inputs": [
        {
          "internalType": "address",
          "name": "to",
          "type": "address"
        },
        {
          "internalType": "uint256",
          "name": "tokenId",
          "type": "uint256"
        }
      ],
      "name": "approve",
      "outputs": [],
      "stateMutability": "nonpayable",
      "type": "function"
    },
    {
      "inputs": [
        {
          "internalType": "address",
          "name": "owner",
          "type": "address"
        }
      ],
      "name": "balanceOf",
      "outputs": [
        {
          "internalType": "uint256",
          "name": "",
          "type": "uint256"
        }
      ],
      "stateMutability": "view",
      "type": "function"
    },
    {
      "inputs": [],
      "name": "baseExtension",
      "outputs": [
        {
          "internalType": "string",
          "name": "",
          "type": "string"
        }
      ],
      "stateMutability": "view",
      "type": "function"
    },
    {
      "inputs": [],
      "name": "baseURI",
      "outputs": [
        {
          "internalType": "string",
          "name": "",
          "type": "string"
        }
      ],
      "stateMutability": "view",
      "type": "function"
    },
    {
      "inputs": [
        {
          "internalType": "uint256",
          "name": "tokenId",
          "type": "uint256"
        }
      ],
      "name": "getApproved",
      "outputs": [
        {
          "internalType": "address",
          "name": "",
          "type": "address"
        }
      ],
      "stateMutability": "view",
      "type": "function"
    },
    {
      "inputs": [
        {
          "internalType": "address",
          "name": "owner",
          "type": "address"
        },
        {
          "internalType": "address",
          "name": "operator",
          "type": "address"
        }
      ],
      "name": "isApprovedForAll",
      "outputs": [
        {
          "internalType": "bool",
          "name": "",
          "type": "bool"
        }
      ],
      "stateMutability": "view",
      "type": "function"
    },
    {
      "inputs": [],
      "name": "maxSupply",
      "outputs": [
        {
          "internalType": "uint256",
          "name": "",
          "type": "uint256"
        }
      ],
      "stateMutability": "view",
      "type": "function"
    },
    {
      "inputs": [
        {
          "internalType": "uint256",
          "name": "_amount",
          "type": "uint256"
        }
      ],
      "name": "mint",
      "outputs": [],
      "stateMutability": "payable",
      "type": "function"
    },
    {
      "inputs": [],
      "name": "name",
      "outputs": [
        {
          "internalType": "string",
          "name": "",
          "type": "string"
        }
      ],
      "stateMutability": "view",
      "type": "function"
    },
    {
      "inputs": [],
      "name": "owner",
      "outputs": [
        {
          "internalType": "address",
          "name": "",
          "type": "address"
        }
      ],
      "stateMutability": "view",
      "type": "function"
    },
    {
      "inputs": [
        {
          "internalType": "uint256",
          "name": "tokenId",
          "type": "uint256"
        }
      ],
      "name": "ownerOf",
      "outputs": [
        {
          "internalType": "address",
          "name": "",
          "type": "address"
        }
      ],
      "stateMutability": "view",
      "type": "function"
    },
    {
      "inputs": [
        {
          "internalType": "bool",
          "name": "_state",
          "type": "bool"
        }
      ],
      "name": "pause",
      "outputs": [],
      "stateMutability": "nonpayable",
      "type": "function"
    },
    {
      "inputs": [],
      "name": "paused",
      "outputs": [
        {
          "internalType": "bool",
          "name": "",
          "type": "bool"
        }
      ],
      "stateMutability": "view",
      "type": "function"
    },
    {
      "inputs": [],
      "name": "price",
      "outputs": [
        {
          "internalType": "uint256",
          "name": "",
          "type": "uint256"
        }
      ],
      "stateMutability": "view",
      "type": "function"
    },
    {
      "inputs": [],
      "name": "proxyRegistryAddress",
      "outputs": [
        {
          "internalType": "address",
          "name": "",
          "type": "address"
        }
      ],
      "stateMutability": "view",
      "type": "function"
    },
    {
      "inputs": [],
      "name": "renounceOwnership",
      "outputs": [],
      "stateMutability": "nonpayable",
      "type": "function"
    },
    {
      "inputs": [
        {
          "internalType": "address",
          "name": "from",
          "type": "address"
        },
        {
          "internalType": "address",
          "name": "to",
          "type": "address"
        },
        {
          "internalType": "uint256",
          "name": "tokenId",
          "type": "uint256"
        }
      ],
      "name": "safeTransferFrom",
      "outputs": [],
      "stateMutability": "nonpayable",
      "type": "function"
    },
    {
      "inputs": [
        {
          "internalType": "address",
          "name": "from",
          "type": "address"
        },
        {
          "internalType": "address",
          "name": "to",
          "type": "address"
        },
        {
          "internalType": "uint256",
          "name": "tokenId",
          "type": "uint256"
        },
        {
          "internalType": "bytes",
          "name": "_data",
          "type": "bytes"
        }
      ],
      "name": "safeTransferFrom",
      "outputs": [],
      "stateMutability": "nonpayable",
      "type": "function"
    },
    {
      "inputs": [
        {
          "internalType": "address",
          "name": "operator",
          "type": "address"
        },
        {
          "internalType": "bool",
          "name": "approved",
          "type": "bool"
        }
      ],
      "name": "setApprovalForAll",
      "outputs": [],
      "stateMutability": "nonpayable",
      "type": "function"
    },
    {
      "inputs": [
        {
          "internalType": "string",
          "name": "baseURI_",
          "type": "string"
        }
      ],
      "name": "setBaseURI",
      "outputs": [],
      "stateMutability": "nonpayable",
      "type": "function"
    },
    {
      "inputs": [
        {
          "internalType": "uint256",
          "name": "newMaxSupply",
          "type": "uint256"
        }
      ],
      "name": "setNewMaxSupply",
      "outputs": [],
      "stateMutability": "nonpayable",
      "type": "function"
    },
    {
      "inputs": [],
      "name": "setupOS",
      "outputs": [],
      "stateMutability": "nonpayable",
      "type": "function"
    },
    {
      "inputs": [
        {
          "internalType": "bytes4",
          "name": "interfaceId",
          "type": "bytes4"
        }
      ],
      "name": "supportsInterface",
      "outputs": [
        {
          "internalType": "bool",
          "name": "",
          "type": "bool"
        }
      ],
      "stateMutability": "view",
      "type": "function"
    },
    {
      "inputs": [],
      "name": "symbol",
      "outputs": [
        {
          "internalType": "string",
          "name": "",
          "type": "string"
        }
      ],
      "stateMutability": "view",
      "type": "function"
    },
    {
      "inputs": [
        {
          "internalType": "uint256",
          "name": "_tokenId",
          "type": "uint256"
        }
      ],
      "name": "tokenURI",
      "outputs": [
        {
          "internalType": "string",
          "name": "",
          "type": "string"
        }
      ],
      "stateMutability": "view",
      "type": "function"
    },
    {
      "inputs": [],
      "name": "totalSupply",
      "outputs": [
        {
          "internalType": "uint256",
          "name": "",
          "type": "uint256"
        }
      ],
      "stateMutability": "view",
      "type": "function"
    },
    {
      "inputs": [
        {
          "internalType": "address",
          "name": "from",
          "type": "address"
        },
        {
          "internalType": "address",
          "name": "to",
          "type": "address"
        },
        {
          "internalType": "uint256",
          "name": "tokenId",
          "type": "uint256"
        }
      ],
      "name": "transferFrom",
      "outputs": [],
      "stateMutability": "nonpayable",
      "type": "function"
    },
    {
      "inputs": [
        {
          "internalType": "address",
          "name": "newOwner",
          "type": "address"
        }
      ],
      "name": "transferOwnership",
      "outputs": [],
      "stateMutability": "nonpayable",
      "type": "function"
    },
    {
      "inputs": [],
      "name": "withdraw",
      "outputs": [],
      "stateMutability": "nonpayable",
      "type": "function"
    }
  ],
  "bytecode": "0x608060405260405180602001604052806000815250600990805190602001906200002b9291906200020d565b506001600b60006101000a81548160ff0219169083151502179055503480156200005457600080fd5b506040518060400160405280600a81526020017f6d797465737470726f6a000000000000000000000000000000000000000000008152506040518060400160405280600381526020017f74737400000000000000000000000000000000000000000000000000000000008152508160029080519060200190620000d99291906200020d565b508060039080519060200190620000f29291906200020d565b50620001036200013a60201b60201c565b60008190555050506200012b6200011f6200013f60201b60201c565b6200014760201b60201c565b611b39600a8190555062000322565b600090565b600033905090565b6000600860009054906101000a900473ffffffffffffffffffffffffffffffffffffffff16905081600860006101000a81548173ffffffffffffffffffffffffffffffffffffffff021916908373ffffffffffffffffffffffffffffffffffffffff1602179055508173ffffffffffffffffffffffffffffffffffffffff168173ffffffffffffffffffffffffffffffffffffffff167f8be0079c531659141344cd1fd0a4f28419497f9722a3daafe3b4186f6b6457e060405160405180910390a35050565b8280546200021b90620002ec565b90600052602060002090601f0160209004810192826200023f57600085556200028b565b82601f106200025a57805160ff19168380011785556200028b565b828001600101855582156200028b579182015b828111156200028a5782518255916020019190600101906200026d565b5b5090506200029a91906200029e565b5090565b5b80821115620002b95760008160009055506001016200029f565b5090565b7f4e487b7100000000000000000000000000000000000000000000000000000000600052602260045260246000fd5b600060028204905060018216806200030557607f821691505b602082108114156200031c576200031b620002bd565b5b50919050565b613c7180620003326000396000f3fe6080604052600436106101ee5760003560e01c806370a082311161010d578063b7c7d9a7116100a0578063cd7c03261161006f578063cd7c0326146106a6578063d5abeb01146106d1578063e985e9c5146106fc578063f2fde38b14610739578063f43a22dc14610762576101ee565b8063b7c7d9a7146105ec578063b88d4fde14610615578063c66828621461063e578063c87b56dd14610669576101ee565b806395d89b41116100dc57806395d89b4114610551578063a035b1fe1461057c578063a0712d68146105a7578063a22cb465146105c3576101ee565b806370a08231146104a7578063715018a6146104e45780638069876d146104fb5780638da5cb5b14610526576101ee565b80633ccfd60b116101855780635c975abb116101545780635c975abb146103fd5780636352211e14610428578063698982ba146104655780636c0360eb1461047c576101ee565b80633ccfd60b1461036957806342842e0e14610380578063463fff79146103a957806355f804b3146103d4576101ee565b8063095ea7b3116101c1578063095ea7b3146102c157806318160ddd146102ea57806323b872dd1461031557806332cb6b0c1461033e576101ee565b806301ffc9a7146101f357806302329a291461023057806306fdde0314610259578063081812fc14610284575b600080fd5b3480156101ff57600080fd5b5061021a60048036038101906102159190612b85565b61078d565b6040516102279190612bcd565b60405180910390f35b34801561023c57600080fd5b5061025760048036038101906102529190612c14565b61086f565b005b34801561026557600080fd5b5061026e610908565b60405161027b9190612cda565b60405180910390f35b34801561029057600080fd5b506102ab60048036038101906102a69190612d32565b61099a565b6040516102b89190612da0565b60405180910390f35b3480156102cd57600080fd5b506102e860048036038101906102e39190612de7565b610a16565b005b3480156102f657600080fd5b506102ff610b21565b60405161030c9190612e36565b60405180910390f35b34801561032157600080fd5b5061033c60048036038101906103379190612e51565b610b38565b005b34801561034a57600080fd5b50610353610b48565b6040516103609190612e36565b60405180910390f35b34801561037557600080fd5b5061037e610b4e565b005b34801561038c57600080fd5b506103a760048036038101906103a29190612e51565b610c86565b005b3480156103b557600080fd5b506103be610ca6565b6040516103cb9190612e36565b60405180910390f35b3480156103e057600080fd5b506103fb60048036038101906103f69190612fd9565b610cab565b005b34801561040957600080fd5b50610412610d41565b60405161041f9190612bcd565b60405180910390f35b34801561043457600080fd5b5061044f600480360381019061044a9190612d32565b610d54565b60405161045c9190612da0565b60405180910390f35b34801561047157600080fd5b5061047a610d6a565b005b34801561048857600080fd5b50610491610dfa565b60405161049e9190612cda565b60405180910390f35b3480156104b357600080fd5b506104ce60048036038101906104c99190613022565b610e88565b6040516104db9190612e36565b60405180910390f35b3480156104f057600080fd5b506104f9610f58565b005b34801561050757600080fd5b50610510610fd6565b60405161051d9190612e36565b60405180910390f35b34801561053257600080fd5b5061053b610fdb565b6040516105489190612da0565b60405180910390f35b34801561055d57600080fd5b50610566611005565b6040516105739190612cda565b60405180910390f35b34801561058857600080fd5b50610591611097565b60405161059e9190612e36565b60405180910390f35b6105c160048036038101906105bc9190612d32565b6110a2565b005b3480156105cf57600080fd5b506105ea60048036038101906105e5919061304f565b61135a565b005b3480156105f857600080fd5b50610613600480360381019061060e9190612d32565b6114d2565b005b34801561062157600080fd5b5061063c60048036038101906106379190613130565b61159c565b005b34801561064a57600080fd5b50610653611618565b6040516106609190612cda565b60405180910390f35b34801561067557600080fd5b50610690600480360381019061068b9190612d32565b611651565b60405161069d9190612cda565b60405180910390f35b3480156106b257600080fd5b506106bb611730565b6040516106c89190612da0565b60405180910390f35b3480156106dd57600080fd5b506106e6611748565b6040516106f39190612e36565b60405180910390f35b34801561070857600080fd5b50610723600480360381019061071e91906131b3565b61174e565b6040516107309190612bcd565b60405180910390f35b34801561074557600080fd5b50610760600480360381019061075b9190613022565b611842565b005b34801561076e57600080fd5b5061077761193a565b6040516107849190612e36565b60405180910390f35b60007f80ac58cd000000000000000000000000000000000000000000000000000000007bffffffffffffffffffffffffffffffffffffffffffffffffffffffff1916827bffffffffffffffffffffffffffffffffffffffffffffffffffffffff1916148061085857507f5b5e139f000000000000000000000000000000000000000000000000000000007bffffffffffffffffffffffffffffffffffffffffffffffffffffffff1916827bffffffffffffffffffffffffffffffffffffffffffffffffffffffff1916145b8061086857506108678261193f565b5b9050919050565b6108776119a9565b73ffffffffffffffffffffffffffffffffffffffff16610895610fdb565b73ffffffffffffffffffffffffffffffffffffffff16146108eb576040517f08c379a00000000000000000000000000000000000000000000000000000000081526004016108e29061323f565b60405180910390fd5b80600b60006101000a81548160ff02191690831515021790555050565b6060600280546109179061328e565b80601f01602080910402602001604051908101604052809291908181526020018280546109439061328e565b80156109905780601f1061096557610100808354040283529160200191610990565b820191906000526020600020905b81548152906001019060200180831161097357829003601f168201915b5050505050905090565b60006109a5826119b1565b6109db576040517fcf4700e400000000000000000000000000000000000000000000000000000000815260040160405180910390fd5b6006600083815260200190815260200160002060009054906101000a900473ffffffffffffffffffffffffffffffffffffffff169050919050565b6000610a2182610d54565b90508073ffffffffffffffffffffffffffffffffffffffff168373ffffffffffffffffffffffffffffffffffffffff161415610a89576040517f943f7b8c00000000000000000000000000000000000000000000000000000000815260040160405180910390fd5b8073ffffffffffffffffffffffffffffffffffffffff16610aa86119a9565b73ffffffffffffffffffffffffffffffffffffffff1614158015610ada5750610ad881610ad36119a9565b61174e565b155b15610b11576040517fcfb3b94200000000000000000000000000000000000000000000000000000000815260040160405180910390fd5b610b1c8383836119ff565b505050565b6000610b2b611ab1565b6001546000540303905090565b610b43838383611ab6565b505050565b611b3981565b610b566119a9565b73ffffffffffffffffffffffffffffffffffffffff16610b74610fdb565b73ffffffffffffffffffffffffffffffffffffffff1614610bca576040517f08c379a0000000000000000000000000000000000000000000000000000000008152600401610bc19061323f565b60405180910390fd5b60004790506000610bd96119a9565b73ffffffffffffffffffffffffffffffffffffffff1682604051610bfc906132f1565b60006040518083038185875af1925050503d8060008114610c39576040519150601f19603f3d011682016040523d82523d6000602084013e610c3e565b606091505b5050905080610c82576040517f08c379a0000000000000000000000000000000000000000000000000000000008152600401610c7990613352565b60405180910390fd5b5050565b610ca18383836040518060200160405280600081525061159c565b505050565b600481565b610cb36119a9565b73ffffffffffffffffffffffffffffffffffffffff16610cd1610fdb565b73ffffffffffffffffffffffffffffffffffffffff1614610d27576040517f08c379a0000000000000000000000000000000000000000000000000000000008152600401610d1e9061323f565b60405180910390fd5b8060099080519060200190610d3d929190612a33565b5050565b600b60009054906101000a900460ff1681565b6000610d5f82611f6c565b600001519050919050565b610d726119a9565b73ffffffffffffffffffffffffffffffffffffffff16610d90610fdb565b73ffffffffffffffffffffffffffffffffffffffff1614610de6576040517f08c379a0000000000000000000000000000000000000000000000000000000008152600401610ddd9061323f565b60405180910390fd5b610df8610df16119a9565b60016121fb565b565b60098054610e079061328e565b80601f0160208091040260200160405190810160405280929190818152602001828054610e339061328e565b8015610e805780601f10610e5557610100808354040283529160200191610e80565b820191906000526020600020905b815481529060010190602001808311610e6357829003601f168201915b505050505081565b60008073ffffffffffffffffffffffffffffffffffffffff168273ffffffffffffffffffffffffffffffffffffffff161415610ef0576040517f8f4eb60400000000000000000000000000000000000000000000000000000000815260040160405180910390fd5b600560008373ffffffffffffffffffffffffffffffffffffffff1673ffffffffffffffffffffffffffffffffffffffff16815260200190815260200160002060000160009054906101000a900467ffffffffffffffff1667ffffffffffffffff169050919050565b610f606119a9565b73ffffffffffffffffffffffffffffffffffffffff16610f7e610fdb565b73ffffffffffffffffffffffffffffffffffffffff1614610fd4576040517f08c379a0000000000000000000000000000000000000000000000000000000008152600401610fcb9061323f565b60405180910390fd5b565b600a81565b6000600860009054906101000a900473ffffffffffffffffffffffffffffffffffffffff16905090565b6060600380546110149061328e565b80601f01602080910402602001604051908101604052809291908181526020018280546110409061328e565b801561108d5780601f106110625761010080835404028352916020019161108d565b820191906000526020600020905b81548152906001019060200180831161107057829003601f168201915b5050505050905090565b66753d533d96800081565b60006110ac6119a9565b9050600b60009054906101000a900460ff16156110fe576040517f08c379a00000000000000000000000000000000000000000000000000000000081526004016110f5906133be565b60405180910390fd5b81611107610b21565b611111919061340d565b611b391015611155576040517f08c379a000000000000000000000000000000000000000000000000000000000815260040161114c906134af565b60405180910390fd5b60008211611198576040517f08c379a000000000000000000000000000000000000000000000000000000000815260040161118f9061351b565b60405180910390fd5b8073ffffffffffffffffffffffffffffffffffffffff163273ffffffffffffffffffffffffffffffffffffffff1614611206576040517f08c379a00000000000000000000000000000000000000000000000000000000081526004016111fd90613587565b60405180910390fd5b61120e610b21565b600a106112b3578161121e610b21565b600a61122a91906135a7565b1161126a576040517f08c379a000000000000000000000000000000000000000000000000000000000815260040161126190613627565b60405180910390fd5b81600410156112ae576040517f08c379a00000000000000000000000000000000000000000000000000000000081526004016112a590613627565b60405180910390fd5b61134c565b81600a10156112f7576040517f08c379a00000000000000000000000000000000000000000000000000000000081526004016112ee90613693565b60405180910390fd5b3466753d533d9680008361130b91906136b3565b1461134b576040517f08c379a000000000000000000000000000000000000000000000000000000000815260040161134290613759565b60405180910390fd5b5b61135681836121fb565b5050565b6113626119a9565b73ffffffffffffffffffffffffffffffffffffffff168273ffffffffffffffffffffffffffffffffffffffff1614156113c7576040517fb06307db00000000000000000000000000000000000000000000000000000000815260040160405180910390fd5b80600760006113d46119a9565b73ffffffffffffffffffffffffffffffffffffffff1673ffffffffffffffffffffffffffffffffffffffff16815260200190815260200160002060008473ffffffffffffffffffffffffffffffffffffffff1673ffffffffffffffffffffffffffffffffffffffff16815260200190815260200160002060006101000a81548160ff0219169083151502179055508173ffffffffffffffffffffffffffffffffffffffff166114816119a9565b73ffffffffffffffffffffffffffffffffffffffff167f17307eab39ab6107e8899845ad3d59bd9653f200f220920489ca2b5937696c31836040516114c69190612bcd565b60405180910390a35050565b6114da6119a9565b73ffffffffffffffffffffffffffffffffffffffff166114f8610fdb565b73ffffffffffffffffffffffffffffffffffffffff161461154e576040517f08c379a00000000000000000000000000000000000000000000000000000000081526004016115459061323f565b60405180910390fd5b600a548110611592576040517f08c379a0000000000000000000000000000000000000000000000000000000008152600401611589906137c5565b60405180910390fd5b80600a8190555050565b6115a7848484611ab6565b6115c68373ffffffffffffffffffffffffffffffffffffffff16612219565b80156115db57506115d98484848461222c565b155b15611612576040517fd1a57ed600000000000000000000000000000000000000000000000000000000815260040160405180910390fd5b50505050565b6040518060400160405280600581526020017f2e6a736f6e00000000000000000000000000000000000000000000000000000081525081565b606061165c826119b1565b61169b576040517f08c379a000000000000000000000000000000000000000000000000000000000815260040161169290613831565b60405180910390fd5b6000600980546116aa9061328e565b9050116116c65760405180602001604052806000815250611729565b60096116d18361238c565b6040518060400160405280600581526020017f2e6a736f6e00000000000000000000000000000000000000000000000000000081525060405160200161171993929190613921565b6040516020818303038152906040525b9050919050565b73f57b2c51ded3a29e6891aba85459d600256cf31781565b600a5481565b60008073f57b2c51ded3a29e6891aba85459d600256cf31790508273ffffffffffffffffffffffffffffffffffffffff168173ffffffffffffffffffffffffffffffffffffffff1663c4552791866040518263ffffffff1660e01b81526004016117b89190612da0565b60206040518083038186803b1580156117d057600080fd5b505afa1580156117e4573d6000803e3d6000fd5b505050506040513d601f19601f820116820180604052508101906118089190613990565b73ffffffffffffffffffffffffffffffffffffffff16141561182e57600191505061183c565b61183884846124ed565b9150505b92915050565b61184a6119a9565b73ffffffffffffffffffffffffffffffffffffffff16611868610fdb565b73ffffffffffffffffffffffffffffffffffffffff16146118be576040517f08c379a00000000000000000000000000000000000000000000000000000000081526004016118b59061323f565b60405180910390fd5b600073ffffffffffffffffffffffffffffffffffffffff168173ffffffffffffffffffffffffffffffffffffffff16141561192e576040517f08c379a000000000000000000000000000000000000000000000000000000000815260040161192590613a2f565b60405180910390fd5b61193781612581565b50565b600a81565b60007f01ffc9a7000000000000000000000000000000000000000000000000000000007bffffffffffffffffffffffffffffffffffffffffffffffffffffffff1916827bffffffffffffffffffffffffffffffffffffffffffffffffffffffff1916149050919050565b600033905090565b6000816119bc611ab1565b111580156119cb575060005482105b80156119f8575060046000838152602001908152602001600020600001601c9054906101000a900460ff16155b9050919050565b826006600084815260200190815260200160002060006101000a81548173ffffffffffffffffffffffffffffffffffffffff021916908373ffffffffffffffffffffffffffffffffffffffff160217905550818373ffffffffffffffffffffffffffffffffffffffff168273ffffffffffffffffffffffffffffffffffffffff167f8c5be1e5ebec7d5bd14f71427d1e84f3dd0314c0f7b2291e5b200ac8c7c3b92560405160405180910390a4505050565b600090565b6000611ac182611f6c565b90508373ffffffffffffffffffffffffffffffffffffffff16816000015173ffffffffffffffffffffffffffffffffffffffff1614611b2c576040517fa114810000000000000000000000000000000000000000000000000000000000815260040160405180910390fd5b60008473ffffffffffffffffffffffffffffffffffffffff16611b4d6119a9565b73ffffffffffffffffffffffffffffffffffffffff161480611b7c5750611b7b85611b766119a9565b61174e565b5b80611bc15750611b8a6119a9565b73ffffffffffffffffffffffffffffffffffffffff16611ba98461099a565b73ffffffffffffffffffffffffffffffffffffffff16145b905080611bfa576040517f59c896be00000000000000000000000000000000000000000000000000000000815260040160405180910390fd5b600073ffffffffffffffffffffffffffffffffffffffff168473ffffffffffffffffffffffffffffffffffffffff161415611c61576040517fea553b3400000000000000000000000000000000000000000000000000000000815260040160405180910390fd5b611c6e8585856001612647565b611c7a600084876119ff565b6001600560008773ffffffffffffffffffffffffffffffffffffffff1673ffffffffffffffffffffffffffffffffffffffff16815260200190815260200160002060000160008282829054906101000a900467ffffffffffffffff160392506101000a81548167ffffffffffffffff021916908367ffffffffffffffff1602179055506001600560008673ffffffffffffffffffffffffffffffffffffffff1673ffffffffffffffffffffffffffffffffffffffff16815260200190815260200160002060000160008282829054906101000a900467ffffffffffffffff160192506101000a81548167ffffffffffffffff021916908367ffffffffffffffff1602179055506000600460008581526020019081526020016000209050848160000160006101000a81548173ffffffffffffffffffffffffffffffffffffffff021916908373ffffffffffffffffffffffffffffffffffffffff160217905550428160000160146101000a81548167ffffffffffffffff021916908367ffffffffffffffff16021790555060006001850190506000600460008381526020019081526020016000209050600073ffffffffffffffffffffffffffffffffffffffff168160000160009054906101000a900473ffffffffffffffffffffffffffffffffffffffff1673ffffffffffffffffffffffffffffffffffffffff161415611efa576000548214611ef957878160000160006101000a81548173ffffffffffffffffffffffffffffffffffffffff021916908373ffffffffffffffffffffffffffffffffffffffff16021790555084602001518160000160146101000a81548167ffffffffffffffff021916908367ffffffffffffffff1602179055505b5b505050828473ffffffffffffffffffffffffffffffffffffffff168673ffffffffffffffffffffffffffffffffffffffff167fddf252ad1be2c89b69c2b068fc378daa952ba7f163c4a11628f55a4df523b3ef60405160405180910390a4611f65858585600161264d565b5050505050565b611f74612ab9565b600082905080611f82611ab1565b11158015611f91575060005481105b156121c4576000600460008381526020019081526020016000206040518060600160405290816000820160009054906101000a900473ffffffffffffffffffffffffffffffffffffffff1673ffffffffffffffffffffffffffffffffffffffff1673ffffffffffffffffffffffffffffffffffffffff1681526020016000820160149054906101000a900467ffffffffffffffff1667ffffffffffffffff1667ffffffffffffffff16815260200160008201601c9054906101000a900460ff161515151581525050905080604001516121c257600073ffffffffffffffffffffffffffffffffffffffff16816000015173ffffffffffffffffffffffffffffffffffffffff16146120a65780925050506121f6565b5b6001156121c157818060019003925050600460008381526020019081526020016000206040518060600160405290816000820160009054906101000a900473ffffffffffffffffffffffffffffffffffffffff1673ffffffffffffffffffffffffffffffffffffffff1673ffffffffffffffffffffffffffffffffffffffff1681526020016000820160149054906101000a900467ffffffffffffffff1667ffffffffffffffff1667ffffffffffffffff16815260200160008201601c9054906101000a900460ff1615151515815250509050600073ffffffffffffffffffffffffffffffffffffffff16816000015173ffffffffffffffffffffffffffffffffffffffff16146121bc5780925050506121f6565b6120a7565b5b505b6040517fdf2d9b4200000000000000000000000000000000000000000000000000000000815260040160405180910390fd5b919050565b612215828260405180602001604052806000815250612653565b5050565b600080823b905060008111915050919050565b60008373ffffffffffffffffffffffffffffffffffffffff1663150b7a026122526119a9565b8786866040518563ffffffff1660e01b81526004016122749493929190613aa4565b602060405180830381600087803b15801561228e57600080fd5b505af19250505080156122bf57506040513d601f19601f820116820180604052508101906122bc9190613b05565b60015b612339573d80600081146122ef576040519150601f19603f3d011682016040523d82523d6000602084013e6122f4565b606091505b50600081511415612331576040517fd1a57ed600000000000000000000000000000000000000000000000000000000815260040160405180910390fd5b805181602001fd5b63150b7a0260e01b7bffffffffffffffffffffffffffffffffffffffffffffffffffffffff1916817bffffffffffffffffffffffffffffffffffffffffffffffffffffffff191614915050949350505050565b606060008214156123d4576040518060400160405280600181526020017f300000000000000000000000000000000000000000000000000000000000000081525090506124e8565b600082905060005b600082146124065780806123ef90613b32565b915050600a826123ff9190613baa565b91506123dc565b60008167ffffffffffffffff81111561242257612421612eae565b5b6040519080825280601f01601f1916602001820160405280156124545781602001600182028036833780820191505090505b5090505b600085146124e15760018261246d91906135a7565b9150600a8561247c9190613bdb565b6030612488919061340d565b60f81b81838151811061249e5761249d613c0c565b5b60200101907effffffffffffffffffffffffffffffffffffffffffffffffffffffffffffff1916908160001a905350600a856124da9190613baa565b9450612458565b8093505050505b919050565b6000600760008473ffffffffffffffffffffffffffffffffffffffff1673ffffffffffffffffffffffffffffffffffffffff16815260200190815260200160002060008373ffffffffffffffffffffffffffffffffffffffff1673ffffffffffffffffffffffffffffffffffffffff16815260200190815260200160002060009054906101000a900460ff16905092915050565b6000600860009054906101000a900473ffffffffffffffffffffffffffffffffffffffff16905081600860006101000a81548173ffffffffffffffffffffffffffffffffffffffff021916908373ffffffffffffffffffffffffffffffffffffffff1602179055508173ffffffffffffffffffffffffffffffffffffffff168173ffffffffffffffffffffffffffffffffffffffff167f8be0079c531659141344cd1fd0a4f28419497f9722a3daafe3b4186f6b6457e060405160405180910390a35050565b50505050565b50505050565b6126608383836001612665565b505050565b600080549050600073ffffffffffffffffffffffffffffffffffffffff168573ffffffffffffffffffffffffffffffffffffffff1614156126d2576040517f2e07630000000000000000000000000000000000000000000000000000000000815260040160405180910390fd5b600084141561270d576040517fb562e8dd00000000000000000000000000000000000000000000000000000000815260040160405180910390fd5b61271a6000868387612647565b83600560008773ffffffffffffffffffffffffffffffffffffffff1673ffffffffffffffffffffffffffffffffffffffff16815260200190815260200160002060000160008282829054906101000a900467ffffffffffffffff160192506101000a81548167ffffffffffffffff021916908367ffffffffffffffff16021790555083600560008773ffffffffffffffffffffffffffffffffffffffff1673ffffffffffffffffffffffffffffffffffffffff16815260200190815260200160002060000160088282829054906101000a900467ffffffffffffffff160192506101000a81548167ffffffffffffffff021916908367ffffffffffffffff160217905550846004600083815260200190815260200160002060000160006101000a81548173ffffffffffffffffffffffffffffffffffffffff021916908373ffffffffffffffffffffffffffffffffffffffff160217905550426004600083815260200190815260200160002060000160146101000a81548167ffffffffffffffff021916908367ffffffffffffffff1602179055506000819050600085820190508380156128e457506128e38773ffffffffffffffffffffffffffffffffffffffff16612219565b5b156129aa575b818773ffffffffffffffffffffffffffffffffffffffff16600073ffffffffffffffffffffffffffffffffffffffff167fddf252ad1be2c89b69c2b068fc378daa952ba7f163c4a11628f55a4df523b3ef60405160405180910390a4612959600088848060010195508861222c565b61298f576040517fd1a57ed600000000000000000000000000000000000000000000000000000000815260040160405180910390fd5b808214156128ea5782600054146129a557600080fd5b612a16565b5b818060010192508773ffffffffffffffffffffffffffffffffffffffff16600073ffffffffffffffffffffffffffffffffffffffff167fddf252ad1be2c89b69c2b068fc378daa952ba7f163c4a11628f55a4df523b3ef60405160405180910390a4808214156129ab575b816000819055505050612a2c600086838761264d565b5050505050565b828054612a3f9061328e565b90600052602060002090601f016020900481019282612a615760008555612aa8565b82601f10612a7a57805160ff1916838001178555612aa8565b82800160010185558215612aa8579182015b82811115612aa7578251825591602001919060010190612a8c565b5b509050612ab59190612afc565b5090565b6040518060600160405280600073ffffffffffffffffffffffffffffffffffffffff168152602001600067ffffffffffffffff1681526020016000151581525090565b5b80821115612b15576000816000905550600101612afd565b5090565b6000604051905090565b600080fd5b600080fd5b60007fffffffff0000000000000000000000000000000000000000000000000000000082169050919050565b612b6281612b2d565b8114612b6d57600080fd5b50565b600081359050612b7f81612b59565b92915050565b600060208284031215612b9b57612b9a612b23565b5b6000612ba984828501612b70565b91505092915050565b60008115159050919050565b612bc781612bb2565b82525050565b6000602082019050612be26000830184612bbe565b92915050565b612bf181612bb2565b8114612bfc57600080fd5b50565b600081359050612c0e81612be8565b92915050565b600060208284031215612c2a57612c29612b23565b5b6000612c3884828501612bff565b91505092915050565b600081519050919050565b600082825260208201905092915050565b60005b83811015612c7b578082015181840152602081019050612c60565b83811115612c8a576000848401525b50505050565b6000601f19601f8301169050919050565b6000612cac82612c41565b612cb68185612c4c565b9350612cc6818560208601612c5d565b612ccf81612c90565b840191505092915050565b60006020820190508181036000830152612cf48184612ca1565b905092915050565b6000819050919050565b612d0f81612cfc565b8114612d1a57600080fd5b50565b600081359050612d2c81612d06565b92915050565b600060208284031215612d4857612d47612b23565b5b6000612d5684828501612d1d565b91505092915050565b600073ffffffffffffffffffffffffffffffffffffffff82169050919050565b6000612d8a82612d5f565b9050919050565b612d9a81612d7f565b82525050565b6000602082019050612db56000830184612d91565b92915050565b612dc481612d7f565b8114612dcf57600080fd5b50565b600081359050612de181612dbb565b92915050565b60008060408385031215612dfe57612dfd612b23565b5b6000612e0c85828601612dd2565b9250506020612e1d85828601612d1d565b9150509250929050565b612e3081612cfc565b82525050565b6000602082019050612e4b6000830184612e27565b92915050565b600080600060608486031215612e6a57612e69612b23565b5b6000612e7886828701612dd2565b9350506020612e8986828701612dd2565b9250506040612e9a86828701612d1d565b9150509250925092565b600080fd5b600080fd5b7f4e487b7100000000000000000000000000000000000000000000000000000000600052604160045260246000fd5b612ee682612c90565b810181811067ffffffffffffffff82111715612f0557612f04612eae565b5b80604052505050565b6000612f18612b19565b9050612f248282612edd565b919050565b600067ffffffffffffffff821115612f4457612f43612eae565b5b612f4d82612c90565b9050602081019050919050565b82818337600083830152505050565b6000612f7c612f7784612f29565b612f0e565b905082815260208101848484011115612f9857612f97612ea9565b5b612fa3848285612f5a565b509392505050565b600082601f830112612fc057612fbf612ea4565b5b8135612fd0848260208601612f69565b91505092915050565b600060208284031215612fef57612fee612b23565b5b600082013567ffffffffffffffff81111561300d5761300c612b28565b5b61301984828501612fab565b91505092915050565b60006020828403121561303857613037612b23565b5b600061304684828501612dd2565b91505092915050565b6000806040838503121561306657613065612b23565b5b600061307485828601612dd2565b925050602061308585828601612bff565b9150509250929050565b600067ffffffffffffffff8211156130aa576130a9612eae565b5b6130b382612c90565b9050602081019050919050565b60006130d36130ce8461308f565b612f0e565b9050828152602081018484840111156130ef576130ee612ea9565b5b6130fa848285612f5a565b509392505050565b600082601f83011261311757613116612ea4565b5b81356131278482602086016130c0565b91505092915050565b6000806000806080858703121561314a57613149612b23565b5b600061315887828801612dd2565b945050602061316987828801612dd2565b935050604061317a87828801612d1d565b925050606085013567ffffffffffffffff81111561319b5761319a612b28565b5b6131a787828801613102565b91505092959194509250565b600080604083850312156131ca576131c9612b23565b5b60006131d885828601612dd2565b92505060206131e985828601612dd2565b9150509250929050565b7f4f776e61626c653a2063616c6c6572206973206e6f7420746865206f776e6572600082015250565b6000613229602083612c4c565b9150613234826131f3565b602082019050919050565b600060208201905081810360008301526132588161321c565b9050919050565b7f4e487b7100000000000000000000000000000000000000000000000000000000600052602260045260246000fd5b600060028204905060018216806132a657607f821691505b602082108114156132ba576132b961325f565b5b50919050565b600081905092915050565b50565b60006132db6000836132c0565b91506132e6826132cb565b600082019050919050565b60006132fc826132ce565b9150819050919050565b7f4661696c656420746f2073656e64000000000000000000000000000000000000600082015250565b600061333c600e83612c4c565b915061334782613306565b602082019050919050565b6000602082019050818103600083015261336b8161332f565b9050919050565b7f5061757365640000000000000000000000000000000000000000000000000000600082015250565b60006133a8600683612c4c565b91506133b382613372565b602082019050919050565b600060208201905081810360008301526133d78161339b565b9050919050565b7f4e487b7100000000000000000000000000000000000000000000000000000000600052601160045260246000fd5b600061341882612cfc565b915061342383612cfc565b9250827fffffffffffffffffffffffffffffffffffffffffffffffffffffffffffffffff03821115613458576134576133de565b5b828201905092915050565b7f45786365656473206d617820737570706c790000000000000000000000000000600082015250565b6000613499601283612c4c565b91506134a482613463565b602082019050919050565b600060208201905081810360008301526134c88161348c565b9050919050565b7f4e6f2030206d696e747300000000000000000000000000000000000000000000600082015250565b6000613505600a83612c4c565b9150613510826134cf565b602082019050919050565b60006020820190508181036000830152613534816134f8565b9050919050565b7f4e6f20636f6e7472616374730000000000000000000000000000000000000000600082015250565b6000613571600c83612c4c565b915061357c8261353b565b602082019050919050565b600060208201905081810360008301526135a081613564565b9050919050565b60006135b282612cfc565b91506135bd83612cfc565b9250828210156135d0576135cf6133de565b5b828203905092915050565b7f457863657373206d617820706572206672656520747800000000000000000000600082015250565b6000613611601683612c4c565b915061361c826135db565b602082019050919050565b6000602082019050818103600083015261364081613604565b9050919050565b7f457863657373206d617820706572207061696420747800000000000000000000600082015250565b600061367d601683612c4c565b915061368882613647565b602082019050919050565b600060208201905081810360008301526136ac81613670565b9050919050565b60006136be82612cfc565b91506136c983612cfc565b9250817fffffffffffffffffffffffffffffffffffffffffffffffffffffffffffffffff0483118215151615613702576137016133de565b5b828202905092915050565b7f496e76616c69642066756e64732070726f766964656400000000000000000000600082015250565b6000613743601683612c4c565b915061374e8261370d565b602082019050919050565b6000602082019050818103600083015261377281613736565b9050919050565b7f796f752063616e206f6e6c792064656372656173652069740000000000000000600082015250565b60006137af601883612c4c565b91506137ba82613779565b602082019050919050565b600060208201905081810360008301526137de816137a2565b9050919050565b7f546f6b656e20646f6573206e6f742065786973742e0000000000000000000000600082015250565b600061381b601583612c4c565b9150613826826137e5565b602082019050919050565b6000602082019050818103600083015261384a8161380e565b9050919050565b600081905092915050565b60008190508160005260206000209050919050565b6000815461387e8161328e565b6138888186613851565b945060018216600081146138a357600181146138b4576138e7565b60ff198316865281860193506138e7565b6138bd8561385c565b60005b838110156138df578154818901526001820191506020810190506138c0565b838801955050505b50505092915050565b60006138fb82612c41565b6139058185613851565b9350613915818560208601612c5d565b80840191505092915050565b600061392d8286613871565b915061393982856138f0565b915061394582846138f0565b9150819050949350505050565b600061395d82612d7f565b9050919050565b61396d81613952565b811461397857600080fd5b50565b60008151905061398a81613964565b92915050565b6000602082840312156139a6576139a5612b23565b5b60006139b48482850161397b565b91505092915050565b7f4f776e61626c653a206e6577206f776e657220697320746865207a65726f206160008201527f6464726573730000000000000000000000000000000000000000000000000000602082015250565b6000613a19602683612c4c565b9150613a24826139bd565b604082019050919050565b60006020820190508181036000830152613a4881613a0c565b9050919050565b600081519050919050565b600082825260208201905092915050565b6000613a7682613a4f565b613a808185613a5a565b9350613a90818560208601612c5d565b613a9981612c90565b840191505092915050565b6000608082019050613ab96000830187612d91565b613ac66020830186612d91565b613ad36040830185612e27565b8181036060830152613ae58184613a6b565b905095945050505050565b600081519050613aff81612b59565b92915050565b600060208284031215613b1b57613b1a612b23565b5b6000613b2984828501613af0565b91505092915050565b6000613b3d82612cfc565b91507fffffffffffffffffffffffffffffffffffffffffffffffffffffffffffffffff821415613b7057613b6f6133de565b5b600182019050919050565b7f4e487b7100000000000000000000000000000000000000000000000000000000600052601260045260246000fd5b6000613bb582612cfc565b9150613bc083612cfc565b925082613bd057613bcf613b7b565b5b828204905092915050565b6000613be682612cfc565b9150613bf183612cfc565b925082613c0157613c00613b7b565b5b828206905092915050565b7f4e487b7100000000000000000000000000000000000000000000000000000000600052603260045260246000fdfea2646970667358221220dd4df5ac436168087145bc9c64dca630c8bdde744e7f19dd39c2293b0ca2a9de64736f6c63430008090033",
  "linkReferences": {},
  "deployedLinkReferences": {}
}